:100000005BC0000075C0000073C0000071C000003C
:100010006FC000006DC000006BC0000069C0000030
:1000200067C00000BFC4000063C0000061C00000E2
:100030005FC000005DC000005BC0000059C0000050
:1000400057C0000055C0000053C0000051C0000060
:100050004FC00000A1C300004BC0000049C0000019
:1000600047C0000045C0000043C0000041C0000080
:100070003FC000003DC000003BC0000039C0000090
:10008000E7C3000035C0000033C0000031C00000ED
:100090002FC000002DC000002BC0000029C00000B0
:1000A00027C0000025C0000023C000006364696E03
:1000B0006F70737578585B0011241FBECFEFDAE0C4
:1000C000DEBFCDBF11E0A0E0B1E0ECEAFCE102C090
:1000D00005900D92A83DB107D9F722E0A8EDB1E057
:1000E00001C01D92A832B207E1F732D60C94540E2B
:1000F00087CFAEE1B0E0EEE7F0E0A2C729013A0118
:10010000EB8AFC8A0D8B1E8B2BA92F8B3CA9388F79
:100110004DA9498F5EA95A8FAFA9AB8FB8ADBC8FDF
:1001200029AD2D8F3AAD3E8FA6E0B0E09B01AC012A
:100130008DD669837A838B839C83DC01CB01BB0FD3
:10014000880B982FDC0189879A87AB87BC87A091A1
:100150000002B0910102BA8BA98B8FE39CE9019751
:10016000F1F700C00000E0910002F09101029F0150
:10017000442737FD4095542F2D873E874F87588B56
:10018000D301C201BB0F880B982FDC018D839E83A6
:10019000AF83B8871F2F110F110B29813A814B8133
:1001A0005C816985762F862F962F5F01C12ED12E17
:1001B000E12EF12E012F84D759016A017B018C01B8
:1001C0009201A3016D81762F862F962F4FD6EAE0FC
:1001D000AE2EB12CC12CD12CE12CF12C00E010E082
:1001E00098D64901142F352E262E072FF82EE92EEA
:1001F000A989BA89BD01882777FD8095982F2D851B
:100200003E854F855889621B730B840B950BFAE072
:100210004F2E512C612C712CA3019201FBD5CA01E8
:10022000B9012B893C894D895E89C3D5A30192010F
:10023000F1D529013A01DA01C901BB0F880B982FCA
:10024000DC018D839E83AF83B8879401412F532DAA
:10025000622D702F8F2D9E2D52016301ED80FE2C9B
:100260000E2D1E2D24D729013A01962E872E382EC9
:10027000292E2F89388D498D5A8D6B8D7C8D8D8DD2
:100280009E8D52016301E92CF82C032D122D21D7EC
:1002900009F43CC099859F939F939F939F93AC8152
:1002A000AF93BB81BF932A812F9339813F938AE11A
:1002B00091E09F938F936FD748894F935F855F93AA
:1002C0008E858F939D859F9383E291E09F938F937B
:1002D00062D72F923F928F929F927F926F925F92FE
:1002E0004F928CE291E09F938F9355D780910002BB
:1002F000909101029F938F9384E391E09F938F935A
:100300004AD70FB6F894DEBF0FBECDBF9201A3014E
:10031000692D782D832D922DA2E0E4D6B1F0ACF0BA
:100320007298A6E1AA2EB12CC12CD12CE12CF12C73
:1003300000E010E0EED52D3331054105510554F1B3
:100340002CE330E040E050E025C09201A301692D8C
:10035000782D832D922DAEEFC5D6D4F4729AE8E9AC
:10036000AE2EF8E0BF2EC12CD12CE12CF12C00E0F8
:1003700010E0CFD5A4E6B0E069D56D3371058105F5
:10038000910524F06CE370E080E090E09B0102C0F6
:1003900020E030E048E958E060E074E081E090E07F
:1003A00087D49201A301692D782D832D922D6E960D
:1003B000E2E162C687E0E5E0F1E0A9E0B2E00190A9
:1003C0000D928A95E1F73F9A87E0ECE0F1E0A2E038
:1003D000B2E001900D928A95E1F7559A87E0E3E14A
:1003E000F1E0A9EFB1E001900D928A95E1F7209A32
:1003F0000895FC01A281B38134812C9181E090E0C9
:10040000032E01C0880F0A94EAF7672B19F4282BF2
:100410002C9303C0809582238C932FEF83EC99E07B
:10042000215080409040E1F700C00000A281B381DC
:100430002C9181E090E0048002C0880F991F0A94FB
:10044000E2F728272C932FEF83EC99E0215080408E
:100450009040E1F700C00000089560E070E089E09E
:1004600092E0C7DF61E070E089EF91E0C2DF61E018
:1004700070E082E092E0BDDF60E070E089E092E051
:10048000B8DF61E070E089EF91E0B3DF61E070E038
:1004900082E092E0AECFA1E0B0E0E0E5F2E0E0C5BE
:1004A000FC012081223501F17CF4243409F48BC055
:1004B00024F4233409F44AC0C5C0273409F4AEC07B
:1004C000203509F463C0BEC0273609F4A7C034F450
:1004D0002336E1F1243609F476C0B4C0203709F49C
:1004E00055C0223709F0AEC02CEE31E03F932F9378
:1004F0009E012F5F3F4F3F932F932BE431E03F93BB
:100500002F932EE431E03F932F939F938F9386D6C2
:100510008091F3018F938091F2018F938091F1018B
:100520008F938091F0018F938091EF018F93809151
:10053000EE018F938091ED018F938091EC018F9369
:1005400081E591E09F938F9326D662C020E031E051
:100550003F932F939E012F5F3F4F3F932F932BE4A9
:1005600031E03F932F932EE431E03F932F939F93FD
:100570008F9354D6809103018F93809102018F93C2
:10058000809101018F93809100013CC027E132E00E
:100590003F932F939E012F5F3F4F3F932F932BE469
:1005A00031E03F932F932EE431E03F932F939F93BD
:1005B0008F9334D68091170290911802A09119025E
:1005C000B0911A021CC023E132E03F932F939E01A9
:1005D0002F5F3F4F3F932F932BE431E03F932F93B7
:1005E0002EE431E03F932F939F938F9317D6809102
:1005F000130290911402A0911502B0911602BF93BC
:10060000AF939F938F938DE691E09F938F93C3D584
:100610000FB6F894DEBF0FBECDBF17C087E891E0DC
:100620009F938F93B8D581E090E0A0E0B0E08093F5
:10063000D8019093D901A093DA01B093DB010F9018
:100640000F9003C082E991E0BCD52196E2E024C579
:10065000A2E1B0E0EDE2F3E0FFC4282F00E010E0FB
:1006600087ECE82E81E0F82E283051F40250110971
:10067000FF92EF922A8B8FD50F900F902A891DC081
:100680002A3019F40150110918C02D30D9F0822FE9
:10069000992787FD90952A8B8FD5E1E0F0E0EC0F4C
:1006A000FD1FE00FF11F2A89208380912202909183
:1006B000230233D5282F8F3FC1F30F5F1F4F003127
:1006C000110594F280E991E07CD50031110521F407
:1006D0008BEC91E076D50DC0E1E0F0E0EC0FFD1F72
:1006E000E00FF11F10828981882319F0CE01019655
:1006F000D2DE6296E6E0CCC4409100015091010147
:1007000060E074E083E090E08ED24AE050E060E088
:1007100074E080E090E087C2109201021092000223
:1007200010921702109218021092190210921A02D7
:1007300010921302109214021092150210921602D7
:100740001092F4011092E4011092E5011092E6017A
:100750001092E7011092E8011092E9011092EA016B
:100760001092EB011092DC011092DD011092DE017B
:100770001092DF011092E0011092E1011092E2016B
:100780001092E301089516DE87D167DEF9D0EFD02D
:10079000B3DFF894789408951F920F920FB60F92DA
:1007A00011242F933F934F935F936F937F938F9376
:1007B0009F93AF93BF93CF93EF93FF9380910401E7
:1007C000811134C0809111029091120280329E44B6
:1007D00054F480911102909112020A9690931202A1
:1007E0008093110223C080911102909112028032F5
:1007F0009E44E1F4E0910B02F0910C02208181E033
:1008000090E000900D0202C0880F991F0A94E2F751
:1008100028272083C1E0C09304018091F401811155
:1008200005C082E991E0CDD4C093F401FF91EF912E
:10083000CF91BF91AF919F918F917F916F915F9178
:100840004F913F912F910F900FBE0F901F901895D1
:100850001F920F920FB60F921124CF92DF92EF9258
:10086000FF920F931F932F933F934F935F936F9339
:100870007F938F939F93AF93BF93CF93DF93EF9328
:10088000FF93E091DC01F091DD01A091DE01B091D8
:10089000DF01C091E001D091E101D090E201C09070
:1008A000E301E093E401F093E501A093E601B09346
:1008B000E701C093E801D093E901D092EA01C09228
:1008C000EB0180910401811139C0E0901302F09096
:1008D0001402009115021091160220911702309116
:1008E00018024091190250911A026091EC01709126
:1008F000ED018091EE019091EF01CF92DF92DF93B5
:10090000CF93BF93AF93FF93EF93F3DB2093DC017F
:100910003093DD014093DE015093DF016093E001ED
:100920007093E1018093E2019093E3018DB79EB74C
:1009300008960FB6F8949EBF0FBE8DBFFF91EF9142
:10094000DF91CF91BF91AF919F918F917F916F91E7
:100950005F914F913F912F911F910F91FF90EF90D9
:10096000DF90CF900F900FBE0F901F90189520E052
:1009700030E048E958E060E074E081E090E098C140
:1009800024982598EBE6F0E0808180618083808167
:1009900080628083E8E6F0E0808181608083519A04
:1009A000599A08951F920F920FB60F9211242F9308
:1009B0003F934F935F936F937F938F939F93AF93E7
:1009C000BF93EF93FF9343B144FB222720F930E01C
:1009D00045FB882780F990E040911D0250911E024E
:1009E000E82F6091200270912102241751F040916C
:1009F0000002509101024F5F5F4F509301024093FC
:100A00000002E61751F0409100025091010241505E
:100A100051095093010240930002409120025091ED
:100A200021022417350751F040911D0250911E02FA
:100A30008417950719F041E040931B02309321027F
:100A40002093200290931E0280931D026091F50175
:100A50007091F6018091F7019091F80124E130E066
:100A600040E050E0B5D1672B682B692B21F48BB1A6
:100A700090E289278BB9FF91EF91BF91AF919F9140
:100A80008F917F916F915F914F913F912F910F9037
:100A90000FBE0F901F90189587E690E09093CD00C1
:100AA0008093CC00EAECF0E0808186608083E9EC02
:100AB000F0E0808188608083808180618083808194
:100AC0008068808308959091C80095FFFCCF809343
:100AD000CE000895CF93DF93EC018991882311F024
:100AE000F2DFFBCF8DE0EFDFDF91CF91089514BCF3
:100AF00015BC94B5926094BD95B5982B95BD67BD16
:100B0000EEE6F0E080818260808381E090E00895ED
:100B100010928000E1E8F0E010829081986090836C
:100B20009081982B90837093890060938800EFE602
:100B3000F0E080818260808381E090E00895A0E809
:100B4000B0E01C92E1E8F0E010829C9192609C93EE
:100B50009081986090839081906190839081982B90
:100B6000908370938B0060938A008C9180628C9349
:100B7000309387002093860081E090E008951092E2
:100B80009000E1E9F0E0108290819860908390817C
:100B9000982B90837093990060939800E1E7F0E0C0
:100BA00080818260808381E090E00895A0E9B0E0D8
:100BB0001C92E1E9F0E010829C9192609C939081FC
:100BC000986090839081906190839081982B90831E
:100BD00070939900609398008C9180688C93309307
:100BE00097002093960081E090E00895803491056D
:100BF00091F034F48130910561F0089791F00FC0C5
:100C0000811521E0920749F08115944041F485E077
:100C1000089581E0089583E0089584E0089580E0D8
:100C2000089582E00895A0E0B0E0E8E1F6E012C2A5
:100C3000EC018B017A018230910518F08330910527
:100C400089F560E87EE380E090E09801442737FD75
:100C50004095542FBDD0D70103D16B017C01209763
:100C600041F48FEFC816D104E104F10441F038F0EB
:100C700019C0C114D10481E0E806F10498F4C80158
:100C8000B5DFC130D10541F0C330D10541F0CD2BE6
:100C900049F46C2D2CDF08C0B6013ADF05C0B6015F
:100CA0006EDF02C08FEF9FEFCDB7DEB7E8E0EEC199
:100CB000A0E0B0E0EDE5F6E0C9C1EC018B017A01FE
:100CC00059018230910520F08330910509F03AC036
:100CD00060E87EE380E090E09801442737FD40958E
:100CE000542F76D0D701BCD06B017C01209741F402
:100CF0008FEFC816D104E104F10441F038F022C0AE
:100D0000C114D10481E0E806F104E0F4D501A701A3
:100D10009601A6D024E630E040E050E059D04901E9
:100D20005A01C80163DFC130D10539F0239751F46E
:100D3000A7019601B4013ADF07C0A7019601B401EB
:100D4000FEDE02C08FEF9FEFCDB7DEB7ECE09AC1B9
:100D50001092D800789417DD80910401813009F455
:100D600026988091220290912302D7D1809310027D
:100D70008F3F09F06DDC8091D8019091D901A0914D
:100D8000DA01B091DB010197A105B10529F7B4DCC7
:100D900078941092D8011092D9011092DA01109231
:100DA000DB01109212021092110210920401269A95
:100DB000D3CFDB018F939F9349D0BF91AF91A29F77
:100DC000800D911DA39F900DB29F900D1124089549
:100DD000A1E21A2EAA1BBB1BFD010DC0AA1FBB1F3F
:100DE000EE1FFF1FA217B307E407F50720F0A21BB1
:100DF000B30BE40BF50B661F771F881F991F1A941E
:100E000069F760957095809590959B01AC01BD0147
:100E1000CF010895052E97FB16F400940FD057FDCF
:100E200005D0D6DF07FC02D046F408C050954095A7
:100E3000309521953F4F4F4F5F4F08959095809586
:100E4000709561957F4F8F4F9F4F089557D1A59F04
:100E5000900DB49F900DA49F800D911D11240895B5
:100E6000B7FFF4CFF3DF821B930B0895DF93CF938B
:100E70001F930F939A9DF02D219FF00D8B9DF00DE8
:100E80008A9DE02DF10D039FF00D029FE00DF11DF5
:100E90004E9DE00DF11D5E9DF00D4F9DF00D7F9379
:100EA0006F93BF92AF925F934F93D50127D18B0180
:100EB000AC01D70123D1EB01E80FF91FD6011FD0F8
:100EC0002F913F91D6011AD1C60FD71FE81FF91FE6
:100ED000AF91BF9114D02F913F9110D1C60FD71F62
:100EE000E81FF91FD6010AD1E60FF71F9801BE01CE
:100EF000CF0111240F911F91CF91DF910895FED062
:100F0000460F571FC81FD91F08F4319608956894DB
:100F100001C0E894F92FF12B0AF027C0A0E0B0E05F
:100F2000E3E9F7E093C0092E05941AF479D0112370
:100F300092F4F0E80F26FFEFE094F09400951095FE
:100F4000B094C094D094A194BF0ACF0ADF0AEF0AEC
:100F5000FF0A0F0B1F0B13D007FC62D0CDB7DEB713
:100F6000ECE090C0689401C0E8948F929F92CF9378
:100F7000DF9305D0DF91CF919F908F9008958824C3
:100F80009924F401E401B0E49F93AA279A158B04F5
:100F90009C04ED05FE05CF05D007A10798F4AD2F01
:100FA000DC2FCF2FFE2FE92D982C892E982F872FFD
:100FB000762F652F542F432F322F2227B85031F729
:100FC000BF9127C01B2EBF91BB27220F331F441F89
:100FD000551F661F771F881F991F881C991CEE1FBD
:100FE000FF1FCC1FDD1FAA1FBB1F8A149B04EC052B
:100FF000FD05CE05DF05A007B10748F08A189B085C
:10100000EC09FD09CE09DF09A00BB10B21601A9490
:10101000E1F62EF49401AF01BE01CD01000C08955C
:101020006095709580959095309540955095219557
:101030003F4F4F4F5F4F6F4F7F4F8F4F9F4F0895E1
:101040002F923F924F925F926F927F928F929F92D8
:10105000AF92BF92CF92DF92EF92FF920F931F93C6
:10106000CF93DF93CDB7DEB7CA1BDB0B0FB6F89477
:10107000DEBF0FBECDBF09942A88398848885F84B7
:101080006E847D848C849B84AA84B984C884DF8028
:10109000EE80FD800C811B81AA81B981CE0FD11D0C
:1010A0000FB6F894DEBF0FBECDBFED0108952A0D37
:1010B0003B1D4C1D5D1D6E1D7F1D801F911F0895E2
:1010C0002A193B094C095D096E097F09800B910BB8
:1010D00008952A153B054C055D056E057F058007C3
:1010E000910708950024A7FD00942A1730054005B4
:1010F000500560057005800590050895A29FB00118
:10110000B39FC001A39F700D811D1124911DB29F3B
:10111000700D811D1124911D0895CF93DF93EC0173
:101120002B8120FF33C026FF0AC02F7B2B838E81AB
:101130009F8101969F838E838A8190E029C022FF40
:101140000FC0E881F9818081992787FD90950097EC
:1011500019F420622B831AC03196F983E8830EC0FC
:10116000EA85FB85099597FF09C02B81019611F44B
:1011700080E101C080E2822B8B8308C02E813F81F9
:101180002F5F3F4F3F832E83992702C08FEF9FEF42
:10119000DF91CF910895A0E0B0E0E0EDF8E060CFFE
:1011A000FE01359661917191AF0180912402909179
:1011B00025024AD0E2E070CF6091240270912502AE
:1011C000C7C40F931F93CF93DF93E0912402F09154
:1011D0002502238121FF1BC0EC0100E010E0899172
:1011E0006091240270912502DB011896ED91FC912B
:1011F0001997882331F00995892B89F30FEF1FEF99
:10120000EECF8AE00995892B11F4C80102C08FEF57
:101210009FEFDF91CF911F910F910895AEE0B0E065
:10122000E3E1F9E01DCF85E08C838B899C899A836B
:101230008983AE01495E5F4F6D897E89CE0101963B
:1012400035D32E96E2E028CFACE0B0E0E9E2F9E059
:10125000F7CE7C016B018A01FC0117821682838123
:1012600081FFB0C1CE0101964C01F7019381F601D7
:1012700093FD859193FF81916F01882309F49EC1AD
:10128000853239F493FD859193FF81916F01853209
:1012900021F4B70190E05CD4E8CF512C312C20E050
:1012A0002032A0F48B3269F030F4803259F083326E
:1012B00069F420612CC08D3239F0803339F421601B
:1012C00026C02260246023C0286021C027FD27C0DB
:1012D00030ED380F3A3078F426FF06C0FAE05F9E12
:1012E000300D1124532E13C08AE0389E300D112486
:1012F000332E20620CC08E3221F426FD5FC12064A3
:1013000006C08C3611F4206802C0883641F4F6011C
:1013100093FD859193FF81916F018111C1CF982F2A
:101320009F7D9554933028F40C5F1F4FFFE3F983A2
:101330000DC0833631F0833771F0833509F057C023
:1013400021C0F801808189830E5F1F4F442443949C
:10135000512C540114C03801F2E06F0E711CF801D9
:10136000A080B18026FF03C0652D70E002C06FEF42
:101370007FEFC5012C87E1D32C0183012C852F77CA
:10138000222E16C03801F2E06F0E711CF801A08009
:10139000B18026FF03C0652D70E002C06FEF7FEFC4
:1013A000C5012C87BFD32C012C852068222E8301F8
:1013B00023FC19C0832D90E048165906A0F4B7010C
:1013C00080E290E0C5D33A94F5CFF50127FC8591F2
:1013D00027FE81915F01B70190E0BAD331103A94B2
:1013E000F1E04F1A51084114510479F7DEC08436F8
:1013F00011F0893631F5F80127FF07C0608171814E
:10140000828193810C5F1F4F08C0608171818827A2
:1014100077FD8095982F0E5F1F4F2F76B22E97FF86
:1014200009C090958095709561957F4F8F4F9F4F24
:101430002068B22E2AE030E0A401D5D3A82EA81847
:1014400043C0853729F42F7EB22E2AE030E025C034
:10145000F22FF97FBF2E8F36C1F018F4883579F05E
:10146000ADC0803719F0883721F0A8C02F2F206138
:10147000B22EB4FE0DC08B2D8460B82E09C024FF9F
:101480000AC09F2F9660B92E06C028E030E005C044
:1014900020E130E002C020E132E0F801B7FE07C0F1
:1014A00060817181828193810C5F1F4F06C06081D2
:1014B000718180E090E00E5F1F4FA40194D3A82EAD
:1014C000A818FB2DFF77BF2EB6FE0BC02B2D2E7F4D
:1014D000A51450F4B4FE0AC0B2FC08C02B2D2E7E19
:1014E00005C07A2C2B2D03C07A2C01C0752C24FF4B
:1014F0000DC0FE01EA0DF11D8081803311F4297EBB
:1015000009C022FF06C07394739404C0822F8678AA
:1015100009F0739423FD12C020FF06C05A2C7314E7
:1015200018F4530C5718732C731460F4B70180E24D
:1015300090E02C870DD373942C85F6CF731410F4A0
:10154000371801C0312C24FF11C0B70180E390E0AF
:101550002C87FED22C8522FF16C021FF03C088E510
:1015600090E002C088E790E0B7010CC0822F867837
:1015700051F021FD02C080E201C08BE227FD8DE227
:10158000B70190E0E5D2A51430F4B70180E390E014
:10159000DFD25A94F8CFAA94F401EA0DF11D8081AC
:1015A000B70190E0D5D2A110F6CF332009F45DCE7B
:1015B000B70180E290E0CCD23A94F7CFF701868170
:1015C000978102C08FEF9FEF2C96E2E155CD20FD71
:1015D00009C0FC0123FD05C022FF02C073836283A2
:1015E00051834083089544FD10C046FD10C0DB01C7
:1015F000FC01AA0FBB1FEE1FFF1F1094D1F76A0F4B
:101600007B1F8E1F9F1F31E003C033E001C034E019
:10161000660F771F881F991F3150D1F7620F711D18
:10162000811D911D08950F931F93CF93DF938C011C
:10163000C80173DDEC0197FD06C061D2892BC1F7AB
:10164000B801CE01B7D2CE01DF91CF911F910F919A
:1016500008958F929F92AF92CF92DF92EF92FF9276
:101660000F931F93CF93DF93EC01A62E4A01022F15
:1016700054DDAC0155274B32510521F04D32510557
:1016800049F40068AA9411F480E060C0CE0145DD01
:1016900097FDFACF102F1D7F302F3073F1F4803378
:1016A000E1F4FF24FA94FA0C09F43DC0CE0135DDD3
:1016B00097FD39C0382F3F7D383549F41264AA941C
:1016C000AA9489F1CE0129DD97FF07C02CC006FF3F
:1016D00002C0126001C01261AF2CC12CD12C760166
:1016E00020ED280F283078F014FF03C0BE0162D22D
:1016F00017C02A3040F016FFF9CF2F7D3FEE320F92
:101700003630A0F72750412FC701B6016CDF6B01BF
:101710007C011260AA9451F0CE01FFDC97FFE0CF6C
:1017200011FD04C0B1CFC12CD12C760117FF08C028
:10173000F094E094D094C094C11CD11CE11CF11C25
:10174000212FB701A601C40142DF81E0DF91CF91D3
:101750001F910F91FF90EF90DF90CF90AF909F90EF
:101760008F900895A1E2B0E0E7EBFBE06ECC5C0166
:101770007A018E010F5F1F4F680180E2D8011D9230
:101780008A95E9F7F501738040E050E0812CB0E0E4
:10179000912C81E090E0F90173FCA59173FEA19179
:1017A0008F017A2F9F01A11103C080E090E07BC0E0
:1017B000AE3519F44115510559F1E92DF0E0E41762
:1017C000F5073CF4AD3569F1AD3219F4BB2319F1DD
:1017D00003C0B11101C08A2EE72FE695E695E69584
:1017E00086010E0F111DF801A72FA7708C0102C0F2
:1017F000000F111FAA95E2F7D801B081BA2BB08370
:10180000781559F0781510F47F5FE6CF7150E4CF6A
:101810009924939403C0B1E001C0B0E04F5F5F4FE3
:10182000BACFBB2319F08E8180628E83911003C0E2
:101830009924939415C0F601CE01819620812095BC
:101840002193E817F907D1F7F3CFE114F10429F058
:10185000D7018C93F70131967F016150F1F0912C03
:10186000C50169A35ADC69A197FD15C0282F2695EB
:1018700026952695F601E20FF11D208130E0AC019E
:101880004770552702C0359527954A95E2F720FD08
:10189000DCCFB5018FD1911088CFE114F10411F0A4
:1018A000D7011C92C801A196EDE0EBCB4F925F925D
:1018B0007F928F929F92AF92BF92CF92DF92EF92E0
:1018C000FF920F931F93CF93DF931F92CDB7DEB795
:1018D0008C012B017A01FC0117821682A12CF801E0
:1018E000D380F201D3FC8591D3FE8191382F2F0153
:1018F000882309F4EEC090E0398301D13981892B26
:1019000019F0C80190DEEBCF353241F4F201D3FC7F
:101910003591D3FE31912F01353259F4C801398305
:10192000FCDB398197FDD3C03817C9F2B80142D129
:10193000D0C03A3241F4D3FC3591D3FE31912F011E
:10194000BB24B39401C0B12C712C20ED230F2A309D
:1019500088F4FB2DF260BF2E672D70E080E090E0F0
:1019600040E241DE762EF201D3FC3591D3FE319177
:101970002F01EBCFB1FE03C0711003C0AAC07724C2
:101980007A94383619F03C3661F014C0F201D3FC79
:101990003591D3FE31912F01383661F4FB2DF8607B
:1019A000BF2E8B2D8460B82EF201D3FC3591D3FE6F
:1019B00031912F01332309F48CC0632F70E08CEA3E
:1019C00090E03983A4D03981892B09F482C0B0FC1E
:1019D00007C0F701C080D180C70102967C0102C018
:1019E000C12CD12C3E3649F4F8014681578160E084
:1019F00070E02B2DC601EBDD72CF333699F4B1FCCC
:101A000002C077247394C80188DB97FD60C0C114BD
:101A1000D10429F0F6018083C60101966C017A9405
:101A200091F751C03B3551F49201A601672DC801D1
:101A300099DE2C01009709F046C040C0C8013983E7
:101A4000F2DD398197FD43C03F3651F128F4343639
:101A500019F1393661F128C0333769F03537E1F0D3
:101A600023C0C114D10429F0F6018082C601019679
:101A70006C017A9459F0C80150DB4C0197FD06C007
:101A80003ED0892B71F3B801C40194D0C114D104A4
:101A9000D1F0F601108217C0FB2DF062BF2E07C0F7
:101AA0008B2D8061B82E03C09B2D9064B92E2B2DF9
:101AB000A601672DC801CDDD811105C0F801838124
:101AC000807329F406C0B0FC0ACFA39408CFAA20E3
:101AD00019F08A2D90E002C08FEF9FEF0F90DF91F9
:101AE000CF911F910F91FF90EF90DF90CF90BF901B
:101AF000AF909F908F907F905F904F90089591113D
:101B0000D0C0803219F089508550D0F70895FC017B
:101B10000590061621F00020D9F7C00108953197ED
:101B2000CF010895FC010590615070400110D8F775
:101B3000809590958E0F9F1F0895FC016150704015
:101B400001900110D8F7809590958E0F9F1F0895F2
:101B50000F931F93CF93DF93182F092FEB018B81E6
:101B600081FD03C08FEF9FEF20C082FF10C04E8128
:101B70005F812C813D81421753077CF4E881F98114
:101B80009F012F5F3F4F39832883108306C0E8856C
:101B9000F985812F0995892B29F72E813F812F5FA8
:101BA0003F4F3F832E83812F902FDF91CF911F9145
:101BB0000F910895FB01238120FF12C026FD10C064
:101BC0008F3F3FEF930761F082832F7D2064238353
:101BD000268137812150310937832683992708953B
:101BE0008FEF9FEF0895FA01AA27283051F1203195
:101BF00081F1E8946F936E7F6E5F7F4F8F4F9F4FA1
:101C0000AF4FB1E03ED0B4E03CD0670F781F891FE2
:101C10009A1FA11D680F791F8A1F911DA11D6A0FB0
:101C2000711D811D911DA11D20D009F468943F9163
:101C30002AE0269F11243019305D3193DEF6CF0162
:101C40000895462F4770405D4193B3E00FD0C9F728
:101C5000F6CF462F4F70405D4A3318F0495D31FD95
:101C60004052419302D0A9F7EACFB4E0A6959795E8
:101C7000879577956795BA95C9F7009761057105BE
:101C800008959B01AC010A2E069457954795379508
:101C90002795BA95C9F7620F731F841F951FA01D62
:0C1CA0000895992788270895F894FFCF35
:101CAC006400000001270028000726002A002B00F2
:101CBC000529002400250000230050723A202564D9
:101CCC000A0D00506D3A2025640A0D00543A202567
:101CDC00640A0D00676C6F62616C5F636F756E7484
:101CEC00735F6D323A2025640A0D0025640025636C
:101CFC0000536574207265666572656E6365207647
:101D0C00616C75652061732025640A0D0053657440
:101D1C0020504420636F6E74726F6C2076616C750A
:101D2C00652025640A0D0053544152542121210A87
:101D3C000D0072286566656E63652076616C75654D
:101D4C00292063286F6E74726F6C657220706572D7
:101D5C00696F64292070284B50292064284B442932
:101D6C002067286F290D00082008004275666665FB
:081D7C00722066756C6C0D000D
:00000001FF
