:10000000A6C00000C0C00000BEC00000BCC0000010
:10001000BAC00000B8C00000B6C00000B4C0000004
:10002000B2C0000025C50000BFC700000C949F08A7
:10003000AAC00000A8C00000A6C00000A4C0000024
:10004000A2C00000A0C000009EC000009CC0000034
:100050009AC0000006C4000096C0000094C00000D2
:1000600092C0000090C000008EC000008CC0000054
:100070008AC0000088C0000086C0000084C0000064
:100080004DC4000080C000007EC000007CC00000A5
:100090007AC0000078C0000076C0000074C0000084
:1000A00072C0000070C000006EC0000026034C004B
:1000B00055004600410020004400750061006C00BE
:1000C00020004300440043002000440065006D0010
:1000D0006F00000018034400650061006E002000FE
:1000E000430061006D0065007200610000000403C0
:1000F000090409023E00020100C0320904000001A7
:100100000202010005240010010424020605240651
:100110000001070582030800FF09040100020A002C
:100120000000070504021000050705830210000502
:1001300012011001EF020108EB034E200100010241
:10014000DC016364696E6F70737578585B0011240D
:100150001FBECFEFDAE0DEBFCDBF12E0A0E0B1E01E
:10016000ECE6FAE202C005900D92A630B107D9F78D
:1001700022E0A6E0B2E001C01D92A137B207E1F78C
:1001800052D60C9434153CCFAEE1B0E0EAECF0E08E
:100190000C94000F29013A01EB8AFC8A0D8B1E8B0F
:1001A0002BA92F8B3CA9388F4DA9498F5EA95A8F57
:1001B000AFA9AB8FB8ADBC8F29AD2D8F3AAD3E8FB7
:1001C000A6E0B0E09B01AC010E94060E69837A8331
:1001D0008B839C83DC01CB01BB0F880B982FDC0148
:1001E00089879A87AB87BC87A0913C02B0913D027A
:1001F000BA8BA98B8FE39CE90197F1F700C000004F
:10020000E0913C02F0913D029F01442737FD40956B
:10021000542F2D873E874F87588BD301C201BB0FC8
:10022000880B982FDC018D839E83AF83B8871F2FA7
:10023000110F110B29813A814B815C816985762FE1
:10024000862F962F5F01C12ED12EE12EF12E012F88
:100250000E94400F59016A017B018C019201A301A8
:100260006D81762F862F962F0E94160EEAE0AE2E15
:10027000B12CC12CD12CE12CF12C00E010E00E941B
:10028000690E4901142F352E262E072FF82EE92E40
:10029000A989BA89BD01882777FD8095982F2D857A
:1002A0003E854F855889621B730B840B950BFAE0D2
:1002B0004F2E512C612C712CA30192010E94EA0D4A
:1002C000CA01B9012B893C894D895E890E94B90D0B
:1002D000A30192010E94EA0D29013A01DA01C90144
:1002E000BB0F880B982FDC018D839E83AF83B8876B
:1002F0009401412F532D622D702F8F2D9E2D520171
:100300006301ED80FE2C0E2D1E2D0E94370F29015A
:100310003A01962E872E382E292E2F89388D498D19
:100320005A8D6B8D7C8D8D8D9E8D52016301E92CD4
:10033000F82C032D122D0E94490FA1F199859F934E
:100340009F939F939F93AC81AF93BB81BF932A816F
:100350002F9339813F9385E391E09F938F930E9480
:10036000AB0F48894F935F855F938E858F939D85F3
:100370009F938EE391E09F938F930E94AB0F2F92F8
:100380003F928F929F927F926F925F924F9287E4FB
:1003900091E09F938F930E94AB0F0FB6F894DEBF4E
:1003A0000FBECDBF9201A301692D782D832D922D13
:1003B000A2E00E94520FB9F0B4F07298A6E1AA2E02
:1003C000B12CC12CD12CE12CF12C00E010E00E94CA
:1003D000690E2D333105410551056CF12CE330E0F8
:1003E00040E050E028C09201A301692D782D832DB3
:1003F000922DAEEF0E94520FE4F4729AE8E9AE2E0D
:10040000F8E0BF2EC12CD12CE12CF12C00E010E043
:100410000E94690EA4E6B0E00E94060E6D337105DD
:100420008105910524F06CE370E080E090E09B0191
:1004300002C020E030E048E958E060E074E081E08C
:1004400090E09FD49201A301692D782D832D922DE8
:100450006E96E2E10C941C0F87E0E0E2F1E0A5E487
:10046000B2E001900D928A95E1F73F9A87E0E7E2CA
:10047000F1E0AEE3B2E001900D928A95E1F7559A72
:1004800087E0EEE2F1E0A5E3B2E001900D928A95FB
:10049000E1F7209A0895FC01A281B38134812C9167
:1004A00081E090E0032E01C0880F0A94EAF7672BE1
:1004B00019F4282B2C9303C0809582238C932FEF63
:1004C00083EC99E0215080409040E1F700C00000AB
:1004D000A281B3812C9181E090E0048002C0880F5A
:1004E000991F0A94E2F728272C932FEF83EC99E0C9
:1004F000215080409040E1F700C00000089560E086
:1005000070E085E492E0C7DF61E070E085E392E0AF
:10051000C2DF61E070E08EE392E0BDDF60E070E09A
:1005200085E492E0B8DF61E070E085E392E0B3DF5C
:1005300061E070E08EE392E0AECFA4E0B0E0E3EAE9
:10054000F2E00C94100FFC012081223501F17CF4C3
:10055000243409F495C024F4233409F448C0C5C0F8
:10056000273409F4ADC0203509F46AC0BEC027366F
:1005700009F4A6C034F42336D1F1243609F480C03E
:10058000B4C0203709F45CC0223709F0AEC02AE1BC
:1005900032E03F932F939E012C5F3F4F3F932F9369
:1005A0002FE431E03F932F939F938F930E94EE0FA0
:1005B000809121028F93809120028F9380911F025E
:1005C0008F9380911E028F9380911D028F93809153
:1005D0001C028F9380911B028F9380911A028F933C
:1005E00085E591E09F938F930E94AB0F23C020E09D
:1005F00031E03F932F939E012D5F3F4F3F932F9309
:100600002FE431E03F932F939F938F930E94EE0F3F
:10061000809103018F93809102018F93809101015A
:100620008F93809100018F9381E791E09F938F9347
:100630000E94AB0F0FB6F894DEBF0FBECDBF59C0FE
:1006400023E532E03F932F939E012E5F3F4F3F9370
:100650002F932FE431E03F932F939F938F930E942A
:10066000EE0F8091530290915402A0915502B091E7
:100670005602BF93AF939F938F938DE891E0D6CFAF
:100680002FE432E03F932F939E012F5F3F4F3F9324
:100690002F932FE431E03F932F939F938F930E94EA
:1006A000EE0F80914F0290915002A0915102B091B3
:1006B0005202BF93AF939F938F9380EA91E0B6CF9E
:1006C00084EB91E09F938F930E94AB0F81E090E0C9
:1006D000A0E0B0E08093060290930702A093080286
:1006E000B09309020F900F9004C08FEB91E00E942D
:1006F000C10FCDD32496E2E00C942C0FA1E1B0E021
:10070000E4E8F3E00C940B0FD82EC1D300E010E026
:1007100084EFE82E81E0F82E88E0D81209C002505C
:100720001109FF92EF920E94AB0F0F900F9022C021
:100730008AE0D81203C0015011091CC08DE0D81600
:10074000F1F08D2D992787FD90950E94BC0F9FD3C6
:10075000E1E0F0E0EC0FFD1FE00FF11FD08297D336
:1007600080916B0290916C020E946D0FD82E8FEFDA
:10077000D816A9F30F5F1F4F003111056CF28DEBF6
:1007800091E00E94C10F83D30031110541F488EF3D
:1007900091E00E94C10F8DE0888B79D30DC0E1E01C
:1007A000F0E0EC0FFD1FE00FF11F1082898188231C
:1007B00019F0CE010196C1DE6196E7E00C94270F97
:1007C000409100015091010160E074E083E090E00D
:1007D00091D24AE050E060E074E080E090E08AC2AC
:1007E00010923D0210923C02109253021092540259
:1007F000109255021092560210924F02109250021F
:100800001092510210925202109222021092120281
:1008100010921302109214021092150210921602F6
:1008200010921702109218021092190210920A02E6
:1008300010920B0210920C0210920D0210920E02F6
:1008400010920F021092100210921102089504DE0D
:1008500022D389D154DEFAD0F0D0B2DFF894789464
:1008600008951F920F920FB60F9211242F933F936A
:100870004F935F936F937F938F939F93AF93BF93A8
:10088000CF93EF93FF9380910401811135C0809144
:100890004D0290914E0280329E4454F480914D025C
:1008A00090914E020A9690934E0280934D0224C07E
:1008B00080914D0290914E0280329E44E9F4E09185
:1008C0004702F0914802208181E090E000904902C7
:1008D00002C0880F991F0A94E2F728272083C1E0FD
:1008E000C093040180912202811106C08FEB91E038
:1008F0000E94C10FC0932202FF91EF91CF91BF914F
:10090000AF919F918F917F916F915F914F913F91A7
:100910002F910F900FBE0F901F9018951F920F925E
:100920000FB60F921124CF92DF92EF92FF920F93A6
:100930001F932F933F934F935F936F937F938F9367
:100940009F93AF93BF93CF93DF93EF93FF93E09188
:100950000A02F0910B02A0910C02B0910D02C0911D
:100960000E02D0910F02D0901002C0901102E093BD
:100970001202F0931302A0931402B0931502C093D5
:100980001602D0931702D0921802C09219028091D9
:100990000401811139C0E0904F02F09050020091A3
:1009A0005102109152022091530230915402409111
:1009B00055025091560260911A0270911B0280916B
:1009C0001C0290911D02CF92DF92DF93CF93BF93D1
:1009D000AF93FF93EF93D8DB20930A0230930B027F
:1009E00040930C0250930D0260930E0270930F021D
:1009F00080931002909311028DB79EB708960FB6A0
:100A0000F8949EBF0FBE8DBFFF91EF91DF91CF9104
:100A1000BF91AF919F918F917F916F915F914F9116
:100A20003F912F911F910F91FF90EF90DF90CF900A
:100A30000F900FBE0F901F90189520E030E048E90E
:100A400058E060E074E081E090E09BC12498259834
:100A5000EBE6F0E08081806180838081806280832A
:100A6000E8E6F0E0808181608083519A599A089588
:100A70001F920F920FB60F9211242F933F934F9313
:100A80005F936F937F938F939F93AF93BF93EF93F6
:100A9000FF9343B144FB222720F930E045FB882730
:100AA00080F990E04091590250915A02E82F6091EC
:100AB0005C0270915D02241751F040913C0250910C
:100AC0003D024F5F5F4F50933D0240933C02E6175B
:100AD00051F040913C0250913D02415051095093D8
:100AE0003D0240933C0240915C0250915D0224170C
:100AF000350751F04091590250915A0284179507D9
:100B000019F041E04093570230935D0220935C025C
:100B100090935A02809359026091230270912402AB
:100B2000809125029091260224E130E040E050E0DF
:100B30000E94C80D672B682B692B21F48BB190E2C2
:100B400089278BB9FF91EF91BF91AF919F918F91C1
:100B50007F916F915F914F913F912F910F900FBEB9
:100B60000F901F90189587E690E09093CD008093AA
:100B7000CC00EAECF0E0808186608083E9ECF0E074
:100B800080818860808380818061808380818068AB
:100B9000808308959091C80095FFFCCF8093CE008C
:100BA0000895CF93DF93EC018991882311F0F2DF50
:100BB000FBCF8DE0EFDFDF91CF91089514BC15BC22
:100BC00094B5926094BD95B5982B95BD67BDEEE642
:100BD000F0E080818260808381E090E0089510924F
:100BE0008000E1E8F0E0108290819860908390812D
:100BF000982B90837093890060938800EFE6F0E073
:100C000080818260808381E090E00895A0E8B0E078
:100C10001C92E1E8F0E010829C9192609C9390819C
:100C2000986090839081906190839081982B9083BD
:100C300070938B0060938A008C9180628C933093C8
:100C400087002093860081E090E008951092900044
:100C5000E1E9F0E010829081986090839081982B78
:100C600090837093990060939800E1E7F0E08081B1
:100C70008260808381E090E00895A0E9B0E01C925A
:100C8000E1E9F0E010829C9192609C9390819860E1
:100C900090839081906190839081982B9083709342
:100CA0009900609398008C9180688C9330939700A2
:100CB0002093960081E090E008958034910591F0B2
:100CC00034F48130910561F0089791F00FC08115DF
:100CD00021E0920749F08115944041F485E00895A0
:100CE00081E0089583E0089584E0089580E0089508
:100CF00082E00895A0E0B0E0E0E8F6E00C940A0F8E
:100D0000EC018B017A018230910518F08330910556
:100D100089F560E87EE380E090E09801442737FDA4
:100D20004095542F35D7D7017BD76B017C01209795
:100D300041F48FEFC816D104E104F10441F038F01A
:100D400019C0C114D10481E0E806F10498F4C80187
:100D5000B4DFC130D10541F0C330D10541F0CD2B16
:100D600049F46C2D2BDF08C0B60139DF05C0B60190
:100D70006DDF02C08FEF9FEFCDB7DEB7E8E00C94D8
:100D8000260FA0E0B0E0E7ECF6E00C94060FEC01D3
:100D90008B017A0159018230910520F08330910551
:100DA00009F03AC060E87EE380E090E098014427D3
:100DB00037FD4095542FECD6D70132D76B017C011B
:100DC000209741F48FEFC816D104E104F10441F0FB
:100DD00038F022C0C114D10481E0E806F104E0F447
:100DE000D501A70196011CD724E630E040E050E091
:100DF000CFD649015A01C80160DFC130D10539F0B1
:100E0000239751F4A7019601B40137DF07C0A7016A
:100E10009601B401FBDE02C08FEF9FEFCDB7DEB7C6
:100E2000ECE00C94220F1092D800789410DD2FD0B3
:100E300080910401813011F4269829D080916B02B1
:100E400090916C020E946D0F80934C028F3F09F0CD
:100E500055DC8091060290910702A0910802B091A2
:100E600009020197A105B10519F7AADC789410923F
:100E700006021092070210920802109209021092C4
:100E80004E0210924D0210920401269AD1CF85E0B5
:100E900091E093D3EAC284B7877F84BF88E10FB61D
:100EA000F89480936000109260000FBE90E080E89C
:100EB0000FB6F89480936100909361000FBE57D0F5
:100EC00067E272E085E091E0CCD3EBE6F2E087E206
:100ED00092E0938382839183808308950895089597
:100EE00085E091E0DCC285E091E0CFC308950F93E7
:100EF0001F93CF93DF934BD052D0C8EDD0E08881C1
:100F00008F77888388818068888388818F7D8883B4
:100F100019BC1092620210925E021092600210924E
:100F20005F0200EE10E0F80180818B7F8083888172
:100F30008160888342E060E080E04DD5E1EEF0E042
:100F400080818E7F8083E2EEF0E08081816080830B
:100F5000808188608083F80180818E7F8083888192
:100F600080618883DF91CF911F910F910895E8ED03
:100F7000F0E080818F7E8083E7EDF0E0808181600A
:100F8000808384E082BF81E080936102B0CFE8ED8E
:100F9000F0E080818E7F80831092E20008951092AD
:100FA000DA001092E10008951F920F920FB60F928F
:100FB00011242F933F934F935F936F937F938F935E
:100FC0009F93AF93BF93EF93FF938091E10082FFD4
:100FD0000AC08091E20082FF06C08091E1008B7F11
:100FE0008093E10041D28091DA0080FF1DC08091A2
:100FF000D80080FF19C08091DA008E7F8093DA00DC
:101000008091D90080FF0CC080E189BD82E189BD5B
:1010100009B400FEFDCF81E0809362025FDF04C06F
:1010200019BC109262025BDF8091E10080FF18C062
:101030008091E20080FF14C08091E2008E7F809357
:10104000E2008091E20080618093E2008091D8000C
:1010500080628093D80019BC85E08093620204D23C
:101060008091E10084FF2FC08091E20084FF2BC0BB
:1010700080E189BD82E189BD09B400FEFDCF809188
:10108000D8008F7D8093D8008091E1008F7E80937F
:10109000E1008091E2008F7E8093E2008091E20087
:1010A00081608093E20080915E02882311F084E0E9
:1010B00007C08091E30087FD02C081E001C083E0AA
:1010C00080936202D1D18091E10083FF27C080919B
:1010D000E20083FF23C08091E100877F8093E100DD
:1010E00082E08093620210925E028091E1008E7F26
:1010F0008093E1008091E2008E7F8093E2008091F6
:10110000E20080618093E20042E060E080E063D42E
:101110008091F00088608093F000A6D1FF91EF915C
:10112000BF91AF919F918F917F916F915F914F91FF
:101130003F912F910F900FBE0F901F9018951F9207
:101140000F920FB60F9211242F933F934F935F93FB
:101150006F937F938F939F93AF93BF93CF93DF93BF
:10116000EF93FF93C091E900CF708091EC00D82FEE
:10117000D17080FDD0E81092E9008091F000877F67
:101180008093F00078941ED01092E9008091F000D6
:1011900088608093F000CD2BCF70C093E900FF9161
:1011A000EF91DF91CF91BF91AF919F918F917F91FF
:1011B0006F915F914F913F912F910F900FBE0F90C4
:1011C0001F9018951F93CF93DF93CDB7DEB7AA97E3
:1011D0000FB6F894DEBF0FBECDBFE3E6F2E088E0C5
:1011E0008E0F9091F10091938E13FBCF7CDE809156
:1011F000E80083FF21C180916302909164029530E1
:1012000009F478C030F4913081F168F0933069F1DD
:1012100013C1983009F4E2C0993009F4F1C0963056
:1012200009F00AC189C0803881F0823809F004C110
:10123000809167028F708093E9008091EB0085FBBD
:10124000882780F91092E90006C080915F02909192
:101250006002911182609091E800977F9093E8007E
:101260008093F1001092F100C4C0282F2D7F09F067
:10127000E3C0882319F0823061F0DEC080916502FE
:10128000813009F0D9C0933009F080E0809360028A
:101290002BC080916502811127C0809167028F70F9
:1012A00009F4CAC08093E9002091EB0020FF1CC024
:1012B000933021F48091EB00806214C09091EB0098
:1012C00090619093EB0021E030E0A90102C0440F4F
:1012D000551F8A95E2F74093EA001092EA00809148
:1012E000EB0088608093EB001092E9008091E800A9
:1012F000877F82C08111A0C0109165021F77809105
:10130000E3008078812B8093E3008091E800877F61
:101310008093E800DDD38091E80080FFFCCF8091CE
:10132000E30080688093E300111102C082E001C0F5
:1013300083E08093620280C08058823008F07CC0D5
:1013400080916502909166028C3D53E0950771F59E
:1013500083E08A838AE289834FB7F894DE0113968B
:1013600020E03EE051E2E32FF0E050935700E4919B
:1013700020FF03C0E295EF703F5FEF708E2F90E08B
:10138000EA3010F0C79601C0C0968D939D932F5FF1
:10139000243149F74FBF8091E800877F8093E800B0
:1013A0006AE270E0CE01019652D212C0AE014F5FE8
:1013B0005F4F6091670219D2BC01892B09F43CC0D0
:1013C0009091E800977F9093E80089819A81A2D25A
:1013D0008091E8008B778093E8002EC0803861F51B
:1013E0008091E800877F8093E80080915E0280937F
:1013F000F1008091E8008E778093E80069D31CC0EB
:1014000081111AC0909165029230B0F48091E80089
:10141000877F8093E80090935E025AD380915E02AA
:10142000811106C08091E30087FD02C081E001C008
:1014300084E08093620254DD8091E80083FF0AC05B
:101440008091E800877F8093E8008091EB008062C4
:101450008093EB00AA960FB6F894DEBF0FBECDBF07
:10146000DF91CF911F9108950895CF9380916202EB
:10147000882399F0C091E900CF709091EC00892FFA
:10148000817090FD80E8C82B1092E9008091E800FF
:1014900083FD98DECF70C093E900CF910895CF937C
:1014A000DF93EC01FC0170968BE0DF011D928A95C1
:1014B000E9F782E08C83898783E08E8761E0CE0143
:1014C0000196BED2882361F061E0CE010696B8D2C3
:1014D000882331F061E0CE010B96DF91CF91B0C24D
:1014E00080E0DF91CF9108950F931F93CF932091C8
:1014F00062022430F9F4FC010489158926893789B0
:10150000012B022B032BB1F0C62F81818F708093AA
:10151000E9008091E80085FF04C0C093F10080E0FD
:101520000AC08091E8008E778093E800F0D288238B
:10153000A1F301C082E0CF911F910F910895FB01AB
:10154000682F84859585D0DF21E030E0811102C0CD
:1015500020E030E088279927821B930B0895209183
:101560006202243041F5FC014489558966897789F6
:10157000452B462B472BF9F081818F708093E90032
:101580002091F3008091F20090E0922B892B89F05A
:101590009091E8008091E8008E778093E80095FDB7
:1015A00008C0B5D2811108C08091E8008E77809381
:1015B000E80080E0089582E00895209162022430DE
:1015C00089F4FC014489558966897789452B462B26
:1015D000472B41F021812F702093E9002091E800F2
:1015E00020FDBDCF089520916202243019F08FEFC5
:1015F0009FEF0895FC014489558966897789452BB9
:10160000462B472BA1F386818F708093E900809150
:10161000E80082FFECCF2091F3008091F20090E08F
:10162000922B892B21F02091F10030E002C02FEFA6
:101630003FEF4091F3008091F20090E0942B892BD2
:1016400029F48091E8008B778093E800C901089520
:10165000FC0184859585C7DF97FF02C08EEF9FEF61
:101660000895FB012EE0DB011D922A95E9F723E0A6
:1016700023832FE93AE03187208728E23BE0338754
:1016800022879587848708950895CF93DF93EC018F
:101690008091E80083FFA6C0888190E020916702D6
:1016A000309168022817390709F09CC080916402C4
:1016B000813261F020F4803209F43EC093C082325E
:1016C00009F46CC0833209F47DC08CC08091630240
:1016D000813A09F087C08091E800877F8093E80015
:1016E0008091E80080FFFCCF8C899D89AE89BF89FD
:1016F0008093F100492F5A2F6B2F77274093F100E9
:10170000AD01662777274093F1008B2F9927AA27F1
:10171000BB278093F100888D8093F100898D8093A1
:10172000F1008A8D8093F1008091E8008E7780939C
:10173000E800DF91CF91CCC180916302813209F042
:1017400051C08091E800877F8093E8008091E80095
:1017500082FD05C0809162028111F8CF43C03091B3
:10176000F1002091F1009091F1008091F1003C8B0B
:101770002D8B9E8B8F8B8091F100888F8091F10053
:10178000898F8091F1008A8F8091E8008B77809318
:10179000E8009ED1CE01DF91CF9176CF8091630298
:1017A000813201F58091E800877F8093E80090D135
:1017B0008091650290916602998B888BCE01DF91B2
:1017C000CF9194CB80916302813261F48091E800E3
:1017D000877F8093E8007CD160916502CE01DF9124
:1017E000CF9152CFDF91CF910895292F3327223007
:1017F000310559F02330310569F021303105F9F414
:1018000082E190E020E331E01EC08EE390E022EF21
:1018100030E019C099278130910541F0823091055F
:1018200041F0892B61F4EEEEF0E005C0E4EDF0E06C
:1018300002C0ECEAF0E0849190E09F0104C080E0F7
:1018400090E020E030E0FA01318320830895209178
:10185000690230916A022617370748F06115710551
:1018600039F42091E8002E772093E80001C0B901F7
:1018700040E061157105A9F120916202222309F46B
:1018800043C0253009F442C02091E80023FD40C048
:101890002091E80022FD32C02091E80020FFE9CF2E
:1018A0004091F3002091F20030E0342BFC01CF0195
:1018B0006115710559F02830310540F4819180930C
:1018C000F100615071092F5F3F4FF1CF41E02830A7
:1018D000310509F040E02091E8002E772093E800E0
:1018E000C8CF4111C9CF0AC080916202882361F03C
:1018F000853061F08091E80083FD0AC08091E800A6
:1019000082FFF2CF80E0089582E0089583E0089599
:1019100081E008952091690230916A022617370705
:1019200048F06115710539F42091E8002E77209375
:10193000E80001C0B901FC0120E06115710591F1D9
:1019400080916202882309F440C0853009F43FC0C9
:101950008091E80083FD3DC08091E80082FD2FC0AA
:101960008091E80080FFE9CF2091F3008091F200A0
:1019700090E0922B6115710559F08830910540F483
:1019800024912093F1003196615071090196F2CFB4
:1019900021E0089709F020E08091E8008E7780939D
:1019A000E800CBCF2111CCCF0AC0809162028823FE
:1019B00061F0853061F08091E80083FD0AC080917C
:1019C000E80082FFF2CF80E0089582E0089583E08E
:1019D000089581E00895982F973058F59093E90085
:1019E000981739F07091EC002091ED005091F000C3
:1019F00003C0242F762F50E021FF19C03091EB0057
:101A00003E7F3093EB003091ED003D7F3093ED0051
:101A10003091EB0031603093EB007093EC00209339
:101A2000ED005093F0002091EE0027FF07C09F5F6C
:101A3000D3CF8F708093E90081E0089580E008950E
:101A4000EF92FF920F931F93CF93DF93E62EEC015B
:101A50008C010C5F1F4FF12CFE1491F1588155231E
:101A600051F1F801208169817A8131979081852F28
:101A70008F70873010F080E024C0223010F442E0F4
:101A800001C046E0E8E0F0E020E0E617F70720F4C8
:101A90002F5FEE0FFF1FF9CF2295207F422BF0E43E
:101AA0009F9F90011124551F5527551F652F622BAD
:101AB00092DF882301F3F39425960B5F1F4FCCCF61
:101AC00081E0DF91CF911F910F91FF90EF900895EA
:101AD0008091630287FF11C08091E80082FD05C0FC
:101AE000809162028111F8CF11C08091E8008B775C
:101AF0000BC080916202882349F08091E80080FF4A
:101B0000F8CF8091E8008E778093E80008952091C7
:101B1000E4003091E50095E64091EC00842F81705F
:101B200040FF22C08091E80080FD1CC080916202CD
:101B3000882391F0853091F08091EB0085FD10C0F5
:101B40004091E4005091E5004217530729F39A01B0
:101B5000915011F784E0089582E0089583E008959C
:101B600081E0089580E008954091E80042FFDECFD3
:101B70000895DB018F939F9349D0BF91AF91A29FAE
:101B8000800D911DA39F900DB29F900D112408957B
:101B9000A1E21A2EAA1BBB1BFD010DC0AA1FBB1F71
:101BA000EE1FFF1FA217B307E407F50720F0A21BE3
:101BB000B30BE40BF50B661F771F881F991F1A9450
:101BC00069F760957095809590959B01AC01BD017A
:101BD000CF010895052E97FB16F400940FD057FD02
:101BE00005D0D6DF07FC02D046F408C050954095DA
:101BF000309521953F4F4F4F5F4F089590958095B9
:101C0000709561957F4F8F4F9F4F089557D1A59F36
:101C1000900DB49F900DA49F800D911D11240895E7
:101C2000B7FFF4CFF3DF821B930B0895DF93CF93BD
:101C30001F930F939A9DF02D219FF00D8B9DF00D1A
:101C40008A9DE02DF10D039FF00D029FE00DF11D27
:101C50004E9DE00DF11D5E9DF00D4F9DF00D7F93AB
:101C60006F93BF92AF925F934F93D50127D18B01B2
:101C7000AC01D70123D1EB01E80FF91FD6011FD02A
:101C80002F913F91D6011AD1C60FD71FE81FF91F18
:101C9000AF91BF9114D02F913F9110D1C60FD71F94
:101CA000E81FF91FD6010AD1E60FF71F9801BE0100
:101CB000CF0111240F911F91CF91DF910895FED094
:101CC000460F571FC81FD91F08F43196089568940E
:101CD00001C0E894F92FF12B0AF027C0A0E0B0E092
:101CE000E3E7FEE093C0092E05941AF479D011239E
:101CF00092F4F0E80F26FFEFE094F0940095109531
:101D0000B094C094D094A194BF0ACF0ADF0AEF0A1E
:101D1000FF0A0F0B1F0B13D007FC62D0CDB7DEB745
:101D2000ECE090C0689401C0E8948F929F92CF93AA
:101D3000DF9305D0DF91CF919F908F9008958824F5
:101D40009924F401E401B0E49F93AA279A158B0427
:101D50009C04ED05FE05CF05D007A10798F4AD2F33
:101D6000DC2FCF2FFE2FE92D982C892E982F872F2F
:101D7000762F652F542F432F322F2227B85031F75B
:101D8000BF9127C01B2EBF91BB27220F331F441FBB
:101D9000551F661F771F881F991F881C991CEE1FEF
:101DA000FF1FCC1FDD1FAA1FBB1F8A149B04EC055D
:101DB000FD05CE05DF05A007B10748F08A189B088E
:101DC000EC09FD09CE09DF09A00BB10B21601A94C3
:101DD000E1F62EF49401AF01BE01CD01000C08958F
:101DE000609570958095909530954095509521958A
:101DF0003F4F4F4F5F4F6F4F7F4F8F4F9F4F089514
:101E00002F923F924F925F926F927F928F929F920A
:101E1000AF92BF92CF92DF92EF92FF920F931F93F8
:101E2000CF93DF93CDB7DEB7CA1BDB0B0FB6F894A9
:101E3000DEBF0FBECDBF09942A88398848885F84E9
:101E40006E847D848C849B84AA84B984C884DF805A
:101E5000EE80FD800C811B81AA81B981CE0FD11D3E
:101E60000FB6F894DEBF0FBECDBFED0108952A0D69
:101E70003B1D4C1D5D1D6E1D7F1D801F911F089514
:101E80002A193B094C095D096E097F09800B910BEA
:101E900008952A153B054C055D056E057F058007F5
:101EA000910708950024A7FD00942A1730054005E6
:101EB000500560057005800590050895A29FB0014A
:101EC000B39FC001A39F700D811D1124911DB29F6E
:101ED000700D811D1124911D0895CF93DF93EC01A6
:101EE0002B8120FF33C026FF0AC02F7B2B838E81DE
:101EF0009F8101969F838E838A8190E029C022FF73
:101F00000FC0E881F9818081992787FD909500971E
:101F100019F420622B831AC03196F983E8830EC02E
:101F2000EA85FB85099597FF09C02B81019611F47D
:101F300080E101C080E2822B8B8308C02E813F812B
:101F40002F5F3F4F3F832E83992702C08FEF9FEF74
:101F5000DF91CF910895A0E0B0E0E0EBFFE060CF2B
:101F6000FE01359661917191AF0180916D02909162
:101F70006E024AD0E2E070CF60916D0270916E0205
:101F8000C7C40F931F93CF93DF93E0916D02F0913D
:101F90006E02238121FF1BC0EC0100E010E089915B
:101FA00060916D0270916E02DB011896ED91FC91CB
:101FB0001997882331F00995892B89F30FEF1FEFCB
:101FC000EECF8AE00995892B11F4C80102C08FEF8A
:101FD0009FEFDF91CF911F910F910895AEE0B0E098
:101FE000E3EFFFE01DCF85E08C838B899C899A838A
:101FF0008983AE01495E5F4F6D897E89CE0101966E
:1020000035D32E96E2E028CFACE0B0E0E9E0F0E195
:10201000F7CE7C016B018A01FC0117821682838155
:1020200081FFB0C1CE0101964C01F7019381F60109
:1020300093FD859193FF81916F01882309F49EC1DF
:10204000853239F493FD859193FF81916F0185323B
:1020500021F4B70190E05CD4E8CF512C312C20E082
:102060002032A0F48B3269F030F4803259F08332A0
:1020700069F420612CC08D3239F0803339F421604D
:1020800026C02260246023C0286021C027FD27C00D
:1020900030ED380F3A3078F426FF06C0FAE05F9E44
:1020A000300D1124532E13C08AE0389E300D1124B8
:1020B000332E20620CC08E3221F426FD5FC12064D5
:1020C00006C08C3611F4206802C0883641F4F6014F
:1020D00093FD859193FF81916F018111C1CF982F5D
:1020E0009F7D9554933028F40C5F1F4FFFE3F983D5
:1020F0000DC0833631F0833771F0833509F057C056
:1021000021C0F801808189830E5F1F4F44244394CE
:10211000512C540114C03801F2E06F0E711CF8010B
:10212000A080B18026FF03C0652D70E002C06FEF74
:102130007FEFC5012C87E1D32C0183012C852F77FC
:10214000222E16C03801F2E06F0E711CF801A0803B
:10215000B18026FF03C0652D70E002C06FEF7FEFF6
:10216000C5012C87BFD32C012C852068222E83012A
:1021700023FC19C0832D90E048165906A0F4B7013E
:1021800080E290E0C5D33A94F5CFF50127FC859124
:1021900027FE81915F01B70190E0BAD331103A94E4
:1021A000F1E04F1A51084114510479F7DEC084362A
:1021B00011F0893631F5F80127FF07C06081718180
:1021C000828193810C5F1F4F08C0608171818827D5
:1021D00077FD8095982F0E5F1F4F2F76B22E97FFB9
:1021E00009C090958095709561957F4F8F4F9F4F57
:1021F0002068B22E2AE030E0A401D5D3A82EA8187A
:1022000043C0853729F42F7EB22E2AE030E025C066
:10221000F22FF97FBF2E8F36C1F018F4883579F090
:10222000ADC0803719F0883721F0A8C02F2F20616A
:10223000B22EB4FE0DC08B2D8460B82E09C024FFD1
:102240000AC09F2F9660B92E06C028E030E005C076
:1022500020E130E002C020E132E0F801B7FE07C023
:1022600060817181828193810C5F1F4F06C0608104
:10227000718180E090E00E5F1F4FA40194D3A82EDF
:10228000A818FB2DFF77BF2EB6FE0BC02B2D2E7F7F
:10229000A51450F4B4FE0AC0B2FC08C02B2D2E7E4B
:1022A00005C07A2C2B2D03C07A2C01C0752C24FF7D
:1022B0000DC0FE01EA0DF11D8081803311F4297EED
:1022C00009C022FF06C07394739404C0822F8678DD
:1022D00009F0739423FD12C020FF06C05A2C73141A
:1022E00018F4530C5718732C731460F4B70180E280
:1022F00090E02C870DD373942C85F6CF731410F4D3
:10230000371801C0312C24FF11C0B70180E390E0E1
:102310002C87FED22C8522FF16C021FF03C088E542
:1023200090E002C088E790E0B7010CC0822F867869
:1023300051F021FD02C080E201C08BE227FD8DE259
:10234000B70190E0E5D2A51430F4B70180E390E046
:10235000DFD25A94F8CFAA94F401EA0DF11D8081DE
:10236000B70190E0D5D2A110F6CF332009F45DCEAD
:10237000B70180E290E0CCD23A94F7CFF7018681A2
:10238000978102C08FEF9FEF2C96E2E155CD20FDA3
:1023900009C0FC0123FD05C022FF02C073836283D4
:1023A00051834083089544FD10C046FD10C0DB01F9
:1023B000FC01AA0FBB1FEE1FFF1F1094D1F76A0F7D
:1023C0007B1F8E1F9F1F31E003C033E001C034E04C
:1023D000660F771F881F991F3150D1F7620F711D4B
:1023E000811D911D08950F931F93CF93DF938C014F
:1023F000C80173DDEC0197FD06C061D2892BC1F7DE
:10240000B801CE01B7D2CE01DF91CF911F910F91CC
:1024100008958F929F92AF92CF92DF92EF92FF92A8
:102420000F931F93CF93DF93EC01A62E4A01022F47
:1024300054DDAC0155274B32510521F04D32510589
:1024400049F40068AA9411F480E060C0CE0145DD33
:1024500097FDFACF102F1D7F302F3073F1F48033AA
:10246000E1F4FF24FA94FA0C09F43DC0CE0135DD05
:1024700097FD39C0382F3F7D383549F41264AA944E
:10248000AA9489F1CE0129DD97FF07C02CC006FF71
:1024900002C0126001C01261AF2CC12CD12C760198
:1024A00020ED280F283078F014FF03C0BE0162D25F
:1024B00017C02A3040F016FFF9CF2F7D3FEE320FC4
:1024C0003630A0F72750412FC701B6016CDF6B01F2
:1024D0007C011260AA9451F0CE01FFDC97FFE0CF9F
:1024E00011FD04C0B1CFC12CD12C760117FF08C05B
:1024F000F094E094D094C094C11CD11CE11CF11C58
:10250000212FB701A601C40142DF81E0DF91CF9105
:102510001F910F91FF90EF90DF90CF90AF909F9021
:102520008F900895A1E2B0E0E7E9F2E16ECC5C01A2
:102530007A018E010F5F1F4F680180E2D8011D9262
:102540008A95E9F7F501738040E050E0812CB0E016
:10255000912C81E090E0F90173FCA59173FEA191AB
:102560008F017A2F9F01A11103C080E090E07BC012
:10257000AE3519F44115510559F1E92DF0E0E41794
:10258000F5073CF4AD3569F1AD3219F4BB2319F10F
:1025900003C0B11101C08A2EE72FE695E695E695B6
:1025A00086010E0F111DF801A72FA7708C0102C024
:1025B000000F111FAA95E2F7D801B081BA2BB083A2
:1025C000781559F0781510F47F5FE6CF7150E4CF9D
:1025D0009924939403C0B1E001C0B0E04F5F5F4F16
:1025E000BACFBB2319F08E8180628E83911003C015
:1025F0009924939415C0F601CE01819620812095EF
:102600002193E817F907D1F7F3CFE114F10429F08A
:10261000D7018C93F70131967F016150F1F0912C35
:10262000C50169A35ADC69A197FD15C0282F26951D
:1026300026952695F601E20FF11D208130E0AC01D0
:102640004770552702C0359527954A95E2F720FD3A
:10265000DCCFB5018FD1911088CFE114F10411F0D6
:10266000D7011C92C801A196EDE0EBCB4F925F928F
:102670007F928F929F92AF92BF92CF92DF92EF9212
:10268000FF920F931F93CF93DF931F92CDB7DEB7C7
:102690008C012B017A01FC0117821682A12CF80112
:1026A000D380F201D3FC8591D3FE8191382F2F0185
:1026B000882309F4EEC090E0398301D13981892B58
:1026C00019F0C80190DEEBCF353241F4F201D3FCB2
:1026D0003591D3FE31912F01353259F4C801398338
:1026E000FCDB398197FDD3C03817C9F2B80142D15C
:1026F000D0C03A3241F4D3FC3591D3FE31912F0151
:10270000BB24B39401C0B12C712C20ED230F2A30CF
:1027100088F4FB2DF260BF2E672D70E080E090E022
:1027200040E241DE762EF201D3FC3591D3FE3191A9
:102730002F01EBCFB1FE03C0711003C0AAC07724F4
:102740007A94383619F03C3661F014C0F201D3FCAB
:102750003591D3FE31912F01383661F4FB2DF860AD
:10276000BF2E8B2D8460B82EF201D3FC3591D3FEA1
:1027700031912F01332309F48CC0632F70E082E480
:1027800091E03983A4D03981892B09F482C0B0FC4F
:1027900007C0F701C080D180C70102967C0102C04A
:1027A000C12CD12C3E3649F4F8014681578160E0B6
:1027B00070E02B2DC601EBDD72CF333699F4B1FCFE
:1027C00002C077247394C80188DB97FD60C0C114F0
:1027D000D10429F0F6018083C60101966C017A9438
:1027E00091F751C03B3551F49201A601672DC80104
:1027F00099DE2C01009709F046C040C0C80139831A
:10280000F2DD398197FD43C03F3651F128F434366B
:1028100019F1393661F128C0333769F03537E1F005
:1028200023C0C114D10429F0F6018082C6010196AB
:102830006C017A9459F0C80150DB4C0197FD06C039
:102840003ED0892B71F3B801C40194D0C114D104D6
:10285000D1F0F601108217C0FB2DF062BF2E07C029
:102860008B2D8061B82E03C09B2D9064B92E2B2D2B
:10287000A601672DC801CDDD811105C0F801838156
:10288000807329F406C0B0FC0ACFA39408CFAA2015
:1028900019F08A2D90E002C08FEF9FEF0F90DF912B
:1028A000CF911F910F91FF90EF90DF90CF90BF904D
:1028B000AF909F908F907F905F904F90089591116F
:1028C000D0C0803219F089508550D0F70895FC01AE
:1028D0000590061621F00020D9F7C0010895319720
:1028E000CF010895FC010590615070400110D8F7A8
:1028F000809590958E0F9F1F0895FC016150704048
:1029000001900110D8F7809590958E0F9F1F089524
:102910000F931F93CF93DF93182F092FEB018B8118
:1029200081FD03C08FEF9FEF20C082FF10C04E815A
:102930005F812C813D81421753077CF4E881F98146
:102940009F012F5F3F4F39832883108306C0E8859E
:10295000F985812F0995892B29F72E813F812F5FDA
:102960003F4F3F832E83812F902FDF91CF911F9177
:102970000F910895FB01238120FF12C026FD10C096
:102980008F3F3FEF930761F082832F7D2064238385
:10299000268137812150310937832683992708956D
:1029A0008FEF9FEF0895FA01AA27283051F12031C7
:1029B00081F1E8946F936E7F6E5F7F4F8F4F9F4FD3
:1029C000AF4FB1E03ED0B4E03CD0670F781F891F15
:1029D0009A1FA11D680F791F8A1F911DA11D6A0FE3
:1029E000711D811D911DA11D20D009F468943F9196
:1029F0002AE0269F11243019305D3193DEF6CF0195
:102A00000895462F4770405D4193B3E00FD0C9F75A
:102A1000F6CF462F4F70405D4A3318F0495D31FDC7
:102A20004052419302D0A9F7EACFB4E0A69597951A
:102A3000879577956795BA95C9F7009761057105F0
:102A400008959B01AC010A2E06945795479537953A
:102A50002795BA95C9F7620F731F841F951FA01D94
:0C2A60000895992788270895F894FFCF67
:102A6C00640000000100831000000104100000014C
:102A7C0082080000010000000000000000000000BF
:102A8C00270028000726002A002B00052900240017
:102A9C00250000230050723A2025642C2000506D34
:102AAC003A2025642C2000543A2025640A0D002578
:102ABC006320256400536574207265666572656ECB
:102ACC0063652076616C75652061732025640A0D41
:102ADC000053657420504420636F6E74726F6C20C9
:102AEC00706572696F643A2025640A0D0053657431
:102AFC00204B702076616C75653A2025640A0D00B8
:102B0C00536574204B64202076616C75653A2025E2
:102B1C00640A0D0053544152542121210A0D0072B4
:102B2C00286566656E63652076616C756529206322
:102B3C00286F6E74726F6C657220706572696F6449
:102B4C00292070284B50292064284B4429206728C1
:102B5C006F290D00082008004275666665722066B4
:062B6C00756C6C0D000009
:00000001FF
