:1000000055C000006EC000006CC000006AC0000057
:1000100068C0000066C0000064C0000062C000004C
:1000200060C00000DAC000005CC000005AC00000E0
:1000300058C0000056C0000054C0000052C000006C
:1000400050C00000F2C100004CC000004AC00000D7
:1000500048C0000046C0000044C0000042C000008C
:1000600040C000003EC000003CC000003AC000009C
:1000700038C0000036C0000034C0000032C00000AC
:10008000E6C100002EC000002CC000002AC0000005
:1000900028C0000026C0000024C0000022C00000CC
:1000A00020C000001EC000001CC0000011241FBEA4
:1000B000CFEFDAE0DEBFCDBF11E0A0E0B1E0E8E4D1
:1000C000FBE002C005900D92A437B107D9F721E0FB
:1000D000A4E7B1E001C01D92A83AB207E1F7FDD252
:1000E00031C58ECF089587E0E0E5F1E0A5E9B1E004
:1000F00001900D928A95E1F787E0E7E5F1E0ADE741
:10010000B1E001900D928A95E1F782E790E090933B
:100110009F0180939E0190939D0180939C019093F9
:1001200085018093840190937501809374010895F3
:10013000FC01A081B1814C9181E090E09C010480A0
:1001400002C0220F331F0A94E2F7209524232C9338
:10015000A281B3812C91048002C0880F991F0A9458
:10016000E2F7282B2C9380916800816080936800CF
:100170008481833029F480916B00886080936B00C8
:100180008481811105C080916B00816080936B0038
:1001900083B189708093940180E090E00895FC0120
:1001A0008481833061F4672B29F050939F01409341
:1001B0009E01089550939D0140939C0108958111E3
:1001C0000BC0672B29F0509385014093840108955B
:1001D000509375014093740108951F920F920FB6CA
:1001E0000F9211241F932F933F934F935F936F931D
:1001F0007F938F939F93AF93BF93CF93DF93EF93AF
:10020000FF9313B1D12FD9708FE99FE00197F1F7D8
:1002100000C0000083B12D2F30E0897090E02817D6
:10022000390709F5C0919401CD27C3FF0CC013FD18
:1002300005C0E0919C01F0919D0104C0E0919E01F8
:10024000F0919F010995C0FF0CC010FD05C0E09121
:100250007401F091750104C0E0918401F091850171
:100260000995D0939401FF91EF91DF91CF91BF91C8
:10027000AF919F918F917F916F915F914F913F913E
:100280002F911F910F900FBE0F901F90189587E030
:10029000EEE5F1E0ADE8B1E001900D928A95E1F76D
:1002A0003F9A87E0E5E6F1E0A6E8B1E001900D9223
:1002B0008A95E1F7559A87E0ECE6F1E0A6E7B1E030
:1002C00001900D928A95E1F7209A0895FC01A28190
:1002D000B38134812C9181E090E0032E01C0880F1E
:1002E0000A94EAF7672B19F4282B2C9303C0809506
:1002F00082238C932FEF83EC99E021508040904033
:10030000E1F700C00000A281B3812C9181E090E070
:10031000048002C0880F991F0A94E2F728272C93C3
:100320002FEF83EC99E0215080409040E1F700C02E
:100330000000089560E070E08DE891E0C7DF61E0C3
:1003400070E086E791E0C2DF61E070E086E891E06E
:10035000BDDF60E070E08DE891E0B8DF61E070E063
:1003600086E791E0B3DF61E070E086E891E0AECF30
:1003700080911A0190911B01049754F480911A0105
:1003800090911B01019690931B0180931A0108958F
:1003900010921B0110921A010895809118019091FA
:1003A0001901049754F48091180190911901019654
:1003B00090931901809318010895109219011092D9
:1003C00018010895F8942091A0013091A101409165
:1003D000A2015091A3016091A4017091A5018091A7
:1003E000A6019091A701789408950F931F934FDF72
:1003F000A1DF79DE269A3E9A00E010E020E03FE39C
:1004000048EE53E060E071E081E090E0CED00DEC8A
:100410001CEC2CEC3DE341E050E060E071E083E057
:1004200090E0C3D01F910F9108951F920F920FB6C5
:100430000F9211248F939F9385B190E4892785B9FA
:100440009F918F910F900FBE0F901F9018951F9244
:100450000F920FB60F9211248F939F9388B190E45F
:10046000892788B99F918F910F900FBE0F901F9091
:10047000189514BC15BC94B5926094BD95B5982B95
:1004800095BD67BDEEE6F0E080818260808381E00B
:1004900090E0089510928000E1E8F0E010829081F1
:1004A000986090839081982B9083709389006093DB
:1004B0008800EFE6F0E080818260808381E090E058
:1004C000089510929000E1E9F0E010829081986028
:1004D00090839081982B90837093990060939800FB
:1004E000E1E7F0E080818260808381E090E0089520
:1004F000A0E8B0E01C92E1E8F0E010829C919062EC
:100500009C939C9192609C93908190619083908148
:10051000986090839081982B908370938B00609368
:100520008A00309387002093860081E090E0089550
:10053000A0E9B0E01C92E1E9F0E010829C919068A3
:100540009C939C9192609C93908190619083908108
:10055000986090839081982B90837093990060931A
:100560009800309397002093960081E090E00895E2
:100570008034910591F034F48130910561F0089751
:1005800091F00FC0811521E0920749F08115944048
:1005900041F485E0089581E0089583E0089584E0C2
:1005A000089580E0089582E00895A0E0B0E0EAEDCB
:1005B000F2E05BC1EC011B015A0168017901823054
:1005C000910520F08330910509F03CC060E87EE39E
:1005D00080E090E09101442737FD4095542F1DD1D4
:1005E000D5013DD12B013C01BCD19B01AC01C70120
:1005F000B60145D28AD14B015C01209741F48FEFBF
:1006000088169104A104B10441F038F01BC0811494
:10061000910481E0A806B104A8F4C101A9DFC130AA
:10062000D10549F0239771F487017601A301920166
:10063000B4017EDF09C087017601A3019201B401F4
:1006400057DF02C08FEF9FEFCDB7DEB7E2E129C1E0
:10065000A0E0B0E0EDE2F3E012C1EC018B017A0121
:100660008230910518F08330910589F560E87EE3CA
:1006700080E090E09801442737FD4095542FCDD07D
:10068000D701EDD06B017C01209741F48FEFC816A4
:10069000D104E104F10441F038F019C0C114D104CF
:1006A00081E0E806F10498F4C80162DFC130D105A9
:1006B00041F0C330D10541F0CD2B49F46C2DD9DE8A
:1006C00008C0B601E7DE05C0B601FBDE02C08FEF51
:1006D0009FEFCDB7DEB7E8E0EEC01092D80085DE20
:1006E00085E991E025DD48EB51E061E070E085E9C6
:1006F00091E055DD8DE791E01BDD4DEC51E061E0CF
:1007000070E08DE791E04BDD1092A0011092A10105
:100710001092A2011092A3011092A4011092A501BF
:100720001092A6011092A701789480911A019091DD
:100730001B01892B29F4409110015091110120C017
:1007400080911A0190911B01019729F440911201A7
:100750005091130115C080911A0190911B010297CD
:1007600029F440911401509115010AC080911A0199
:1007700090911B01039769F4409116015091170164
:1007800000E010E020E03FE360E071E081E090E015
:100790000CDF8091180190911901892B49F4009187
:1007A00000011091010120910201309103012DC03F
:1007B0008091180190911901019749F40091040169
:1007C0001091050120910601309107011EC0809112
:1007D000180190911901029749F4009108011091B4
:1007E000090120910A0130910B010FC0809118017D
:1007F00090911901039709F098CF00910C01109185
:100800000D0120910E0130910F0141E050E060E0B8
:1008100071E083E090E0C9DE88CFA1E21A2EAA1B26
:10082000BB1BFD010DC0AA1FBB1FEE1FFF1FA217A0
:10083000B307E407F50720F0A21BB30BE40BF50B9D
:10084000661F771F881F991F1A9469F76095709526
:10085000809590959B01AC01BD01CF010895B7FF34
:100860003BC03AD0821B930B08952F923F924F9238
:100870005F926F927F928F929F92AF92BF92CF9230
:10088000DF92EF92FF920F931F93CF93DF93CDB739
:10089000DEB7CA1BDB0B0FB6F894DEBF0FBECDBFB1
:1008A00009942A88398848885F846E847D848C8482
:1008B0009B84AA84B984C884DF80EE80FD800C818B
:1008C0001B81AA81B981CE0FD11D0FB6F894DEBF6E
:1008D0000FBECDBFED01089509D0A59F900DB49F27
:1008E000900DA49F800D911D11240895A29FB00129
:1008F000B39FC001A39F700D811D1124911DB29F54
:10090000700D811D1124911D089598D088F09F5776
:1009100090F0B92F9927B751A0F0D1F0660F771F4B
:10092000881F991F1AF0BA95C9F712C0B13081F02B
:100930009FD0B1E008959CC0672F782F8827B85FBB
:1009400039F0B93FCCF3869577956795B395D9F78C
:100950003EF490958095709561957F4F8F4F9F4F96
:100960000895E89409C097FB3EF4909580957095A2
:1009700061957F4F8F4F9F4F9923A9F0F92F96E9EB
:10098000BB279395F695879577956795B795F11160
:10099000F8CFFAF4BB0F11F460FF1BC06F5F7F4FFD
:1009A0008F4F9F4F16C0882311F096E911C077230F
:1009B00021F09EE8872F762F05C0662371F096E818
:1009C000862F70E060E02AF09A95660F771F881FE7
:1009D000DAF7880F9695879597F9089597F99F67A5
:1009E00080E870E060E008959FEF80EC08950024B7
:1009F0000A941616170618060906089500240A9484
:100A000012161306140605060895092E0394000C09
:100A100011F4882352F0BB0F40F4BF2B11F460FF98
:100A200004C06F5F7F4F8F4F9F4F089557FD9058C1
:100A3000440F551F59F05F3F71F04795880F97FBA2
:100A4000991F61F09F3F79F087950895121613065C
:100A50001406551FF2CF4695F1DF08C0161617068B
:100A60001806991FF1CF86957105610508940895C0
:100A7000E894BB2766277727CB0197F908950BD019
:100A8000C4CFB5DF28F0BADF18F0952309F0A6CF60
:100A9000ABCF1124EECFCADFA0F3959FD1F3950F12
:100AA00050E0551F629FF001729FBB27F00DB11DF2
:100AB000639FAA27F00DB11DAA1F649F6627B00D82
:100AC000A11D661F829F2227B00DA11D621F739F6B
:100AD000B00DA11D621F839FA00D611D221F749F79
:100AE0003327A00D611D231F849F600D211D822FC0
:100AF000762F6A2F11249F5750408AF0E1F0882307
:100B00004AF0EE0FFF1FBB1F661F771F881F915013
:100B10005040A9F79E3F510570F060CFAACF5F3FCC
:100B2000ECF3983EDCF3869577956795B795F79546
:100B3000E7959F5FC1F7FE2B880F911D96958795CE
:080B400097F90895F894FFCF26
:100B4800CDCC4C3ECDCCCC3ECDCC4C3F6666663F42
:100B5800580290016400E803FFFFFFFF0400FF0054
:100B6800FF00FF00FF00FF00FF0000000000000082
:100B7800FF00FF000000FF000000FF00FF00000072
:100B880000000000FF00FF00FF00FF00FF00FF0063
:100B9800240025000323002400250000230027004B
:100BA80028000726002A002B00052900240025001C
:040BB8000023000016
:00000001FF
