:1000000055C000006EC000006CC000006AC0000057
:1000100068C0000066C0000064C0000062C000004C
:1000200060C00000DAC000005CC000005AC00000E0
:1000300058C0000056C0000054C0000052C000006C
:1000400050C00000D7C100004CC000004AC00000F2
:1000500048C0000046C0000044C0000042C000008C
:1000600040C000003EC000003CC000003AC000009C
:1000700038C0000036C0000034C0000032C00000AC
:1000800030C000002EC000002CC000002AC00000BC
:1000900028C0000026C0000024C0000022C00000CC
:1000A00020C000001EC000001CC0000011241FBEA4
:1000B000CFEFDAE0DEBFCDBF11E0A0E0B1E0E4EFCA
:1000C000F9E002C005900D92A437B107D9F721E0FD
:1000D000A4E7B1E001C01D92AC3AB207E1F7AAD2A1
:1000E00087C48ECF089587E0E0E5F1E0A9E9B1E0AB
:1000F00001900D928A95E1F787E0E7E5F1E0A1E84C
:10010000B1E001900D928A95E1F782E790E090933B
:10011000A3018093A2019093A1018093A0019093E9
:1001200089018093880190937901809378010895E3
:10013000FC01A081B1814C9181E090E09C010480A0
:1001400002C0220F331F0A94E2F7209524232C9338
:10015000A281B3812C91048002C0880F991F0A9458
:10016000E2F7282B2C9380916800816080936800CF
:100170008481833029F480916B00886080936B00C8
:100180008481811105C080916B00816080936B0038
:1001900083B189708093980180E090E00895FC011C
:1001A0008481833061F4672B29F05093A30140933D
:1001B000A20108955093A1014093A00108958111D7
:1001C0000BC0672B29F05093890140938801089553
:1001D000509379014093780108951F920F920FB6C2
:1001E0000F9211241F932F933F934F935F936F931D
:1001F0007F938F939F93AF93BF93CF93DF93EF93AF
:10020000FF9313B1D12FD9708FE99FE00197F1F7D8
:1002100000C0000083B12D2F30E0897090E02817D6
:10022000390739F5C0919801CD27C3FF12C013FDDE
:1002300005C0E091A001F091A1010AC081E090E029
:100240009093770180937601E091A201F091A30150
:100250000995C0FF0CC010FD05C0E0917801F09138
:10026000790104C0E0918801F09189010995D0934A
:100270009801FF91EF91DF91CF91BF91AF919F9145
:100280008F917F916F915F914F913F912F911F912E
:100290000F900FBE0F901F90189587E0EEE5F1E0EC
:1002A000A1E9B1E001900D928A95E1F73F9A87E0CC
:1002B000E5E6F1E0AAE8B1E001900D928A95E1F758
:1002C000559A87E0ECE6F1E0AAE7B1E001900D92E3
:1002D0008A95E1F7209A0895FC01A281B3813481C7
:1002E0002C9181E090E0032E01C0880F0A94EAF778
:1002F000672B19F4282B2C9303C0809582238C93B1
:100300002FEF83EC99E0215080409040E1F700C04E
:100310000000A281B3812C9181E090E0048002C0B2
:10032000880F991F0A94E2F728272C932FEF83EC6C
:1003300099E0215080409040E1F700C0000008950E
:1003400060E070E081E991E0C7DF61E070E08AE79A
:1003500091E0C2DF61E070E08AE891E0BDDF60E03B
:1003600070E081E991E0B8DF61E070E08AE791E058
:10037000B3DF61E070E08AE891E0AECF80911A01CE
:1003800090911B01049754F480911A0190911B01E4
:10039000019690931B0180931A01089510921B01FE
:1003A00010921A010895F8942091A4013091A501AA
:1003B0004091A6015091A7016091A8017091A901F7
:1003C0008091AA019091AB01789408950F931F93A7
:1003D00064DFB6DF88DE269A00E010E020E03FE32D
:1003E00048EE53E060E071E081E090E096D01F912C
:1003F0000F9108951F920F920FB60F9211248F93B1
:100400009F9385B190E4892785B99F918F910F9033
:100410000FBE0F901F90189514BC15BC94B5926038
:1004200094BD95B5982B95BD67BDEEE6F0E0808153
:100430008260808381E090E0089510928000E1E87E
:10044000F0E010829081986090839081982B908347
:100450007093890060938800EFE6F0E0808182600D
:10046000808381E090E0089510929000E1E9F0E04F
:1004700010829081986090839081982B90837093E4
:10048000990060939800E1E7F0E0808182608083CA
:1004900081E090E00895A0E8B0E01C92E1E8F0E08F
:1004A00010829C9190629C939C9192609C9390810D
:1004B000906190839081986090839081982B908335
:1004C00070938B0060938A0030938700209386009E
:1004D000EFE6F0E080818260808381E090E0089523
:1004E0008034910591F034F48130910561F00897E2
:1004F00091F00FC0811521E0920749F081159440D9
:1005000041F485E0089581E0089583E0089584E052
:10051000089580E0089582E00895A0E0B0E0E2E967
:10052000F2E0F9C0EC011B015A0168017901823047
:10053000910518F08330910591F560E87EE380E045
:1005400090E09101442737FD4095542FBCD0D50150
:10055000DCD02B013C015BD19B01AC01C701B60192
:10056000E4D129D14B015C01209741F48FEF88162B
:100570009104A104B10441F038F011C08114910438
:1005800081E0A806B10458F4C101AADF219739F42B
:1005900087017601A3019201B4017DDF02C08FEFD4
:1005A0009FEFCDB7DEB7E2E1D2C0A0E0B0E0EAED68
:1005B000F2E0BBC0EC018B017A018230910518F0AA
:1005C0008330910589F560E87EE380E090E0980152
:1005D000442737FD4095542F76D0D70196D06B0134
:1005E0007C01209741F48FEFC816D104E104F10497
:1005F00041F038F019C0C114D10481E0E806F104DB
:1006000098F4C8016DDFC130D10541F0C330D10588
:1006100041F0CD2B49F46C2DFFDE08C0B6010DDF93
:1006200005C0B60121DF02C08FEF9FEFCDB7DEB767
:10063000E8E097C01092D800C9DE89E991E078DD42
:100640004EEB51E061E070E089E991E0A8DD1092A5
:10065000A4011092A5011092A6011092A701109278
:10066000A8011092A9011092AA011092AB017894EE
:1006700080911A0190911B01892B61F080911A01E0
:1006800090911B01019789F080911A0190911B01B3
:10069000029729F440911401509115010AC08091EC
:1006A0001A0190911B01039719F74091160150917F
:1006B000170100E010E020E03FE360E071E081E03E
:1006C00090E02BDFD5CFA1E21A2EAA1BBB1BFD01A8
:1006D0000DC0AA1FBB1FEE1FFF1FA217B307E40721
:1006E000F50720F0A21BB30BE40BF50B661F771F79
:1006F000881F991F1A9469F7609570958095909559
:100700009B01AC01BD01CF010895B7FF3BC03AD0BA
:10071000821B930B08952F923F924F925F926F929C
:100720007F928F929F92AF92BF92CF92DF92EF9281
:10073000FF920F931F93CF93DF93CDB7DEB7CA1B02
:10074000DB0B0FB6F894DEBF0FBECDBF09942A882D
:10075000398848885F846E847D848C849B84AA84D5
:10076000B984C884DF80EE80FD800C811B81AA8162
:10077000B981CE0FD11D0FB6F894DEBF0FBECDBF2D
:10078000ED01089509D0A59F900DB49F900DA49FF1
:10079000800D911D11240895A29FB001B39FC00147
:1007A000A39F700D811D1124911DB29F700D811D9D
:1007B0001124911D089598D088F09F5790F0B92F7B
:1007C0009927B751A0F0D1F0660F771F881F991FA6
:1007D0001AF0BA95C9F712C0B13081F09FD0B1E0DC
:1007E00008959CC0672F782F8827B85F39F0B93FEC
:1007F000CCF3869577956795B395D9F73EF49095A8
:100800008095709561957F4F8F4F9F4F0895E89425
:1008100009C097FB3EF490958095709561957F4F48
:100820008F4F9F4F9923A9F0F92F96E9BB279395F6
:10083000F695879577956795B795F111F8CFFAF406
:10084000BB0F11F460FF1BC06F5F7F4F8F4F9F4F37
:1008500016C0882311F096E911C0772321F09EE895
:10086000872F762F05C0662371F096E8862F70E0FB
:1008700060E02AF09A95660F771F881FDAF7880FD5
:100880009695879597F9089597F99F6780E870E0A6
:1008900060E008959FEF80EC089500240A941616F6
:1008A000170618060906089500240A94121613065E
:1008B000140605060895092E0394000C11F48823EC
:1008C00052F0BB0F40F4BF2B11F460FF04C06F5F08
:1008D0007F4F8F4F9F4F089557FD9058440F551FDE
:1008E00059F05F3F71F04795880F97FB991F61F0B2
:1008F0009F3F79F087950895121613061406551F29
:10090000F2CF4695F1DF08C0161617061806991F94
:10091000F1CF86957105610508940895E894BB2789
:1009200066277727CB0197F908950BD0C4CFB5DFA1
:1009300028F0BADF18F0952309F0A6CFABCF112429
:10094000EECFCADFA0F3959FD1F3950F50E0551F6E
:10095000629FF001729FBB27F00DB11D639FAA2714
:10096000F00DB11DAA1F649F6627B00DA11D661F63
:10097000829F2227B00DA11D621F739FB00DA11D84
:10098000621F839FA00D611D221F749F3327A00D3E
:10099000611D231F849F600D211D822F762F6A2FDA
:1009A00011249F5750408AF0E1F088234AF0EE0F5F
:1009B000FF1FBB1F661F771F881F91505040A9F76C
:1009C0009E3F510570F060CFAACF5F3FECF3983E99
:1009D000DCF3869577956795B795F795E7959F5FD3
:1009E000C1F7FE2B880F911D9695879597F908956D
:0409F000F894FFCFA9
:1009F4000000003F3333333FCDCC4C3F6666663F47
:100A0400BC02F4016400E803FFFFFFFF0400FF00E1
:100A1400FF00FF00FF00FF00FF00000000000000D7
:100A2400FF00FF000000FF000000FF00FF000000C7
:100A340000000000FF00FF00FF00FF00FF00FF00B8
:100A440024002500032300240025000023002700A0
:100A540028000726002A002B000529002400250071
:040A6400002300006B
:00000001FF
