:1000000055C000006EC000006CC000006AC0000057
:1000100068C0000066C0000064C0000062C000004C
:1000200060C000001DC100005CC000005AC000009C
:1000300058C0000056C0000054C0000052C000006C
:1000400050C000004EC000004CC000004AC000007C
:1000500048C0000046C0000044C0000042C000008C
:1000600040C000003EC000003CC000003AC000009C
:1000700038C0000036C0000034C0000032C00000AC
:1000800030C000002EC000002CC000002AC00000BC
:1000900028C0000026C0000024C0000022C00000CC
:1000A00020C000001EC000001CC0000011241FBEA4
:1000B000CFEFDAE0DEBFCDBF11E0A0E0B1E0E2E1DA
:1000C000F7E002C005900D92AC32B107D9F721E0FC
:1000D000ACE2B1E001C01D92A835B207E1F73AD217
:1000E00016C38ECF089561E070E08EE391E0DDC12C
:1000F00060E070E085E491E0D8C1FC01A281B381A9
:100100004C9181E090E09C01048002C0220F331FDB
:100110000A94E2F7209524232C93A281B3812C9199
:10012000048002C0880F991F0A94E2F728272C93B5
:100130000895FC01A281B3814C9181E090E09C0183
:10014000048002C0220F331F0A94E2F7422B4C9323
:10015000A281B3812C91048002C0880F991F0A9458
:10016000E2F728272C93089587E0E8E0F1E0ADE47A
:10017000B1E001900D928A95E1F7239A87E0EFE0D4
:10018000F1E0A5E3B1E001900D928A95E1F7209AA4
:1001900082E790E090935701809356019093550128
:1001A0008093540190933D0180933C0190932D01E5
:1001B00080932C010895FC01A081B1814C9181E0D4
:1001C00090E09C01048002C0220F331F0A94E2F7E2
:1001D000209524232C93A281B3812C91048002C00A
:1001E000880F991F0A94E2F7282B2C9380916800BE
:1001F0008160809368008481833029F480916B0052
:10020000886080936B008481811105C080916B00B0
:10021000816080936B0083B1897080934C0180E092
:1002200090E00895FC018481833061F4672B29F00C
:1002300050935701409356010895509355014093B0
:100240005401089581110BC0672B29F050933D0193
:1002500040933C01089550932D0140932C01089543
:100260001F920F920FB60F9211242F933F934F932B
:100270005F936F937F938F939F93AF93BF93CF932E
:10028000DF93EF93FF93C3B1C9708FE99FE00197AC
:10029000F1F700C0000083B12C2F30E0897090E0AE
:1002A0002817390709F0CFC0D0914C01DC27D3FFC4
:1002B00064C08091040190910501A0910601B09164
:1002C000070181309105A105B105E1F482E090E0DC
:1002D000A0E0B0E08093040190930501A093060193
:1002E000B0930701E0914001F0914101408181E02C
:1002F00090E00090420102C0880F991F0A94E2F733
:10030000482B34C082309105A105B10579F483E012
:1003100090E0A0E0B0E08093040190930501A093E9
:100320000601B093070143E750E022C00397A105FF
:10033000B10519F581E090E0A0E0B0E08093040100
:1003400090930501A0930601B0930701E09140014D
:10035000F0914101808141E050E00090420102C0F3
:10036000440F551F0A94E2F740954823408350E01C
:1003700061E070E08DE491E055DFD0FF62C08091D4
:10038000000190910101A0910201B091030181301F
:100390009105A105B105E9F482E090E0A0E0B0E0AC
:1003A0008093000190930101A0930201B093030197
:1003B000E0914701F0914801808141E050E00090D8
:1003C000490102C0440F551F0A94E2F740954823A3
:1003D00031C082309105A105B10579F483E090E048
:1003E000A0E0B0E08093000190930101A09302018E
:1003F000B093030148E750E01FC00397A105B10582
:1004000001F581E090E0A0E0B0E0809300019093DE
:100410000101A0930201B0930301E0914701F09123
:10042000480140810090490102C0880F991F0A9439
:10043000E2F7482B408350E061E070E085E391E013
:10044000F1DEC0934C01FF91EF91DF91CF91BF910D
:10045000AF919F918F917F916F915F914F913F915C
:100460002F910F900FBE0F901F90189587E0E6E137
:10047000F1E0A5E4B1E001900D928A95E1F73F9A91
:1004800087E0EDE1F1E0AEE3B1E001900D928A95F5
:10049000E1F7559A87E0E4E2F1E0AEE2B1E00190E5
:1004A0000D928A95E1F7209A0895FC01A281B3810B
:1004B00034812C9181E090E0032E01C0880F0A94D2
:1004C000EAF7672B19F4282B2C9303C0809582231D
:1004D0008C932FEF84E39CE0215080409040E1F723
:1004E00000C00000A281B3812C9181E090E00480E3
:1004F00002C0880F991F0A94E2F728272C932FEF48
:1005000084E39CE0215080409040E1F700C000006F
:10051000089560E070E085E491E0C7DF61E070E09D
:100520008EE291E0C2DF61E070E08EE391E0BDDF3A
:1005300060E070E085E491E0B8DF61E070E08EE2B9
:1005400091E0B3DF61E070E08EE391E0AECF8EDF4B
:10055000E0DF0ACEA4E1B0E0EFEAF2E0CAC0109218
:10056000D800F5DF8DE491E026DE85E391E023DE1F
:10057000198A1A8A1B8A1C8A81E090E0A0E0B0E008
:100580008D879E87AF87B88B89879A87AB87BC8713
:100590001D821E821F82188619821A821B821C826B
:1005A00078948D859E85AF85B8890197A105B105A1
:1005B000E9F18D859E85AF85B8890297A105B105C2
:1005C00069F540E050E0BA018D819E81AF81B88528
:1005D0008A019B010F5F1F4F2F4F3F4F0196A11DB7
:1005E000B11D481759076A077B0760F44FEF84E392
:1005F0009CE0415080409040E1F700C00000B9010C
:10060000A801E2CF8D819E81AF81B8850196A11DA1
:10061000B11D8D839E83AF83B8870CC08D859E8569
:10062000AF85B8890397A105B10521F41D821E820B
:100630001F82188689859A85AB85BC850197A1059F
:10064000B10509F443C089859A85AB85BC850297BD
:10065000A105B10591F5E0913C01F0913D010995AD
:1006600040E050E0BA0189819A81AB81BC818A0166
:100670009B010F5F1F4F2F4F3F4F0196A11DB11DD3
:10068000481759076A077B0760F44FEF88E09DE33E
:10069000415080409040E1F700C00000B901A8013E
:1006A000E2CF89819A81AB81BC810196A11DB11DE8
:1006B00089839A83AB83BC8374CF89859A85AB8504
:1006C000BC850397A105B10509F06BCF19821A8289
:1006D0001B821C8266CF2F923F924F925F926F9245
:1006E0007F928F929F92AF92BF92CF92DF92EF92C2
:1006F000FF920F931F93CF93DF93CDB7DEB7CA1B43
:10070000DB0B0FB6F894DEBF0FBECDBF0994F89493
:02071000FFCF19
:100712000100000001000000240025000323002442
:10072200002500002300270028000726002A002BAE
:0C07320000052900240025000023000021
:00000001FF
