:1000000055C000006EC000006CC000006AC0000057
:1000100068C0000066C0000064C0000062C000004C
:1000200060C0000063C100005CC000005AC0000056
:1000300058C0000056C0000054C0000052C000006C
:1000400050C000004EC000004CC000004AC000007C
:1000500048C0000046C0000044C0000042C000008C
:1000600040C000003EC000003CC000003AC000009C
:1000700038C0000036C0000034C0000032C00000AC
:1000800030C000002EC000002CC000002AC00000BC
:1000900028C0000026C0000024C0000022C00000CC
:1000A00020C000001EC000001CC0000011241FBEA4
:1000B000CFEFDAE0DEBFCDBF11E0A0E0B1E0EEE4CB
:1000C000F7E002C005900D92AC32B107D9F721E0FC
:1000D000ACE2B1E001C01D92A835B207E1F748D209
:1000E00034C38ECFE0914001F0914101208181E045
:1000F00090E00090420102C0880F991F0A94E2F735
:10010000282B20830895E0914001F0914101208146
:1001100081E090E00090420102C0880F991F0A948C
:10012000E2F78095822380830895E0914701F09162
:100130004801208181E090E00090490102C0880FD1
:10014000991F0A94E2F78095822380830895E091B5
:100150004701F0914801208181E090E00090490141
:1001600002C0880F991F0A94E2F7282B2083089574
:10017000089561E070E08EE391E0A5C160E070E079
:1001800085E491E0A0C1FC01A281B3814C9181E0A2
:1001900090E09C01048002C0220F331F0A94E2F712
:1001A000209524232C93A281B3812C91048002C03A
:1001B000880F991F0A94E2F728272C930895FC01D1
:1001C000A281B3814C9181E090E09C01048002C047
:1001D000220F331F0A94E2F7422B4C93A281B38182
:1001E0002C91048002C0880F991F0A94E2F72827F7
:1001F0002C93089587E0E8E0F1E0ADE4B1E00190F0
:100200000D928A95E1F7239A87E0EFE0F1E0A5E30C
:10021000B1E001900D928A95E1F7209A88EB90E089
:100220009093570180935601909355018093540108
:1002300090933D0180933C0190932D0180932C017C
:100240000895FC01A081B1814C9181E090E09C0176
:10025000048002C0220F331F0A94E2F72095242362
:100260002C93A281B3812C91048002C0880F991F26
:100270000A94E2F7282B2C93809168008160809388
:1002800068008481833029F480916B0088608093BA
:100290006B008481811105C080916B008160809327
:1002A0006B0083B1897080934C0180E090E00895E9
:1002B000FC018481833061F4672B29F0509357014E
:1002C0004093560108955093550140935401089569
:1002D00081110BC0672B29F050933D0140933C01E5
:1002E000089550932D0140932C0108951F920F9271
:1002F0000FB60F9211242F933F934F935F936F93F9
:100300007F938F939F93AF93BF93CF93DF93EF939D
:10031000FF93C3B1C9708FE99FE00197F1F700C067
:10032000000083B12C2F30E0897090E02817390746
:1003300009F097C0D0914C01DC27D3FF47C08091D2
:10034000040190910501A0910601B091070181304F
:100350009105A105B10579F482E090E0A0E0B0E05C
:100360008093040190930501A0930601B0930701C7
:1003700042E750E026C082309105A105B10579F42D
:1003800083E090E0A0E0B0E0809304019093050149
:10039000A0930601B093070149EB50E012C0039708
:1003A000A105B10599F481E090E0A0E0B0E0809370
:1003B000040190930501A0930601B093070143E85F
:1003C00050E061E070E08DE491E072DFD0FF47C063
:1003D0008091000190910101A0910201B09103016F
:1003E00081309105A105B10579F482E090E0A0E0AB
:1003F000B0E08093000190930101A0930201B093BB
:10040000030145E950E026C082309105A105B10500
:1004100079F483E090E0A0E0B0E080930001909355
:100420000101A0930201B09303014EEB50E012C012
:100430000397A105B10599F481E090E0A0E0B0E058
:100440008093000190930101A0930201B0930301F6
:1004500047EA50E061E070E085E391E029DFC09376
:100460004C01FF91EF91DF91CF91BF91AF919F919F
:100470008F917F916F915F914F913F912F910F904D
:100480000FBE0F901F90189587E0E6E1F1E0A5E41C
:10049000B1E001900D928A95E1F73F9A87E0EDE196
:1004A000F1E0AEE3B1E001900D928A95E1F7559A43
:1004B00087E0E4E2F1E0AEE2B1E001900D928A95CE
:1004C000E1F7209A0895FC01A281B38134812C9137
:1004D00081E090E0032E01C0880F0A94EAF7672BB1
:1004E00019F4282B2C9303C0809582238C932FEF33
:1004F00084E39CE0215080409040E1F700C0000080
:10050000A281B3812C9181E090E0048002C0880F29
:10051000991F0A94E2F728272C932FEF84E39CE09D
:10052000215080409040E1F700C00000089560E055
:1005300070E085E491E0C7DF61E070E08EE291E079
:10054000C2DF61E070E08EE391E0BDDF60E070E06B
:1005500085E491E0B8DF61E070E08EE291E0B3DF26
:1005600061E070E08EE391E0AECF8EDFE0DF42CE5F
:10057000A4E1B0E0EDEBF2E0DAC01092D800F5DFD4
:100580008DE491E05EDE85E391E05BDE198A1A8AF4
:100590001B8A1C8A81E090E0A0E0B0E08D879E87F6
:1005A000AF87B88B89879A87AB87BC871D821E82ED
:1005B0001F82188619821A821B821C8278948D856C
:1005C0009E85AF85B8890197A105B10509F442C0A0
:1005D0008D859E85AF85B8890397A105B10591F5F5
:1005E000E0915601F0915701099540E050E0BA01C1
:1005F0008D819E81AF81B8858A019B010F5F1F4F5E
:100600002F4F3F4F0196A11DB11D481759076A078B
:100610007B0760F44FEF84E39CE0415080409040C2
:10062000E1F700C00000B901A801E2CF8D819E81F1
:10063000AF81B8850196A11DB11D8D839E83AF83C7
:10064000B88711C08D859E85AF85B8890297A105B1
:10065000B10549F4E0915601F091570109951D82C9
:100660001E821F82188689859A85AB85BC85019775
:10067000A105B10509F443C089859A85AB85BC8580
:100680000397A105B10591F5E0913C01F0913D0181
:10069000099540E050E0BA0189819A81AB81BC8123
:1006A0008A019B010F5F1F4F2F4F3F4F0196A11DE6
:1006B000B11D481759076A077B0760F44FEF88E0C0
:1006C0009DE3415080409040E1F700C00000B90137
:1006D000A801E2CF89819A81AB81BC810196A11DDD
:1006E000B11D89839A83AB83BC8369CF89859A8541
:1006F000AB85BC850297A105B10509F060CFE091FB
:100700003C01F0913D01099519821A821B821C82DD
:1007100056CF2F923F924F925F926F927F928F921D
:100720009F92AF92BF92CF92DF92EF92FF920F9380
:100730001F93CF93DF93CDB7DEB7CA1BDB0B0FB68A
:0E074000F894DEBF0FBECDBF0994F894FFCF32
:10074E000100000001000000240025000323002406
:10075E00002500002300270028000726002A002B72
:0C076E00000529002400250000230000E5
:00000001FF
