:1000000064C000007EC000007CC000007AC0000018
:1000100078C0000076C0000074C0000072C000000C
:1000200070C00000EAC000006CC000006AC00000A0
:1000300068C0000066C0000064C0000062C000002C
:1000400060C000005EC000005CC000005AC000003C
:1000500058C000005DC2000054C0000052C0000043
:1000600050C000004EC000004CC000004AC000005C
:1000700048C0000046C0000044C0000042C000006C
:1000800040C000003EC000003CC000003AC000007C
:1000900038C0000036C0000034C0000032C000008C
:1000A00030C000002EC000002CC0000005A84CCDC0
:1000B000B2D44EB93836A9020C50B9918688083CA2
:1000C000A6AAAA2ABE000000803F11241FBECFEFBF
:1000D000DAE0DEBFCDBF11E0A0E0B1E0E2E1F4E1A3
:1000E00002C005900D92A835B107D9F722E0A8E526
:1000F000B1E001C01D92AE39B207E1F770D50C94A2
:10010000070A7ECF089587E0E4E3F1E0ADE7B1E0D0
:1001100001900D928A95E1F787E0EBE3F1E0A5E627
:10012000B1E001900D928A95E1F782E890E090931A
:100130008701809386019093850180938401909339
:100140006D0180936C0190935D0180935C01089533
:10015000FC01A081B1814C9181E090E09C01048080
:1001600002C0220F331F0A94E2F7209524232C9318
:10017000A281B3812C91048002C0880F991F0A9438
:10018000E2F7282B2C9380916800816080936800AF
:100190008481833029F480916B00886080936B00A8
:1001A0008481811105C080916B00816080936B0018
:1001B00083B1897080937C0180E090E00895FC0118
:1001C0008481833061F4672B29F050938701409339
:1001D000860108955093850140938401089581110B
:1001E0000BC0672B29F050936D0140936C0108956B
:1001F00050935D0140935C0108951F920F920FB6DA
:100200000F9211241F932F933F934F935F936F93FC
:100210007F938F939F93AF93BF93CF93DF93EF938E
:10022000FF9313B1D12FD9708FE99FE00197F1F7B8
:1002300000C0000083B12D2F30E0897090E02817B6
:10024000390709F5C0917C01CD27C3FF0CC013FD10
:1002500005C0E0918401F091850104C0E091860120
:10026000F09187010995C0FF0CC010FD05C0E09119
:100270005C01F0915D0104C0E0916C01F0916D01B1
:100280000995D0937C01FF91EF91DF91CF91BF91C0
:10029000AF919F918F917F916F915F914F913F911E
:1002A0002F911F910F900FBE0F901F90189587E010
:1002B000E2E4F1E0A5E7B1E001900D928A95E1F763
:1002C0003F9A87E0E9E4F1E0AEE6B1E001900D92FB
:1002D0008A95E1F7559A87E0E0E5F1E0AEE5B1E017
:1002E00001900D928A95E1F7209A0895FC01A28170
:1002F000B38134812C9181E090E0032E01C0880FFE
:100300000A94EAF7672B19F4282B2C9303C08095E5
:1003100082238C932FEF83EC99E021508040904012
:10032000E1F700C00000A281B3812C9181E090E050
:10033000048002C0880F991F0A94E2F728272C93A3
:100340002FEF83EC99E0215080409040E1F700C00E
:100350000000089560E070E085E791E0C7DF61E0AC
:1003600070E08EE591E0C2DF61E070E08EE691E042
:10037000BDDF60E070E085E791E0B8DF61E070E04C
:100380008EE591E0B3DF61E070E08EE691E0AECF04
:1003900081E090E090935B0180935A01F894089576
:1003A000F8942091960230919702409198025091D2
:1003B000990260919A0270919B0280919C029091A7
:1003C0009D0278940895CF93DF93C0915801D09106
:1003D0005901CA30D105D9F17BE17C9FF0017D9FA5
:1003E000F00D1124E857FE4F91838083538342839D
:1003F000852F880F880BDF011496448311965C9338
:10040000119712968C93129713968C9313971496B8
:100410008C93149715968C93159716968C93169724
:1004200017968C936687308B278781E090E0928BBC
:10043000818B948B838B168A158A108E178A928FE4
:10044000818F2196D0935901C093580102C08FEF3C
:100450009FEFDF91CF91089521E030E04AE050E036
:1004600061E070E08AE893E0AEDF23E030E044E151
:1004700050E064E070E084EB93E0A5DF22E030E040
:100480004FE050E063E070E083EC93E09CDF24E019
:1004900030E049E150E062E070E086EC93E093DF09
:1004A00027E030E047E350E069E070E08FEC93E054
:1004B0008ADF25E030E04EE150E065E070E088ED55
:1004C00093E081DF24E030E049E150E067E070E054
:1004D00081EE93E078DF26E030E042E350E068E030
:1004E00070E08AEE93E06FDF23E030E044E150E01B
:1004F00066E070E082E095E066CFD9DE2BDF03DEB8
:10050000ABDF41E050E060E470E080E090E022C3C7
:100510001F920F920FB60F9211245F926F927F92EB
:100520008F929F92AF92BF92CF92DF92EF92FF9203
:100530000F931F932F933F934F935F936F937F93EB
:100540008F939F93AF93BF93CF93DF93EF93FF93DB
:100550002091960230919702409198025091990211
:1005600060919A0270919B0280919C0290919D02F1
:10057000A1E06ED4209396023093970240939802A4
:100580005093990260939A0270939B0280939C020D
:1005900090939D02FBE15F2E66246394712C89E0A9
:1005A000881691040CF05DC020919602309197025C
:1005B000409198025091990260919A0270919B0229
:1005C00080919C0290919D02589CE001599CD00D15
:1005D0001124C857DE4FEA81FB811F2F110F110B29
:1005E0005F01C12ED12EE12EF12E012F9ED3F901F4
:1005F0002091960230919702409198025091990271
:1006000060919A0270919B0280919C0290919D0250
:10061000EA80FB80EE9ED001EF9EB00DFE9EB00DF5
:1006200011241B2F110F110B5D01C12ED12EE12EB4
:10063000F12E012F19D489F48F89988DE81BF90BBD
:10064000FD87EC8788E08816910439F07A8E698EF0
:1006500089899A8901969A8B898B8FEF881A980AD3
:100660009ECFE0915A01F0915B01E130F10591F5E7
:1006700020919602309197024091980250919902F0
:1006800060919A0270919B0280919C0290919D02D0
:10069000F0937A02E0937902C0917702D0917802C8
:1006A000E4E1AE2EB12CC12CD12CE12CF12C00E0D8
:1006B00010E03BD349018C1A9D0A90926D02809202
:1006C0006C02809171029091720201969093720275
:1006D00080937102FF91EF91DF91CF91BF91AF9124
:1006E0009F918F917F916F915F914F913F912F914A
:1006F0001F910F91FF90EF90DF90CF90BF90AF9040
:100700009F908F907F906F905F900F900FBE0F9093
:100710001F901895CF93DF9349E150E061E070E0BE
:1007200082E091E020E030E0FC01E20FF31FA081C5
:10073000B181EB01CA1BDB0BD183C0832E5F3F4F1E
:100740002A30310589F70A96D1E084339D0751F7A5
:10075000415051094115510519F7809102019091BD
:100760000301DF91CF9108958FE99FE00197F1F7A1
:1007700000C000008FE99FE00197F1F700C0000082
:1007800081E090E0089580E090E008958FE99FE097
:100790000197F1F700C0000081E090E008958FE933
:1007A0009FE00197F1F700C0000081E090E008951C
:1007B0008FE39FE10197F1F700C0000082E090E035
:1007C00008958FED9EE20197F1F700C0000083E0ED
:1007D00090E00895A6E1B0E0EFEEF3E002C380916F
:1007E0000001909101010196853091053CF49093B0
:1007F00001018093000180E090E001C110920101AD
:100800001092000122E031E038872F831E8A1D8A72
:10081000AD89BE89BD01882777FD8095982F5DD46D
:1008200020E030E040E250E455D320E030E040E00A
:100830005FE351D369837A838B839C839B01AC01F3
:1008400015D569877A878B879C870EEF1FEFB801D4
:10085000882777FD8095982F40D420E030E040E055
:100860005FE339D36B017C01F801EE0FFF1F2F818D
:100870003885E20FF31F84819581BC01882777FDBD
:100880008095982F2AD44B015C01A7019601C701DE
:10089000B601ECD429853A854B855C851CD39B0138
:1008A000AC01C501B401E2D46D877E878F87988B38
:1008B0001E821D82212C312CAD81BE81BD01882775
:1008C00077FD8095982F09D423EC35EF48E450E468
:1008D00001D34B015C0163D39B01AC01C501B401A1
:1008E000298B3A8B4B8B5C8B24D52B013C012989BE
:1008F0003A894B895C89C701B601B8D44B015C01C8
:10090000A301920169817A818B819C81AFD49B0183
:10091000AC01C501B401DFD24B015C0120E030E045
:10092000A901A0D487FD09C0C501B401A3D3CB019F
:1009300063E070E0BDD121010CC0C501B401905845
:1009400020E030E040E450E42DD394D393E0492EEE
:10095000512CB5E0B69F3001B79F700C1124640C88
:10096000751C660C771CF301EE5FFE4F3F01882774
:1009700077FD8095982FB1D39B01AC016D857E8565
:100980008F859889A8D24B015C01B201882777FD39
:100990008095982FA2D39B01AC01C501B4019BD2D5
:1009A00069D3D3018D919C911197860F911D67FD9D
:1009B0009A958D939C93BFEF2B1A3B0AED81FE8194
:1009C0003496FE83ED83F2E02F16310409F074CFE4
:1009D0000F5F1F4F0130110509F039CF2D893E8976
:1009E0002F5F3F4F3E8B2D8B8F8198850A9698877E
:1009F0008F832330310509F00BCF81E090E06696BC
:100A0000E2E10BC2A0E0B0E0E7E0F5E0F2C1CAE04D
:100A1000D0E002E011E0C12CD12C7601A12CB12C48
:100A2000F801EA0DFB1D60817181882777FD8095B3
:100A3000982F53D39B01AC01C701B6014CD26B0177
:100A40007C0182E0A80EB11C8AE0A816B10441F72F
:100A5000065F1F4F81E00433180701F720E030E004
:100A600048EC51E4C701B6019DD220E030E040E0FF
:100A70005FE3F8D318162CF460E070E080E89FE3A1
:100A800003C060E070E0CB012197209709F0C1CF4F
:100A9000F1D2CB01CDB7DEB7EAE0C7C114BC15BCBB
:100AA00094B5926094BD95B5982B95BD67BDEEE663
:100AB000F0E080818260808381E090E00895109270
:100AC0008000E1E8F0E0108290819860908390814E
:100AD000982B90837093890060938800EFE6F0E094
:100AE00080818260808381E090E008951092900080
:100AF000E1E9F0E010829081986090839081982BDA
:100B000090837093990060939800E1E7F0E0808112
:100B10008260808381E090E008958034910591F0B7
:100B200034F48130910561F0089791F00FC0811580
:100B300021E0920749F08115944041F485E0089541
:100B400081E0089583E0089584E0089580E00895A9
:100B500082E00895A0E0B0E0EFEAF5E04CC1EC01DE
:100B60008B017A018230910518F08330910589F567
:100B700060E87EE380E090E09801442737FD4095EF
:100B8000542FA9D0D701C9D06B017C01209741F423
:100B90008FEFC816D104E104F10441F038F019C018
:100BA000C114D10481E0E806F10498F4C801B5DF6E
:100BB000C130D10541F0C330D10541F0CD2B49F40E
:100BC0006C2D6CDF08C0B6017ADF05C0B6018EDF80
:100BD00002C08FEF9FEFCDB7DEB7E8E028C1A0E0FD
:100BE000B0E0E4EFF5E008C11092D80086DC48ECF4
:100BF00051E061E070E08DE791E0E1DA1092960259
:100C000010929702109298021092990210929A02F2
:100C100010929B0210929C0210929D0278948BE19C
:100C2000D82E02E010E0EE24E394F12CCFEFDFEFBA
:100C30002196DC9EF001DD9EF00D1124E857FE4F59
:100C4000818D928D0197A1F7F894DC9EF001DD9ED5
:100C5000F00D1124E857FE4F128F018F7894DC9E1F
:100C6000F001DD9EF00D1124E857FE4F0190F08158
:100C7000E02D0995F894DC9EF001DD9EF00D112425
:100C8000E857FE4F8789908D0196908F878B8189D9
:100C900092890197928B818B818992891816190606
:100CA0001CF4F28EE18E02C0128E118E7894BECFAB
:100CB00097FB072E16F4009406D077FD08D0DDD000
:100CC00007FC05D03EF4909581959F4F089570954F
:100CD00061957F4F0895A1E21A2EAA1BBB1BFD014F
:100CE0000DC0AA1FBB1FEE1FFF1FA217B307E4070B
:100CF000F50720F0A21BB30BE40BF50B661F771F63
:100D0000881F991F1A9469F7609570958095909542
:100D10009B01AC01BD01CF010895B7FFC2C0C1D096
:100D2000821B930B0895689401C0E8948F929F9260
:100D3000CF93DF9305D0DF91CF919F908F9008954F
:100D400088249924F401E401B0E49F93AA279A151A
:100D50008B049C04ED05FE05CF05D007A10798F490
:100D6000AD2FDC2FCF2FFE2FE92D982C892E982F19
:100D7000872F762F652F542F432F322F2227B850DD
:100D800031F7BF9127C01B2EBF91BB27220F331F06
:100D9000441F551F661F771F881F991F881C991CA9
:100DA000EE1FFF1FCC1FDD1FAA1FBB1F8A149B0451
:100DB000EC05FD05CE05DF05A007B10748F08A1850
:100DC0009B08EC09FD09CE09DF09A00BB10B2160DE
:100DD0001A94E1F62EF49401AF01BE01CD01000C8E
:100DE00008952F923F924F925F926F927F928F92CF
:100DF0009F92AF92BF92CF92DF92EF92FF920F93AA
:100E00001F93CF93DF93CDB7DEB7CA1BDB0B0FB6B3
:100E1000F894DEBF0FBECDBF09942A883988488870
:100E20005F846E847D848C849B84AA84B984C88406
:100E3000DF80EE80FD800C811B81AA81B981CE0FFD
:100E4000D11D0FB6F894DEBF0FBECDBFED010895E2
:100E50000024A7FD00942A0F301D401D501D601D69
:100E6000701D801D901D08952A153B054C055D05DC
:100E70006E057F05800791070895AA1BBB1B51E1F2
:100E800007C0AA1FBB1FA617B70710F0A61BB70BFA
:100E9000881F991F5A95A9F780959095BC01CD019F
:100EA000089509D0A59F900DB49F900DA49F800D2B
:100EB000911D11240895A29FB001B39FC001A39F6B
:100EC000700D811D1124911DB29F700D811D112483
:100ED000911D08955058BB27AA270ED078C141D143
:100EE00030F046D120F031F49F3F11F41EF436C1AA
:100EF0000EF4E095E7FB2CC1E92F8BD180F3BA17F4
:100F0000620773078407950718F071F49EF5A3C173
:100F10000EF4E0950B2EBA2FA02D0B01B901900114
:100F20000C01CA01A0011124FF27591B99F0593F58
:100F300050F4503E68F11A16F040A22F232F342FA0
:100F40004427585FF3CF469537952795A795F040EE
:100F50005395C9F77EF41F16BA0B620B730B840B03
:100F6000BAF09150A1F0FF0FBB1F661F771F881FBB
:100F7000C2F70EC0BA0F621F731F841F48F4879513
:100F800077956795B795F7959E3F08F0B3CF939502
:100F9000880F08F09927EE0F979587950895F0D060
:100FA000E39526C10CD013C1E3D040F0DAD030F085
:100FB00021F45F3F19F0CCC051114EC1CFC029D1EF
:100FC00098F39923C9F35523B1F3951B550BBB2710
:100FD000AA2762177307840738F09F5F5F4F220FBD
:100FE000331F441FAA1FA9F333D00E2E3AF0E0E8B6
:100FF00030D091505040E695001CCAF729D0FE2F02
:1010000027D0660F771F881FBB1F26173707480793
:10101000AB07B0E809F0BB0B802DBF01FF27935849
:101020005F4F2AF09E3F510568F092C015C15F3FA7
:10103000ECF3983EDCF3869577956795B795F79531
:101040009F5FC9F7880F911D9695879597F9089529
:10105000E1E0660F771F881FBB1F621773078407C5
:10106000BA0720F0621B730B840BBA0BEE1F88F7D4
:10107000E095089504D06894B111EEC00895D1D0E0
:1010800088F09F5790F0B92F9927B751A0F0D1F071
:10109000660F771F881F991F1AF0BA95C9F712C0FB
:1010A000B13081F0D8D0B1E00895D5C0672F782F46
:1010B0008827B85F39F0B93FCCF386957795679567
:1010C000B395D9F73EF490958095709561957F4FD3
:1010D0008F4F9F4F0895E89409C097FB3EF4909579
:1010E0008095709561957F4F8F4F9F4F9923A9F001
:1010F000F92F96E9BB279395F69587957795679590
:10110000B795F111F8CFFAF4BB0F11F460FF1BC0D3
:101110006F5F7F4F8F4F9F4F16C0882311F096E966
:1011200011C0772321F09EE8872F762F05C0662314
:1011300071F096E8862F70E060E02AF09A95660FCD
:10114000771F881FDAF7880F9695879597F9089586
:1011500097F99F6780E870E060E008959FEF80EC6A
:10116000089500240A94161617061806090608950D
:1011700000240A9412161306140605060895EECFED
:1011800050D0E8F3E894E0E0BB279F57F0F02AED59
:101190003FE049EC06C0EE0FBB0F661F771F881FAC
:1011A00028F0B23A62077307840728F0B25A620B3C
:1011B000730B840BE3959A9572F7803830F49A9507
:1011C000BB0F661F771F881FD2F79048DEC0092E1D
:1011D0000394000C11F4882352F0BB0F40F4BF2B92
:1011E00011F460FF04C06F5F7F4F8F4F9F4F0895D2
:1011F000EF93E0FF06C0A2EA2AED3FE049EC5FEB87
:101200007BDEE5DF0F90039401FC9058ECEAF0E000
:10121000C8C057FD9058440F551F59F05F3F71F0FB
:101220004795880F97FB991F61F09F3F79F087954D
:101230000895121613061406551FF2CF4695F1DFD6
:1012400008C0161617061806991FF1CF8695710566
:10125000610508940895E894BB2766277727CB019A
:1012600097F908956CD008F48FEF08950BD0AFCFA5
:1012700078DF28F07DDF18F0952309F069CF6ECF75
:101280001124EACFC6DFA0F3959FD1F3950F50E06C
:10129000551F629FF001729FBB27F00DB11D639F28
:1012A000AA27F00DB11DAA1F649F6627B00DA11DCE
:1012B000661F829F2227B00DA11D621F739FB00D74
:1012C000A11D621F839FA00D611D221F749F3327E4
:1012D000A00D611D231F849F600D211D822F762F7D
:1012E0006A2F11249F5750408AF0E1F088234AF07A
:1012F000EE0FFF1FBB1F661F771F881F91505040C6
:10130000A9F79E3F510570F023CFA6CF5F3FECF3C6
:10131000983EDCF3869577956795B795F795E795B1
:101320009F5FC1F7FE2B880F911D9695879597F9C2
:1013300008959F9325DF0F9007FCEE5F59CF990F1B
:101340000008550FAA0BE0E8FEEF16161706E8078F
:10135000F907C0F012161306E407F50798F0621BB0
:10136000730B840B950B39F40A2661F0232B242B85
:10137000252B21F408950A2609F4A140A6958FEFA4
:10138000811D811D08959F3F31F0915020F4879574
:1013900077956795B795880F911D9695879597F9DD
:1013A00008959F938F937F936F93FF93EF939B0188
:1013B000AC015CDFEF91FF9105D02F913F914F91F0
:1013C0005F9154CFDF93CF931F930F93FF92EF92D0
:1013D000DF927B018C01689405C0DA2EEF0152DFA9
:1013E000FE01E894A5912591359145915591AEF373
:1013F000EF0182DDFE019701A801DA9479F7DF9011
:10140000EF90FF900F911F91CF91DF910895F89485
:02141000FFCF0C
:101412000400FF00FF00FF00FF00FF00FF000000CC
:1014220000000000FF00FF000000FF000000FF00BE
:10143200FF00000000000000FF00FF00FF00FF00AF
:10144200FF00FF00240025000323002400250000E4
:101452002300270028000726002A002B0005290068
:08146200240025000023000016
:00000001FF
