:1000000055C000006EC000006CC000006AC0000057
:1000100068C0000066C0000064C0000062C000004C
:1000200060C00000DAC000005CC000005AC00000E0
:1000300058C0000056C0000054C0000052C000006C
:1000400050C0000002C200004CC000004AC00000C6
:1000500048C00000CBC1000044C0000042C0000006
:1000600040C000003EC000003CC000003AC000009C
:1000700038C0000036C0000034C0000032C00000AC
:10008000BFC100002EC000002CC000002AC000002C
:1000900028C0000026C0000024C0000022C00000CC
:1000A00020C000001EC000001CC0000011241FBEA4
:1000B000CFEFDAE0DEBFCDBF11E0A0E0B1E0E0E7D6
:1000C000F7E002C005900D92A832B107D9F721E000
:1000D000A8E2B1E001C01D92A835B207E1F77AD2DB
:1000E00045C38ECF089587E0E4E0F1E0ADE4B1E0F0
:1000F00001900D928A95E1F787E0EBE0F1E0A5E34E
:10010000B1E001900D928A95E1F782E790E090933B
:100110005701809356019093550180935401909319
:100120003D0180933C0190932D0180932C01089513
:10013000FC01A081B1814C9181E090E09C010480A0
:1001400002C0220F331F0A94E2F7209524232C9338
:10015000A281B3812C91048002C0880F991F0A9458
:10016000E2F7282B2C9380916800816080936800CF
:100170008481833029F480916B00886080936B00C8
:100180008481811105C080916B00816080936B0038
:1001900083B1897080934C0180E090E00895FC0168
:1001A0008481833061F4672B29F050935701409389
:1001B00056010895509355014093540108958111BB
:1001C0000BC0672B29F050933D0140933C010895EB
:1001D00050932D0140932C0108951F920F920FB65A
:1001E0000F921124FF920F931F932F933F934F93DE
:1001F0005F936F937F938F939F93AF93BF93EF938F
:10020000FF93CF93DF9300D000D0CDB7DEB703B11B
:10021000102F19708FE99FE00197F1F700C00000DF
:1002200083B1212F30E0897090E02817390709F059
:100230004FC0F0904C01F126F3FE3AC003FD06C01A
:10024000E0915401F0915501099532C024E030E06D
:1002500041E050E0E0914001F09141016081CA012C
:100260000090420102C0880F991F0A94E2F76827A4
:10027000608319821A821B821C8289819A81AB81D8
:10028000BC818039904DA340B10568F4000089819C
:100290009A81AB81BC810196A11DB11D89839A838E
:1002A000AB83BC83EACF215031092115310591F68A
:1002B000F0FE0CC000FD05C0E0912C01F0912D0175
:1002C00004C0E0913C01F0913D01099510934C016F
:1002D0000F900F900F900F90DF91CF91FF91EF91C2
:1002E000BF91AF919F918F917F916F915F914F914E
:1002F0003F912F911F910F91FF900F900FBE0F9084
:100300001F90189587E0E2E1F1E0A5E4B1E00190EB
:100310000D928A95E1F73F9A87E0E9E1F1E0AEE3DB
:10032000B1E001900D928A95E1F7559A87E0E0E2FD
:10033000F1E0AEE2B1E001900D928A95E1F7209AEA
:100340000895FC01A281B38134812C9181E090E079
:10035000032E01C0880F0A94EAF7672B19F4282BA3
:100360002C9303C0809582238C932FEF83EC99E02C
:10037000215080409040E1F700C00000A281B3818D
:100380002C9181E090E0048002C0880F991F0A94AC
:10039000E2F728272C932FEF83EC99E0215080403F
:1003A0009040E1F700C00000089560E070E085E44F
:1003B00091E0C7DF61E070E08EE291E0C2DF61E0D2
:1003C00070E08EE391E0BDDF60E070E085E491E0F5
:1003D000B8DF61E070E08EE291E0B3DF61E070E0F1
:1003E0008EE391E0AECF8EDFE0DF7DCE1F920F92E5
:1003F0000FB60F9211240F900FBE0F901F901895FB
:100400001F920F920FB60F9211248F939F93AF9369
:10041000BF938091280190912901A0912A01B09168
:100420002B010196A11DB11D8093280190932901F4
:10043000A0932A01B0932B01BF91AF919F918F910F
:100440000F900FBE0F901F9018951F920F920FB62E
:100450000F9211242F938F939F93EF93FF93E0912B
:100460004701F0914801208181E090E0009049012E
:1004700002C0880F991F0A94E2F728272083FF9172
:10048000EF919F918F912F910F900FBE0F901F9022
:10049000189514BC15BC94B5926094BD95B5982B75
:1004A00095BD67BDEEE6F0E080818260808381E0EB
:1004B00090E0089510928000E1E8F0E010829081D1
:1004C000986090839081982B9083709389006093BB
:1004D0008800EFE6F0E080818260808381E090E038
:1004E000089510929000E1E9F0E010829081986008
:1004F00090839081982B90837093990060939800DB
:10050000E1E7F0E080818260808381E090E00895FF
:100510008034910591F034F48130910561F00897B1
:1005200091F00FC0811521E0920749F081159440A8
:1005300041F485E0089581E0089583E0089584E022
:10054000089580E0089582E00895A0E0B0E0EAEA2E
:10055000F2E0C6C0EC018B017A018230910518F0FF
:100560008330910589F560E87EE380E090E09801B2
:10057000442737FD4095542F81D0D701A1D06B017E
:100580007C01209741F48FEFC816D104E104F104F7
:1005900041F038F019C0C114D10481E0E806F1043B
:1005A00098F4C801B5DFC130D10541F0C330D105A1
:1005B00041F0CD2B49F46C2D6CDF08C0B6017ADF19
:1005C00005C0B6018EDF02C08FEF9FEFCDB7DEB75B
:1005D000E8E0A2C0A4E0B0E0EFEEF2E087C0109245
:1005E000D80001DF8DE491E0A3DD44EF51E060E449
:1005F00070E080E090E0A9DF4AEF50E060E470E056
:1006000081E090E0A2DF41E050E060E074E083E050
:1006100090E09BDF19821A821B821C82789421E071
:1006200030E0409128015091290160912A01709198
:100630002B018091000190910101A0910201B091E4
:100640000301481759076A077B0758F310922801DE
:100650001092290110922A0110922B01E091300191
:10066000F09131014081C9010090320102C0880F30
:10067000991F0A94E2F748274083D3CFA1E21A2EAC
:10068000AA1BBB1BFD010DC0AA1FBB1FEE1FFF1F36
:10069000A217B307E407F50720F0A21BB30BE40B86
:1006A000F50B661F771F881F991F1A9469F76095CD
:1006B0007095809590959B01AC01BD01CF01089587
:1006C000B7FF3BC03AD0821B930B08952F923F9205
:1006D0004F925F926F927F928F929F92AF92BF9252
:1006E000CF92DF92EF92FF920F931F93CF93DF93FE
:1006F000CDB7DEB7CA1BDB0B0FB6F894DEBF0FBE5B
:10070000CDBF09942A88398848885F846E847D84A7
:100710008C849B84AA84B984C884DF80EE80FD80A9
:100720000C811B81AA81B981CE0FD11D0FB6F8941F
:10073000DEBF0FBECDBFED01089509D0A59F900D7E
:10074000B49F900DA49F800D911D11240895A29F28
:10075000B001B39FC001A39F700D811D1124911D95
:10076000B29F700D811D1124911D0895F894FFCF43
:10077000F4010000240025000323002400250000CC
:100780002300270028000726002A002B0005290047
:080790002400250000230000F5
:00000001FF
