:10000000AFC00000C9C00000C7C00000C5C00000EC
:10001000C3C00000C1C00000BFC00000BDC00000E0
:10002000BBC0000035C100000C9445080C941009B9
:10003000B3C00000B1C00000AFC00000ADC0000000
:10004000ABC0000016C40000A7C00000A5C000009F
:10005000A3C00000C6C200009FC000009DC00000F9
:100060009BC0000099C0000097C0000095C0000030
:1000700093C0000091C000008FC000008DC0000040
:100080008BC0000089C0000087C0000085C0000050
:1000900083C0000081C000007FC000007DC0000060
:1000A0007BC0000079C0000077C0000005A84CCDDF
:1000B000B2D44EB93836A9020C50B9918688083CA2
:1000C000A6AAAA2ABE000000803F26034C005500C5
:1000D0004600410020004400750061006C002000D3
:1000E0004300440043002000440065006D006F00A1
:1000F000000018034400650061006E00200043000A
:1001000061006D00650072006100000004030904D5
:1001100009023E00020100C032090400000102028F
:100120000100052400100104240206052406000134
:10013000070582030800FF09040100020A0000000D
:1001400007050402100005070583021000051201CF
:100150001001EF020108EB034E2001000102DC0157
:1001600011241FBECFEFDAE0DEBFCDBF11E0A0E06B
:10017000B1E0EAE0F9E202C005900D92AA3BB107B6
:10018000D9F723E0AAEBB1E001C01D92A132B2077A
:10019000E1F77DD60C94831433CF089587E0EFE424
:1001A000F1E0ADEEB1E001900D928A95E1F787E0C4
:1001B000E6E5F1E0A5EDB1E001900D928A95E1F759
:1001C0008DEC90E09093F7018093F6019093F50108
:1001D0008093F4019093DD018093DC019093CD0135
:1001E0008093CC010895FC01A081B1814C9181E004
:1001F00090E09C01048002C0220F331F0A94E2F7B2
:10020000209524232C93A281B3812C91048002C0D9
:10021000880F991F0A94E2F7282B2C93809168008D
:100220008160809368008481833029F480916B0021
:10023000886080936B008481811105C080916B0080
:10024000816080936B0083B189708093EC0180E0C2
:1002500090E00895FC018481833061F4672B29F0DC
:100260005093F7014093F60108955093F5014093A0
:10027000F401089581110BC0672B29F05093DD0123
:100280004093DC0108955093CD014093CC01089533
:100290001F920F920FB60F9211241F932F933F932B
:1002A0004F935F936F937F938F939F93AF93BF937E
:1002B000CF93DF93EF93FF9313B1D12FD9708FE9D1
:1002C0009FE00197F1F700C0000083B12D2F30E0CF
:1002D000897090E02817390709F5C091EC01CD2706
:1002E000C3FF0CC013FD05C0E091F401F091F501CE
:1002F00004C0E091F601F091F7010995C0FF0CC030
:1003000010FD05C0E091CC01F091CD0104C0E09159
:10031000DC01F091DD010995D093EC01FF91EF91A3
:10032000DF91CF91BF91AF919F918F917F916F910D
:100330005F914F913F912F911F910F900FBE0F90A2
:100340001F90189587E0EDE5F1E0A5EEB1E0019092
:100350000D928A95E1F73F9A87E0E4E6F1E0AEED91
:10036000B1E001900D928A95E1F7559A87E0EBE6AE
:10037000F1E0AEECB1E001900D928A95E1F7209AA0
:100380000895FC01A281B38134812C9181E090E039
:10039000032E01C0880F0A94EAF7672B19F4282B63
:1003A0002C9303C0809582238C932FEF83EC99E0EC
:1003B000215080409040E1F700C00000A281B3814D
:1003C0002C9181E090E0048002C0880F991F0A946C
:1003D000E2F728272C932FEF83EC99E021508040FF
:1003E0009040E1F700C00000089560E070E085EE05
:1003F00091E0C7DF61E070E08EEC91E0C2DF61E088
:1004000070E08EED91E0BDDF60E070E085EE91E0A0
:10041000B8DF61E070E08EEC91E0B3DF61E070E0A6
:100420008EED91E0AECF81E090E09093BD0180939E
:10043000BC010895F8942091060330910703409180
:1004400008035091090360910A0370910B03809196
:100450000C0390910D03789408958ED578940895A7
:10046000CF93DF93C091BA01D091BB01CA30D105BF
:10047000D9F17BE17C9FF0017D9FF00D1124E850C4
:10048000FE4F9183808353834283852F880F880B8F
:10049000DF011496448311965C93119712968C9306
:1004A000129713968C93139714968C931497159612
:1004B0008C93159716968C93169717968C93668740
:1004C000308B278781E090E0928B818B948B838B9C
:1004D000168A158A108E178A928F818F2196D09353
:1004E000BB01C093BA0102C08FEF9FEFDF91CF91A4
:1004F000089521E030E04AE050E061E070E08BE4F4
:1005000094E0AEDF22E030E04FE050E063E070E0E6
:1005100084E894E0A5DF23E030E044E150E064E0CB
:1005200070E085E794E09CDF23E030E044E150E0B8
:1005300066E070E080EE95E093DF24E030E049E192
:1005400050E062E070E087E894E08ADF24E030E089
:1005500049E150E067E070E082EA94E081DF25E065
:1005600030E04EE150E065E070E089E994E078DF4A
:1005700026E030E042E350E068E070E08BEA94E08F
:100580006FDF27E030E047E350E069E070E080E9AA
:1005900094E066DF28E030E04AEF50E06AE070E087
:1005A00083E396E05DCF0F931F9357DFCBDE1DDF14
:1005B000F5DD9FDF269A6E9A41E050E060E470E03E
:1005C00080E090E01FD400E010E020E03FE344EF43
:1005D00051E060E071E081E090E0C8D31F910F919D
:1005E00008951F920F920FB60F9211242F923F92EF
:1005F0004F925F926F927F928F929F92AF92BF9233
:10060000CF92DF92EF92FF920F931F932F933F931E
:100610004F935F936F937F938F939F93AF93BF930A
:10062000CF93DF93EF93FF9320910603309107035D
:10063000409108035091090360910A0370910B03E4
:1006400080910C0390910D03A1E00E94FA0E20937B
:100650000603309307034093080350930903609304
:100660000A0370930B0380930C0390930D03812C6A
:10067000912CF3E82F2EF1E03F2E44244394512C8B
:10068000209106033091070340910803509109031C
:1006900060910A0370910B0380910C0390910D03FC
:1006A000EBE1E89DE001E99DD00D1124C850DE4F3B
:1006B000EA81FB811F2F110F110B5F01C12ED12E7B
:1006C000E12EF12E012F0E94650EA0E00E94060F80
:1006D00009F047C0209106033091070340910803B9
:1006E0005091090360910A0370910B0380910C03F0
:1006F00090910D03EA81FB816F88788C1F2F110F79
:10070000110B5F01C12ED12EE12EF12E012F0E947F
:10071000670E5901A618B708BD86AC8688E0881612
:10072000910439F05A8E498E89899A8901969A8B5B
:10073000898B4091DE028091DC029091DD02242FB2
:10074000332727FD30953F934F939F938F933F928D
:100750002F920E94DC110F900F900F900F900F902E
:100760000F90EFEF8E1A9E0A8AE08816910409F026
:1007700087CFC091BC01D091BD01C130D10509F036
:1007800055C086EA91E00E94ED111092BD011092D1
:10079000BC0120910603309107034091080350915A
:1007A000090360910A0370910B0380910C039091EF
:1007B0000D03D093EA02C093E902C091E702D09101
:1007C000E802E7E3AE2EB12CC12CD12CE12CF12CA8
:1007D00000E010E00E94670E49018C1A9D0A909279
:1007E000DD028092DC028091E1029091E2020196AA
:1007F0009093E2028093E1024091DE028091DC025C
:100800009091DD02242F332727FD30953F934F939E
:100810009F938F9383E891E09F938F930E94DC11C5
:100820000F900F900F900F900F900F90FF91EF91FE
:10083000DF91CF91BF91AF919F918F917F916F91F8
:100840005F914F913F912F911F910F91FF90EF90EA
:10085000DF90CF90BF90AF909F908F907F906F90E0
:100860005F904F903F902F900F900FBE0F901F9072
:1008700018951F920F920FB60F9211248F939F938A
:1008800085B190E4892785B99F918F910F900FBE14
:100890000F901F901895CF93DF9349E150E061E0EE
:1008A00070E082E091E020E030E0FC01E20FF31F15
:1008B000A081B181EB01CA1BDB0BD183C0832E5F0A
:1008C0003F4F2A30310589F70A96D1E084339D07DE
:1008D00051F7415051094115510519F78091020115
:1008E00090910301DF91CF9108958FE99FE00197E7
:1008F000F1F700C000008FE99FE00197F1F700C019
:10090000000081E090E0089580E090E008958FE994
:100910009FE00197F1F700C0000081E090E00895AA
:100920008FE99FE00197F1F700C0000081E090E0BF
:1009300008958FE39FE10197F1F700C0000082E086
:1009400090E008958FED9EE20197F1F700C000005E
:1009500083E090E00895A6E1B0E0E1EBF4E00C94D0
:10096000C30E80910001909101010196853091059F
:100970003CF4909301018093000180E090E01CC161
:10098000109201011092000122E031E038872F839C
:100990001E8A1D8AAD89BE89BD01882777FD809595
:1009A000982F0E94421020E030E040E250E40E9484
:1009B0003F0F20E030E040E05FE30E94400F69839A
:1009C0007A838B839C839B01AC010E940B11698706
:1009D0007A878B879C870EEF1FEFB801882777FDFA
:1009E0008095982F0E94421020E030E040E05FE3C5
:1009F0000E94400F6B017C01F801EE0FFF1F2F8159
:100A00003885E20FF31F84819581BC01882777FD2B
:100A10008095982F0E9442104B015C01A70196011E
:100A2000C701B6010E940B1129853A854B855C856B
:100A30000E94400F9B01AC01C501B4010E940B1143
:100A40006D877E878F87988B1E821D82212C312C8B
:100A5000AD81BE81BD01882777FD8095982F0E94CA
:100A6000421023EC35EF48E450E40E943F0F4B0165
:100A70005C010E94A40F9B01AC01C501B401298B4C
:100A80003A8B4B8B5C8B0E946E112B013C012989A8
:100A90003A894B895C89C701B6010E940B114B0151
:100AA0005C01A301920169817A818B819C810E9402
:100AB0000B119B01AC01C501B4010E94400F4B0119
:100AC0005C0120E030E0A9010E94071187FD0BC006
:100AD000C501B4010E940F10CB0163E070E00E94D9
:100AE0002A0E21010EC0C501B401905820E030E06B
:100AF00040E450E40E94A70F0E940F1093E0492E9B
:100B0000512CB5E0B69F3001B79F700C1124640CD6
:100B1000751C660C771CF301EE5FFE4F3F018827C2
:100B200077FD8095982F0E9442109B01AC016D8546
:100B30007E858F8598890E94400F4B015C01B20130
:100B4000882777FD8095982F0E9442109B01AC0169
:100B5000C501B4010E94400F0E940F10D3018D9176
:100B60009C911197860F911D67FD9A958D939C938B
:100B7000BFEF2B1A3B0AED81FE813496FE83ED8395
:100B8000F2E02F16310409F063CF0F5F1F4F0130E1
:100B9000110509F022CF2D893E892F5F3F4F3E8BF3
:100BA0002D8B8F8198850A9698878F832330310506
:100BB00009F0F0CE81E090E06696E2E10C94DF0E61
:100BC000A0E0B0E0E6EEF5E00C94CB0ECAE0D0E099
:100BD00002E011E0C12CD12C7601A12CB12CF8013E
:100BE000EA0DFB1D60817181882777FD8095982F24
:100BF0000E9442109B01AC01C701B6010E94400F48
:100C00006B017C0182E0A80EB11C8AE0A816B10439
:100C100031F7065F1F4F81E004331807F1F620E03B
:100C200030E048EC51E4C701B6010E94A70F20E074
:100C300030E040E05FE30E94071118162CF460E0FA
:100C400070E080E89FE303C060E070E0CB01219793
:100C5000209709F0BDCF0E940F10CB01CDB7DEB7B2
:100C6000EAE00C94E70E8EB190E489278EB981E01A
:100C700090E0089514BC15BC94B5926094BD95B5F0
:100C8000982B95BD67BDEEE6F0E0808182608083A1
:100C900081E090E0089510928000E1E8F0E0108299
:100CA0009081986090839081982B908370938900B5
:100CB00060938800EFE6F0E080818260808381E0CD
:100CC00090E0089510929000E1E9F0E010829081A8
:100CD000986090839081982B908370939900609393
:100CE0009800E1E7F0E080818260808381E090E01D
:100CF0000895A0E8B0E01C92E1E8F0E010829C9139
:100D000090629C939C9192609C939081906190835F
:100D10009081986090839081982B908370938B0042
:100D200060938A00309387002093860081E090E0F2
:100D300008958034910591F034F48130910561F08B
:100D4000089791F00FC0811521E0920749F08115B5
:100D5000944041F485E0089581E0089583E008958A
:100D600084E0089580E0089582E00895A0E0B0E076
:100D7000ECEBF6E00C94C30EEC011B015A01680188
:100D800079018230910518F083309105A9F560E86A
:100D90007EE380E090E09101442737FD4095542F99
:100DA0006CD7D5018CD72B013C010E9440109B01D0
:100DB000AC01C701B6010E940B110E9414104B0137
:100DC0005C01209741F48FEF88169104A104B104CF
:100DD00041F038F011C08114910481E0A806B104FB
:100DE00058F4C101A6DF219739F487017601A301E8
:100DF0009201B4017EDF02C08FEF9FEFCDB7DEB767
:100E0000E2E1DDC7A0E0B0E0E7E0F7E0C6C7EC0153
:100E10008B017A018230910518F08330910589F5B4
:100E200060E87EE380E090E09801442737FD40953C
:100E3000542F23D7D70143D76B017C01209741F46E
:100E40008FEFC816D104E104F10441F038F019C065
:100E5000C114D10481E0E806F10498F4C80169DF07
:100E6000C130D10541F0C330D10541F0CD2B49F45B
:100E70006C2D00DF08C0B6010EDF05C0B60122DF11
:100E800002C08FEF9FEFCDB7DEB7E8E0A2C7A0E0CA
:100E9000B0E0ECE4F7E082C71092D80084DB8DEE7E
:100EA00091E0A1D943E152E061E070E08DEE91E084
:100EB000D1D91092060310920703109208031092E2
:100EC000090310920A0310920B0310920C03109264
:100ED0000D0378948BE1D82E02E010E0EE24E39429
:100EE000F12C46D0CFEFDFEF2196DC9EF001DD9EA6
:100EF000F00D1124E850FE4F818D928D0197A1F7DE
:100F000082E791E00E94ED11F894DC9EF001DD9EF5
:100F1000F00D1124E850FE4F128F018F7894DC9E63
:100F2000F001DD9EF00D1124E850FE4F0190F0819C
:100F3000E02D0995F894DC9EF001DD9EF00D112462
:100F4000E850FE4F8789908D0196908F878B81891D
:100F500092890197928B818B818992891816190643
:100F60001CF4F28EE18E02C0128E118E7894B9CFED
:100F700084E391E093D3EAC284B7877F84BF88E19A
:100F80000FB6F89480936000109260000FBE90E05E
:100F900080E80FB6F89480936100909361000FBED3
:100FA00057D06EEB71E084E391E0CCD3EBE1F3E05A
:100FB0008EEB91E0938382839183808308950895DB
:100FC000089584E391E0DCC284E391E0CFC3089507
:100FD0000F931F93CF93DF934BD052D0C8EDD0E047
:100FE00088818F77888388818068888388818F7DD6
:100FF000888319BC1092120310920E0310921003F2
:1010000010920F0300EE10E0F80180818B7F808347
:1010100088818160888342E060E080E04DD5E1EE28
:10102000F0E080818E7F8083E2EEF0E0808181605D
:101030008083808188608083F80180818E7F8083B7
:10104000888180618883DF91CF911F910F910895EE
:10105000E8EDF0E080818F7E8083E7EDF0E0808135
:101060008160808384E082BF81E080931103B0CFF0
:10107000E8EDF0E080818E7F80831092E200089599
:101080001092DA001092E10008951F920F920FB6AD
:101090000F9211242F933F934F935F936F937F93FE
:1010A0008F939F93AF93BF93EF93FF938091E10052
:1010B00082FF0AC08091E20082FF06C08091E100B9
:1010C0008B7F8093E10041D28091DA0080FF1DC0C8
:1010D0008091D80080FF19C08091DA008E7F8093C4
:1010E000DA008091D90080FF0CC080E189BD82E1E7
:1010F00089BD09B400FEFDCF81E0809312035FDF5C
:1011000004C019BC109212035BDF8091E10080FFE4
:1011100018C08091E20080FF14C08091E2008E7FB1
:101120008093E2008091E20080618093E2008091F0
:10113000D80080628093D80019BC85E080931203A8
:1011400004D28091E10084FF2FC08091E20084FFEF
:101150002BC080E189BD82E189BD09B400FEFDCFCD
:101160008091D8008F7D8093D8008091E1008F7EA0
:101170008093E1008091E2008F7E8093E200809175
:10118000E20081608093E20080910E03882311F0D9
:1011900084E007C08091E30087FD02C081E001C0C8
:1011A00083E080931203D1D18091E10083FF27C0B7
:1011B0008091E20083FF23C08091E100877F8093CC
:1011C000E10082E08093120310920E038091E1000F
:1011D0008E7F8093E1008091E2008E7F8093E20019
:1011E0008091E20080618093E20042E060E080E074
:1011F00063D48091F00088608093F000A6D1FF91C5
:10120000EF91BF91AF919F918F917F916F915F917E
:101210004F913F912F910F900FBE0F901F901895F7
:101220001F920F920FB60F9211242F933F934F935B
:101230005F936F937F938F939F93AF93BF93CF935E
:10124000DF93EF93FF93C091E900CF708091EC00A2
:10125000D82FD17080FDD0E81092E9008091F00085
:10126000877F8093F00078941ED01092E9008091DF
:10127000F00088608093F000CD2BCF70C093E90020
:10128000FF91EF91DF91CF91BF91AF919F918F919E
:101290007F916F915F914F913F912F910F900FBE72
:1012A0000F901F9018951F93CF93DF93CDB7DEB7A4
:1012B000AA970FB6F894DEBF0FBECDBFE3E1F3E00F
:1012C00088E08E0F9091F10091938E13FBCF7CDE1E
:1012D0008091E80083FF21C1809113039091140352
:1012E000953009F478C030F4913081F168F0933092
:1012F00069F113C1983009F4E2C0993009F4F1C0E2
:10130000963009F00AC189C0803881F0823809F02E
:1013100004C1809117038F708093E9008091EB00E6
:1013200085FB882780F91092E90006C080910F03A1
:1013300090911003911182609091E800977F9093B3
:10134000E8008093F1001092F100C4C0282F2D7F97
:1013500009F0E3C0882319F0823061F0DEC080918B
:101360001503813009F0D9C0933009F080E08093F3
:1013700010032BC080911503811127C080911703A2
:101380008F7009F4CAC08093E9002091EB0020FF20
:101390001CC0933021F48091EB00806214C09091C6
:1013A000EB0090619093EB0021E030E0A90102C0D6
:1013B000440F551F8A95E2F74093EA001092EA0025
:1013C0008091EB0088608093EB001092E90080919F
:1013D000E800877F82C08111A0C0109115031F779C
:1013E0008091E3008078812B8093E3008091E80076
:1013F000877F8093E800DDD38091E80080FFFCCFF9
:101400008091E30080688093E300111102C082E0C4
:1014100001C083E08093120380C08058823008F0BE
:101420007CC080911503909116038C3D53E0950785
:1014300071F583E08A838AE289834FB7F894DE01ED
:10144000139620E03EE051E2E32FF0E05093570086
:10145000E49120FF03C0E295EF703F5FEF708E2FA5
:1014600090E0EA3010F0C79601C0C0968D939D932E
:101470002F5F243149F74FBF8091E800877F809329
:10148000E8006AE270E0CE01019652D212C0AE01CD
:101490004F5F5F4F6091170319D2BC01892B09F48C
:1014A0003CC09091E800977F9093E80089819A81F1
:1014B000A2D28091E8008B778093E8002EC080381C
:1014C00061F58091E800877F8093E80080910E03AA
:1014D0008093F1008091E8008E778093E80069D3D3
:1014E0001CC081111AC0909115039230B0F4809104
:1014F000E800877F8093E80090930E035AD3809191
:101500000E03811106C08091E30087FD02C081E0D7
:1015100001C084E08093120354DD8091E80083FFD2
:101520000AC08091E800877F8093E8008091EB00FB
:1015300080628093EB00AA960FB6F894DEBF0FBED0
:10154000CDBFDF91CF911F9108950895CF938091E2
:101550001203882399F0C091E900CF709091EC00BC
:10156000892F817090FD80E8C82B1092E90080914E
:10157000E80083FD98DECF70C093E900CF91089515
:10158000CF93DF93EC01FC0170968BE0DF011D929D
:101590008A95E9F782E08C83898783E08E8761E012
:1015A000CE010196BED2882361F061E0CE0106969D
:1015B000B8D2882331F061E0CE010B96DF91CF9154
:1015C000B0C280E0DF91CF9108950F931F93CF9326
:1015D000209112032430F9F4FC010489158926892D
:1015E0003789012B022B032BB1F0C62F81818F701D
:1015F0008093E9008091E80085FF04C0C093F1006A
:1016000080E00AC08091E8008E778093E800F0D2F5
:101610008823A1F301C082E0CF911F910F9108951B
:10162000FB01682F84859585D0DF21E030E08111B2
:1016300002C020E030E088279927821B930B089591
:1016400020911203243041F5FC01448955896689B3
:101650007789452B462B472BF9F081818F7080933A
:10166000E9002091F3008091F20090E0922B892B09
:1016700089F09091E8008091E8008E778093E800EF
:1016800095FD08C0B5D2811108C08091E8008E7721
:101690008093E80080E0089582E00895209112038D
:1016A000243089F4FC014489558966897789452B62
:1016B000462B472B41F021812F702093E900209188
:1016C000E80020FDBDCF089520911203243019F0C9
:1016D0008FEF9FEF0895FC014489558966897789CA
:1016E000452B462B472BA1F386818F708093E90011
:1016F0008091E80082FFECCF2091F3008091F2000E
:1017000090E0922B892B21F02091F10030E002C073
:101710002FEF3FEF4091F3008091F20090E0942B87
:10172000892B29F48091E8008B778093E800C90128
:101730000895FC0184859585C7DF97FF02C08EEF71
:101740009FEF0895FB012EE0DB011D922A95E9F73A
:1017500023E0238320E13BE03187208729E93BE038
:10176000338722879587848708950895CF93DF93E1
:10177000EC018091E80083FFA6C0888190E0209171
:101780001703309118032817390709F09CC080917E
:101790001403813261F020F4803209F43EC093C01A
:1017A000823209F46CC0833209F47DC08CC0809110
:1017B0001303813A09F087C08091E800877F809306
:1017C000E8008091E80080FFFCCF8C899D89AE897C
:1017D000BF898093F100492F5A2F6B2F77274093B1
:1017E000F100AD01662777274093F1008B2F9927F1
:1017F000AA27BB278093F100888D8093F100898D03
:101800008093F1008A8D8093F1008091E8008E77BB
:101810008093E800DF91CF91CCC180911303813296
:1018200009F051C08091E800877F8093E8008091A3
:10183000E80082FD05C0809112038111F8CF43C0FA
:101840003091F1002091F1009091F1008091F10030
:101850003C8B2D8B9E8B8F8B8091F100888F80919C
:10186000F100898F8091F1008A8F8091E8008B7759
:101870008093E8009ED1CE01DF91CF9176CF809109
:101880001303813201F58091E800877F8093E8009F
:1018900090D18091150390911603998B888BCE017E
:1018A000DF91CF9194CB80911303813261F48091C9
:1018B000E800877F8093E8007CD160911503CE011A
:1018C000DF91CF9152CFDF91CF910895292F332708
:1018D0002230310559F02330310569F021303105CE
:1018E000F9F482E190E02EE431E01EC08EE390E056
:1018F00020E131E019C099278130910541F0823013
:10190000910541F0892B61F4ECE0F1E005C0E2EFD4
:10191000F0E002C0EAECF0E0849190E09F0104C0A6
:1019200080E090E020E030E0FA01318320830895E8
:101930002091190330911A032617370748F06115D3
:10194000710539F42091E8002E772093E80001C05A
:10195000B90140E061157105A9F12091120322231C
:1019600009F443C0253009F442C02091E80023FD6A
:1019700040C02091E80022FD32C02091E80020FF05
:10198000E9CF4091F3002091F20030E0342BFC01CC
:10199000CF016115710559F02830310540F481916E
:1019A0008093F100615071092F5F3F4FF1CF41E00B
:1019B0002830310509F040E02091E8002E7720938F
:1019C000E800C8CF4111C9CF0AC080911203882313
:1019D00061F0853061F08091E80083FD0AC080915C
:1019E000E80082FFF2CF80E0089582E0089583E06E
:1019F000089581E008952091190330911A03261764
:101A0000370748F06115710539F42091E8002E7709
:101A10002093E80001C0B901FC0120E061157105C7
:101A200091F180911203882309F440C0853009F4B4
:101A30003FC08091E80083FD3DC08091E80082FDB9
:101A40002FC08091E80080FFE9CF2091F3008091C2
:101A5000F20090E0922B6115710559F088309105E4
:101A600040F424912093F100319661507109019660
:101A7000F2CF21E0089709F020E08091E8008E770E
:101A80008093E800CBCF2111CCCF0AC08091120304
:101A9000882361F0853061F08091E80083FD0AC001
:101AA0008091E80082FFF2CF80E0089582E00895FF
:101AB00083E0089581E00895982F973058F590932A
:101AC000E900981739F07091EC002091ED005091E9
:101AD000F00003C0242F762F50E021FF19C0309171
:101AE000EB003E7F3093EB003091ED003D7F309373
:101AF000ED003091EB0031603093EB007093EC001F
:101B00002093ED005093F0002091EE0027FF07C0D6
:101B10009F5FD3CF8F708093E90081E0089580E0CC
:101B20000895EF92FF920F931F93CF93DF93E62ECA
:101B3000EC018C010C5F1F4FF12CFE1491F15881C8
:101B4000552351F1F801208169817A813197908183
:101B5000852F8F70873010F080E024C0223010F481
:101B600042E001C046E0E8E0F0E020E0E617F707D9
:101B700020F42F5FEE0FFF1FF9CF2295207F422B1D
:101B8000F0E49F9F90011124551F5527551F652F85
:101B9000622B92DF882301F3F39425960B5F1F4F8E
:101BA000CCCF81E0DF91CF911F910F91FF90EF900B
:101BB00008958091130387FF11C08091E80082FD92
:101BC00005C0809112038111F8CF11C08091E80007
:101BD0008B770BC080911203882349F08091E80035
:101BE00080FFF8CF8091E8008E778093E800089519
:101BF0002091E4003091E50095E64091EC00842FBF
:101C0000817040FF22C08091E80080FD1CC080915F
:101C10001203882391F0853091F08091EB0085FDCF
:101C200010C04091E4005091E5004217530729F39A
:101C30009A01915011F784E0089582E0089583E0BD
:101C4000089581E0089580E008954091E80042FF02
:101C5000DECF089597FB072E16F4009406D077FD8B
:101C600008D0E0D007FC05D03EF4909581959F4FB9
:101C70000895709561957F4F0895A1E21A2EAA1BD1
:101C8000BB1BFD010DC0AA1FBB1FEE1FFF1FA2172C
:101C9000B307E407F50720F0A21BB30BE40BF50B29
:101CA000661F771F881F991F1A9469F760957095B2
:101CB000809590959B01AC01BD01CF010895B7FFC0
:101CC000C5C0C4D0821B930B0895689401C0E894EA
:101CD0008F929F92CF93DF9305D0DF91CF919F900A
:101CE0008F90089588249924F401E401B0E49F932F
:101CF000AA279A158B049C04ED05FE05CF05D00795
:101D0000A10798F4AD2FDC2FCF2FFE2FE92D982CB3
:101D1000892E982F872F762F652F542F432F322F00
:101D20002227B85031F7BF9127C01B2EBF91BB2788
:101D3000220F331F441F551F661F771F881F991FCF
:101D4000881C991CEE1FFF1FCC1FDD1FAA1FBB1F85
:101D50008A149B04EC05FD05CE05DF05A007B1073D
:101D600048F08A189B08EC09FD09CE09DF09A00B91
:101D7000B10B21601A94E1F62EF49401AF01BE017B
:101D8000CD01000C08952F923F924F925F926F9277
:101D90007F928F929F92AF92BF92CF92DF92EF92FB
:101DA000FF920F931F93CF93DF93CDB7DEB7CA1B7C
:101DB000DB0B0FB6F894DEBF0FBECDBF09942A88A7
:101DC000398848885F846E847D848C849B84AA844F
:101DD000B984C884DF80EE80FD800C811B81AA81DC
:101DE000B981CE0FD11D0FB6F894DEBF0FBECDBFA7
:101DF000ED0108950024A7FD00942A0F301D401D19
:101E0000501D601D701D801D901D08950024A7FDAC
:101E100000942A17300540055005600570058005BF
:101E200090050895AA1BBB1B51E107C0AA1FBB1F49
:101E3000A617B70710F0A61BB70B881F991F5A9556
:101E4000A9F780959095BC01CD01089509D0A59F73
:101E5000900DB49F900DA49F800D911D11240895A5
:101E6000A29FB001B39FC001A39F700D811D1124DB
:101E7000911DB29F700D811D1124911D0895505820
:101E8000BB27AA270ED078C141D130F046D120F02F
:101E900031F49F3F11F41EF436C10EF4E095E7FBD8
:101EA0002CC1E92F8BD180F3BA176207730784071F
:101EB000950718F071F49EF5A3C10EF4E0950B2E72
:101EC000BA2FA02D0B01B90190010C01CA01A0018C
:101ED0001124FF27591B99F0593F50F4503E68F1E7
:101EE0001A16F040A22F232F342F4427585FF3CF28
:101EF000469537952795A795F0405395C9F77EF4F9
:101F00001F16BA0B620B730B840BBAF09150A1F041
:101F1000FF0FBB1F661F771F881FC2F70EC0BA0FC7
:101F2000621F731F841F48F4879577956795B7954F
:101F3000F7959E3F08F0B3CF9395880F08F0992747
:101F4000EE0F979587950895F0D0E39526C10CD0B4
:101F500013C1E3D040F0DAD030F021F45F3F19F044
:101F6000CCC051114EC1CFC029D198F39923C9F3E8
:101F70005523B1F3951B550BBB27AA27621773078F
:101F8000840738F09F5F5F4F220F331F441FAA1F43
:101F9000A9F333D00E2E3AF0E0E830D09150504003
:101FA000E695001CCAF729D0FE2F27D0660F771FB1
:101FB000881FBB1F261737074807AB07B0E809F093
:101FC000BB0B802DBF01FF2793585F4F2AF09E3F28
:101FD000510568F092C015C15F3FECF3983EDCF309
:101FE000869577956795B795F7959F5FC9F7880FA1
:101FF000911D9695879597F90895E1E0660F771FF3
:10200000881FBB1F621773078407BA0720F0621B83
:10201000730B840BBA0BEE1F88F7E095089504D07C
:102020006894B111EEC00895D1D088F09F5790F018
:10203000B92F9927B751A0F0D1F0660F771F881FED
:10204000991F1AF0BA95C9F712C0B13081F0D8D0F3
:10205000B1E00895D5C0672F782F8827B85F39F091
:10206000B93FCCF3869577956795B395D9F73EF44C
:1020700090958095709561957F4F8F4F9F4F0895F4
:10208000E89409C097FB3EF4909580957095619512
:102090007F4F8F4F9F4F9923A9F0F92F96E9BB27C8
:1020A0009395F695879577956795B795F111F8CF44
:1020B000FAF4BB0F11F460FF1BC06F5F7F4F8F4FAF
:1020C0009F4F16C0882311F096E911C0772321F0A5
:1020D0009EE8872F762F05C0662371F096E8862F3D
:1020E00070E060E02AF09A95660F771F881FDAF794
:1020F000880F9695879597F9089597F99F6780E8D7
:1021000070E060E008959FEF80EC089500240A9449
:102110001616170618060906089500240A941216C2
:102120001306140605060895EECF50D0E8F3E894A0
:10213000E0E0BB279F57F0F02AED3FE049EC06C0F6
:10214000EE0FBB0F661F771F881F28F0B23A620799
:102150007307840728F0B25A620B730B840BE39564
:102160009A9572F7803830F49A95BB0F661F771FE7
:10217000881FD2F79048DEC0092E0394000C11F49A
:10218000882352F0BB0F40F4BF2B11F460FF04C052
:102190006F5F7F4F8F4F9F4F0895EF93E0FF06C013
:1021A000A2EA2AED3FE049EC5FEB7BDEE5DF0F9032
:1021B000039401FC9058ECEAF0E0C8C057FD905839
:1021C000440F551F59F05F3F71F04795880F97FBFB
:1021D000991F61F09F3F79F08795089512161306B5
:1021E0001406551FF2CF4695F1DF08C016161706E4
:1021F0001806991FF1CF8695710561050894089519
:10220000E894BB2766277727CB0197F908956CD010
:1022100008F48FEF08950BD0AFCF78DF28F07DDF83
:1022200018F0952309F069CF6ECF1124EACFC6DFED
:10223000A0F3959FD1F3950F50E0551F629FF001D9
:10224000729FBB27F00DB11D639FAA27F00DB11D32
:10225000AA1F649F6627B00DA11D661F829F2227BB
:10226000B00DA11D621F739FB00DA11D621F839F42
:10227000A00D611D221F749F3327A00D611D231F18
:10228000849F600D211D822F762F6A2F11249F5766
:1022900050408AF0E1F088234AF0EE0FFF1FBB1F89
:1022A000661F771F881F91505040A9F79E3F510528
:1022B00070F023CFA6CF5F3FECF3983EDCF386951A
:1022C00077956795B795F795E7959F5FC1F7FE2BD3
:1022D000880F911D9695879597F908959F9325DF0F
:1022E0000F9007FCEE5F59CF990F0008550FAA0B0E
:1022F000E0E8FEEF16161706E807F907C0F0121619
:102300001306E407F50798F0621B730B840B950B1B
:1023100039F40A2661F0232B242B252B21F4089570
:102320000A2609F4A140A6958FEF811D811D08950D
:102330009F3F31F0915020F4879577956795B79539
:10234000880F911D9695879597F908959F938F9380
:102350007F936F93FF93EF939B01AC015CDFEF9151
:10236000FF9105D02F913F914F915F9154CFDF9313
:10237000CF931F930F93FF92EF92DF927B018C011B
:10238000689405C0DA2EEF0152DFFE01E894A591B2
:102390002591359145915591AEF3EF0182DDFE0116
:1023A0009701A801DA9479F7DF90EF90FF900F91F1
:1023B0001F91CF91DF910895A0E0B0E0E1EEF1E14F
:1023C000F2CCFE01359661917191AF0180911D03B0
:1023D00090911E032FD0E2E002CD0F931F93CF9375
:1023E000DF93E0911D03F0911E03238121FF1BC0A9
:1023F000EC0100E010E0899160911D0370911E03D3
:10240000DB011896ED91FC911997882331F009951D
:10241000892B89F30FEF1FEFEECF8AE00995892B07
:1024200011F4C80102C08FEF9FEFDF91CF911F9190
:102430000F910895ACE0B0E0EFE1F2E1A4CC7C01B3
:102440006B018A01FC0117821682838181FFB0C172
:10245000CE0101964C01F7019381F60193FD859120
:1024600093FF81916F01882309F49EC1853239F46D
:1024700093FD859193FF81916F01853221F4B7011E
:1024800090E0B1D1E8CF512C312C20E02032A0F4E3
:102490008B3269F030F4803259F0833269F4206174
:1024A0002CC08D3239F0803339F4216026C022608F
:1024B000246023C0286021C027FD27C030ED380FDD
:1024C0003A3078F426FF06C0FAE05F9E300D112402
:1024D000532E13C08AE0389E300D1124332E206213
:1024E0000CC08E3221F426FD5FC1206406C08C36FC
:1024F00011F4206802C0883641F4F60193FD8591FD
:1025000093FF81916F018111C1CF982F9F7D9554C9
:10251000933028F40C5F1F4FFFE3F9830DC083361F
:1025200031F0833771F0833509F057C021C0F801CD
:10253000808189830E5F1F4F44244394512C5401A2
:1025400014C03801F2E06F0E711CF801A080B18058
:1025500026FF03C0652D70E002C06FEF7FEFC5015D
:102560002C8736D12C0183012C852F77222E16C083
:102570003801F2E06F0E711CF801A080B18026FFD7
:1025800003C0652D70E002C06FEF7FEFC5012C879F
:1025900014D12C012C852068222E830123FC19C024
:1025A000832D90E048165906A0F4B70180E290E030
:1025B0001AD13A94F5CFF50127FC859127FE819138
:1025C0005F01B70190E00FD131103A94F1E04F1A5A
:1025D00051084114510479F7DEC0843611F0893670
:1025E00031F5F80127FF07C06081718182819381F5
:1025F0000C5F1F4F08C060817181882777FD80952F
:10260000982F0E5F1F4F2F76B22E97FF09C090951F
:102610008095709561957F4F8F4F9F4F2068B22EA8
:102620002AE030E0A40111D1A82EA81843C08537B4
:1026300029F42F7EB22E2AE030E025C0F22FF97F58
:10264000BF2E8F36C1F018F4883579F0ADC08037D1
:1026500019F0883721F0A8C02F2F2061B22EB4FEC8
:102660000DC08B2D8460B82E09C024FF0AC09F2F97
:102670009660B92E06C028E030E005C020E130E0C9
:1026800002C020E132E0F801B7FE07C0608171812D
:10269000828193810C5F1F4F06C06081718180E051
:1026A00090E00E5F1F4FA401D0D0A82EA818FB2DDC
:1026B000FF77BF2EB6FE0BC02B2D2E7FA51450F436
:1026C000B4FE0AC0B2FC08C02B2D2E7E05C07A2CA9
:1026D0002B2D03C07A2C01C0752C24FF0DC0FE01E8
:1026E000EA0DF11D8081803311F4297E09C022FF9B
:1026F00006C07394739404C0822F867809F0739493
:1027000023FD12C020FF06C05A2C731418F4530C7A
:102710005718732C731460F4B70180E290E02C8793
:1027200062D073942C85F6CF731410F4371801C05F
:10273000312C24FF11C0B70180E390E02C8753D0E7
:102740002C8522FF16C021FF03C088E590E002C05F
:1027500088E790E0B7010CC0822F867851F021FD08
:1027600002C080E201C08BE227FD8DE2B70190E05C
:102770003AD0A51430F4B70180E390E034D05A94F5
:10278000F8CFAA94F401EA0DF11D8081B70190E021
:102790002AD0A110F6CF332009F45DCEB70180E234
:1027A00090E021D03A94F7CFF7018681978102C05B
:1027B0008FEF9FEF2C96E2E102CBFC010590615078
:1027C00070400110D8F7809590958E0F9F1F089547
:1027D000FC016150704001900110D8F780959095F0
:1027E0008E0F9F1F08950F931F93CF93DF93182F82
:1027F000092FEB018B8181FD03C08FEF9FEF20C07C
:1028000082FF10C04E815F812C813D8142175307AA
:102810007CF4E881F9819F012F5F3F4F3983288342
:10282000108306C0E885F985812F0995892B29F742
:102830002E813F812F5F3F4F3F832E83812F902F2B
:10284000DF91CF911F910F910895FA01AA272830A7
:1028500051F1203181F1E8946F936E7F6E5F7F4F6D
:102860008F4F9F4FAF4FB1E03ED0B4E03CD0670FE9
:10287000781F891F9A1FA11D680F791F8A1F911D3C
:10288000A11D6A0F711D811D911DA11D20D009F48C
:1028900068943F912AE0269F11243019305D3193CE
:1028A000DEF6CF010895462F4770405D4193B3E0B7
:1028B0000FD0C9F7F6CF462F4F70405D4A3318F05E
:1028C000495D31FD4052419302D0A9F7EACFB4E00F
:1028D000A6959795879577956795BA95C9F70097C7
:1028E0006105710508959B01AC010A2E0694579568
:1028F000479537952795BA95C9F7620F731F841FBF
:0A290000951FA01D0895F894FFCF65
:10290A000400FF00FF00FF00FF00FF00FF000000BF
:10291A0000000000FF00FF000000FF000000FF00B1
:10292A00FF00000000000000FF00FF00FF00FF00A2
:10293A00FF00FF0000831000000104100000018264
:10294A000800000100000000000000000000002450
:10295A000025000323002400250000230027002867
:10296A00000726002A002B00052900240025000064
:10297A0023006D61646520697420746F207265613B
:10298A006479006D697373656420646561646C6958
:10299A006E65202564206F66207461736B206E75E6
:1029AA006D2025640A006D61646520697420746F66
:0A29BA002072656C65617365000012
:00000001FF
