:100000002CC1000047C1000045C1000043C10000F1
:1000100041C100003FC100003DC100003BC10000E4
:1000200039C10000CDC100000C94B4100C947F11B4
:1000300031C100002FC100002DC100002BC1000004
:1000400029C100000C94BA0925C1000023C1000099
:1000500021C100000C9479081DC100001BC10000E3
:1000600019C100000C94E90A15C1000013C1000079
:1000700011C100000FC100000DC100000BC1000044
:100080000C944B0A07C1000005C1000003C1000029
:1000900001C10000FFC00000FDC00000FBC0000067
:1000A000F9C00000F7C00000F5C0000005A84CCD65
:1000B000B2D44EB93836A9020C50B9918688083CA2
:1000C000A6AAAA2ABE000000803F07634236B79B5B
:1000D000D8A71A39685618AEBAAB558C1D3CB7CCA8
:1000E0005763BD6DEDFD753EF6177231BF00000020
:1000F000803F08000000BE922449123EABAAAA2A03
:10010000BECDCCCC4C3E00000080BEABAAAAAA3E1D
:1001100000000000BF000000803F00000000000859
:100120004178D3BB4387D1133D190E3CC3BD4282F6
:10013000AD2B3E68EC8276BED98FE1A93E4C80EFB4
:10014000FFBE01C4FF7F3F0000000000504E4B4542
:100150003F3D4450544B44414D504D48474D544D04
:100160004A4F504A5E52515B574489684E51544F32
:100170002829282422221C282F2A25262327272421
:10018000282E272222282D2C2F252532312259389E
:1001900021242B28151514100D0D09151B161011EF
:1001A0000C100F0C0F170C07060C13110F0406127E
:1001B0001304351400020A0826034C0055004600BB
:1001C000410020004400750061006C0020004300E5
:1001D000440043002000440065006D006F000000F3
:1001E00018034400650061006E00200043006100B8
:1001F0006D0065007200610000000403090409023B
:100200003E00020100C032090400000102020100A8
:100210000524001001042402060524060001070538
:1002200082030800FF09040100020A00000007051C
:1002300004021000050705830210000512011001D9
:10024000EF020108EB034E2001000102DC016364B0
:10025000696E6F70737578585B0011241FBECFEF05
:10026000DAE0DEBFCDBF13E0A0E0B1E0E4E7F3E405
:1002700002C005900D92AC3EB107D9F728E0ACEE74
:10028000B3E001C01D92A53FB207E1F70E94640FE1
:100290000C94B821B5CE80E480937C0087E88093ED
:1002A0007A00EBE7F0E0808180628083089580919E
:1002B0007A00806480937A0080917A0086FDFCCF7A
:1002C00080917800909179000895089587E0EFE497
:1002D000F1E0AFE3B8E001900D928A95E1F787E095
:1002E000E6E5F1E0A7E2B8E001900D928A95E1F72A
:1002F00085E691E0909349088093480890934708D9
:100300008093460890932F0880932E0890931F089F
:1003100080931E080895FC01A081B1814C9181E079
:1003200090E09C01048002C0220F331F0A94E2F780
:10033000209524232C93A281B3812C91048002C0A8
:10034000880F991F0A94E2F7282B2C93809168005C
:100350008160809368008481833029F480916B00F0
:10036000886080936B008481811105C080916B004F
:10037000816080936B0083B1897080933E0880E038
:1003800090E00895FC018481833061F4672B29F0AB
:100390005093490840934808089550934708409364
:1003A0004608089581110BC0672B29F050932F0840
:1003B00040932E08089550931F0840931E080895F7
:1003C0001F920F920FB60F9211241F932F933F93FA
:1003D0004F935F936F937F938F939F93AF93BF934D
:1003E000CF93DF93EF93FF9313B1D12FD9708FE9A0
:1003F0009FE00197F1F700C0000083B12D2F30E09E
:10040000897090E02817390709F5C0913E08CD277B
:10041000C3FF0CC013FD05C0E0914608F0914708EA
:1004200004C0E0914808F09149080995C0FF0CC04C
:1004300010FD05C0E0911E08F0911F0804C0E09176
:100440002E08F0912F080995D0933E08FF91EF9167
:10045000DF91CF91BF91AF919F918F917F916F91DC
:100460005F914F913F912F911F910F900FBE0F9071
:100470001F901895A9E4B0E0E0E4F2E00C94321784
:100480005C014B013A0180E090E08A189B086A18F1
:100490007B088C010F5F1F4F7501C12CD12CE6E04A
:1004A000E89FD001E99FB00D1124BCAFABAFF701BD
:1004B0006491F401EE0DFF1D24912DABF301EE0DBF
:1004C000FF1D34913FAB70E080E090E00E94B518D2
:1004D00020ED33EB49E55EE30E94A2191B012C01DC
:1004E0004FA9642F70E080E090E00E94B51829E5E4
:1004F00037E147E35FE30E94A2199B01AC01C2010F
:10050000B1010E94AF171B012C01ADA96A2F70E049
:1005100080E090E00E94B51828E93DED43E95DE3F5
:100520000E94A2199B01AC01C201B1010E94AF1748
:1005300020E030E04FE753E40E941A180E9482182E
:10054000EBADFCADEC0DFD1D21E030E02C0F3D1FAF
:10055000E20FF31F60833FEFC31AD30AE00EF11ED0
:1005600046E0C416D10409F0A2CFC8010630110537
:1005700009F08FCF8BED9FE0A9E4B0E480934A08A7
:1005800090934B08A0934C08B0934D0800E010E006
:10059000C12CD12C760136E0732EA12CB12C709E8B
:1005A0004001719E900C1124F401EA0DFB1D21E025
:1005B00030E02C0F3D1FE20FF31F6081772767FDAE
:1005C0007095872F972F0E94B5189B01AC01C7012A
:1005D000B6010E94AF176B017C013FEFA31AB30A6B
:1005E00046E0A416B10401F70F5F1F4F0630110556
:1005F000A1F620E030E0A9010E941318882309F138
:1006000080E090E066E071E020E030E0689FA001CB
:10061000699F500D1124FA01E20FF31FA1E0B0E031
:10062000AC0FBD1FEA0FFB1FA081B72FBA1BB08311
:100630002F5F3F4F2630310571F7019686309105C7
:1006400019F7212C312CB101882777FD8095982F3F
:100650000E94B51820E030E040E450E40E94AE175C
:1006600020E030E040E05FE30E94AF172B013C0147
:100670009B01AC010E94A2196BAF7CAF8DAF9EAF06
:1006800000E010E026E0229DF001239DF00D1124F2
:100690002696FFAFEEAF2697B80163507109882701
:1006A00077FD8095982F0E94B51820E030E040E05B
:1006B0005FE30E94AF176B017C019B01AC010E94BC
:1006C000A2192BAD3CAD4DAD5EAD0E94AF170E949F
:1006D0005B1A9B01AC012696EEADFFAD2697E00FAD
:1006E000F11F81E090E08C0F9D1FE80FF91F6081E2
:1006F000772767FD7095872F972F27962FAF27971E
:1007000028963FAF289729964FAF29972A965FAF33
:100710002A970E94B51827962FAD279728963FADA8
:10072000289729964FAD29972A965FAD2A970E9460
:10073000A2190E94821824966FAF24971EAA1DAAA0
:10074000ADA9BEA9BD01882777FD8095982F0E948D
:10075000B5186FAB78AF89AF9AAF2BED3FE049EC9E
:100760005FE30E94A2192BED3FE049E450E40E94B0
:10077000AE174B015C010E9417189B01AC01C5012B
:10078000B40127962FAF279728963FAF2897299631
:100790004FAF29972A965FAF2A970E94511A239646
:1007A0006CAF7DAF8EAF9FAF239727962FAD279766
:1007B00028963FAD289729964FAD29972A965FAD89
:1007C0002A97C701B6010E94A2194B015C0123962A
:1007D0002CAD3DAD4EAD5FAD2397C301B2010E947C
:1007E000A2199B01AC01C501B4010E94AF174B01D6
:1007F0005C0120E030E0A9010E949E1987FD16C02F
:10080000C501B4010E948218882777FD8095982F32
:100810000E94B5182EEC36EE48E75FE30E941A18E6
:100820000E9482185B018DA99EA91DC0C501B4015B
:1008300090582EEC36EE48E75FE30E941A180E94AB
:1008400082185B0120E030E040E050E46FA978AD11
:1008500089AD9AAD0E94AF170E948218CB0164E067
:1008600070E00E949916F501EE0FFF1FEE0FFF1FBB
:1008700021E030E02C0F3D1FE20FF31FE80FF91FBE
:1008800084A124963FAD2497830F84A38DA99EA9AC
:1008900001969EAB8DAB049709F052CF0F5F1F4FAF
:1008A0000630110509F0F8CE9FEF291A390AA6E0A3
:1008B0002A16310409F0C7CE6DA1772767FD709520
:1008C000872F972F0E94B5182B013C016DA1772728
:1008D00067FD7095872F972F0E94B5186B017C01DB
:1008E000812C912C00E010E05401AA0CBB1CAA0C36
:1008F000BB1C21E030E02C0F3D1FA20EB31EBEAA90
:10090000ADAA1501200E311EF10164A1772767FD04
:100910007095872F972F0E94B5189B01AC01C301DA
:10092000B2010E94131887FF0CC0D10194966C91FC
:10093000772767FD7095872F972F0E94B5182B0199
:100940003C012DA83EA8200E311EF10164A177279D
:1009500067FD7095872F972F0E94B5189B01AC01FA
:10096000C701B6010E949E19181664F4D10194962D
:100970006C91772767FD7095872F972F0E94B51888
:100980006B017C010F5F1F4F0430110509F0B9CFD7
:10099000BFEF8B1A9B0AE4E08E16910409F0A2CFF8
:1009A000A7019601C301B2010E94AE172B013C01C1
:1009B00000E010E01DAAA12CB12C4801880C991C64
:1009C000880C991C81E090E08C0F9D1F880E991E69
:1009D00014012A0C3B1CD10194966C91772767FD7A
:1009E0007095872F972F0E94B518A70196010E9436
:1009F000AE17A30192010E941A1820E030E040ECEB
:100A00005FE30E94051A0E948218F10164A384A189
:100A1000FDA9F80FFDAB2FEFA21AB20A34E0A3161E
:100A2000B104B1F60F5F1F4F0430110521F68DA9F7
:100A3000C75BDF4FE2E10C944E1787E0EDE5F1E094
:100A4000A7E3B8E001900D928A95E1F73F9A87E01D
:100A5000E4E6F1E0A0E3B8E001900D928A95E1F7B9
:100A6000559A87E0EBE6F1E0A0E2B8E001900D9244
:100A70008A95E1F7209A0895FC01A281B38134811F
:100A80002C9181E090E0032E01C0880F0A94EAF7D0
:100A9000672B19F4282B2C9303C0809582238C9309
:100AA0002FEF83EC99E0215080409040E1F700C0A7
:100AB0000000A281B3812C9181E090E0048002C00B
:100AC000880F991F0A94E2F728272C932FEF83ECC5
:100AD00099E0215080409040E1F700C00000089567
:100AE00060E070E087E398E0C7DF61E070E080E2FB
:100AF00098E0C2DF61E070E080E398E0BDDF60E095
:100B000070E087E398E0B8DF61E070E080E298E0B1
:100B1000B3DF61E070E080E398E0AECFA3E0B0E047
:100B2000E4E9F5E00C9440178C01FC0120812A35A2
:100B300009F4F8C074F4273409F437C124F42534D7
:100B400009F49CC048C12035A9F0223509F4CAC077
:100B500042C1203779F03CF4253609F48FC027369E
:100B600009F423C138C1223709F4BCC02A3709F47B
:100B7000D9C031C180915B088F9380915A088F93BF
:100B8000809166088F93809165088F9382E791E04A
:100B90009F938F930E940F1C809176088F93809172
:100BA00075088F93809181088F93809180088F932F
:100BB00089EA91E09F938F930E940F1C8091C8084F
:100BC0008F938091C7088F938091C6088F938091EF
:100BD000C5088F938091C4088F938091C3088F9329
:100BE0008091C2088F938091C1088F938EED91E020
:100BF0009F938F930E940F1C8091B4088F938091D4
:100C0000B3088F938091B2088F938091B1088F932E
:100C10008091B0088F938091AF088F938091AE0838
:100C20008F938091AD088F938FEE91E09F938F9378
:100C30000E940F1C0FB6F894DEBF0FBECDBF80918F
:100C4000D8088F938091D7088F938091D6088F937F
:100C50008091D5088F938091D4088F938091D30889
:100C60008F938091D2088F938091D1088F9381E0E8
:100C700092E09F938F930E940F1C2EC080E192E020
:100C80009F938F930E940F1C84E592E09F938F9314
:100C90000E940F1C86E692E09F938F930E940F1C88
:100CA00080EF93E09F938F93CE0103969F938F9352
:100CB0008DE792E09F938F931F930F930E94711C77
:100CC0008091F1038F938091F0038F9383E892E0FA
:100CD0009F938F930E940F1C0FB6F894DEBF0FBE38
:100CE000CDBF81C0CE0101969F938F9302969F93B3
:100CF0008F938DE792E09F938F931F930F930E94A2
:100D0000711C8A818F9389818F9380EA92E09F93EF
:100D10008F930E940F1C89819A819093ED03809399
:100D2000EC03DACF822F992787FD90959F932F931D
:100D300080EC92E09F938F930E940F1C81E090E0E3
:100D40009093EF038093EE031092C1081092C208B3
:100D50001092C3081092C4081092C5081092C608D9
:100D60001092C7081092C8081092AD081092AE08F1
:100D70001092AF081092B0081092B1081092B20809
:100D80001092B3081092B4081092D1081092D208B1
:100D90001092D3081092D4081092D5081092D60859
:100DA0001092D7081092D80811C08091F1038F9348
:100DB0008091F0038F938DED92E09F938F930E942B
:100DC0000F1C1092DA081092D90878940F900F90A7
:100DD0000F900F9008C085EF92E09F938F930E9431
:100DE0000F1C0F900F900E9427102396E4E00C94A4
:100DF0005C17A1E1B0E0EFEFF6E00C943D17D82EC0
:100E00000E94271000E010E082E2E82E83E0F82E36
:100E100088E0D81209C002501109FF92EF920E9497
:100E20000F1C0F900F9024C08AE0D81203C001500D
:100E300011091EC08DE0D81601F18D2D992787FD6F
:100E400090950E94201C0E942710E1E0F0E0EC0F3A
:100E5000FD1FE00FF11FD0820E9427108091EF0844
:100E60009091F0080E94D11BD82E8FEFD816A1F3D5
:100E70000F5F1F4F003111055CF280E293E00E948A
:100E8000251C0E9427100031110549F486E293E0E9
:100E90000E94251C8DE0888B0E9427100DC0E1E088
:100EA000F0E0EC0FFD1FE00FF11F10828981882315
:100EB00019F0CE01019632DE6196E7E00C945917E5
:100EC0006BD3E9D90E942B1078940895CF93DF93C8
:100ED000C091BB08D091BC08C330D105E9F17BE1DA
:100EE0007C9FF0017D9FF00D1124E25BF74F918311
:100EF000808353834283852F880F880BDF011496EC
:100F0000448311965C93119712968C9312971396C3
:100F10008C93139714968C93149715968C9315971E
:100F200016968C93169717968C931586148666875B
:100F3000308B278781E090E0928B818B948B838B21
:100F4000168A158A108E178A928F818F2196D093D8
:100F5000BC08C093BB0802C08FEF9FEFDF91CF9119
:100F6000089521E030E044E650E064E070E08DE276
:100F70009EE0ACDF22E030E04EE551E065E070E05D
:100F800087EE9DE0A3DF23E030E047E751E066E035
:100F900070E08CEF9DE09ACFEF92FF920F931F933A
:100FA0008FDF4BDD93D90E942B101092DA0810923C
:100FB000DB081092DC081092DD081092DE08109217
:100FC000DF081092E0081092E1081092C108109218
:100FD000C2081092C3081092C4081092C50810925B
:100FE000C6081092C7081092C8081092AD08109257
:100FF000AE081092AF081092B0081092B10810928B
:10100000B2081092B3081092B4081092D10810924E
:10101000D2081092D3081092D4081092D5081092DA
:10102000D6081092D7081092D8081092BC081092D7
:10103000BB08269A249A569A94DF84E690E0A0E0B2
:10104000B0E08093B6089093B708A093B808B09327
:10105000B90848EC50E060E070E04093CD08509350
:10106000CE086093CF087093D0088093BD0890930A
:10107000BE08A093BF08B093C0081092C908109290
:10108000CA081092CB081092CC081092A5081092B2
:10109000A6081092A7081092A8081092AB0841E089
:1010A00050E060E470E080E090E0C8D62091CD0888
:1010B0003091CE084091CF085091D008E12CF12C0E
:1010C00000E01FE360E071E081E090E05AD64091DB
:1010D000BD085091BE0860E071E083E090E0AED6BC
:1010E0001092D9081092AC081F910F91FF90EF90C9
:1010F00008951F920F920FB60F9211242F923F92D4
:101100004F925F926F927F928F929F92AF92BF9217
:10111000CF92DF92EF92FF920F931F932F933F9303
:101120004F935F936F937F938F939F93AF93BF93EF
:10113000CF93DF93EF93FF938091D9088823D9F061
:101140002091DA083091DB084091DC085091DD08ED
:101150006091DE087091DF088091E0089091E108CD
:1011600028393A434105510561057105810591050D
:1011700009F0DDC0CBC02091DA083091DB08409146
:10118000DC085091DD086091DE087091DF088091E5
:10119000E0089091E108A1E00E9469172093DA0825
:1011A0003093DB084093DC085093DD086093DE0841
:1011B0007093DF088093E0089093E1086090A9089D
:1011C0007090AA08812C912C22242394312C2091F8
:1011D000DA083091DB084091DC085091DD0860911D
:1011E000DE087091DF088091E0089091E108EBE162
:1011F000E89DE001E99DD00D1124C25BD74FEA8143
:10120000FB811F2F110F110B5F01C12ED12EE12E7B
:10121000F12E012F0E94D416A0E00E94751709F04C
:101220006CC082E088169104E9F5E1E06E16710465
:1012300009F063C02091DA083091DB084091DC08A6
:101240005091DD086091DE087091DF088091E00820
:101250009091E108E0918608F0918708C0919B0881
:10126000D0919C081F2F110F110B5F01C12ED12EA1
:10127000E12EF12E012F0E94D6165901AC1ABD0A9B
:10128000B0929108A092900870929E0860929D087A
:101290008091950890919608019690939608809376
:1012A00095082BC02091DA083091DB084091DC08CA
:1012B0005091DD086091DE087091DF088091E008B0
:1012C0009091E108EA81FB814F88588C1F2F110F04
:1012D000110B5F01C12ED12EE12EF12E012F0E94A4
:1012E000D6165901A418B508BD86AC863A8E298E4B
:1012F00089899A8901969A8B898B8FEF881A980A27
:10130000E3E08E16910409F062CF1ACFC1E0C093DA
:10131000D9088091AC0881110AC083E393E09F93C0
:101320008F930E940F1CC093AC080F900F90FF91F9
:10133000EF91DF91CF91BF91AF919F918F917F916D
:101340006F915F914F913F912F911F910F91FF905E
:10135000EF90DF90CF90BF90AF909F908F907F9055
:101360006F905F904F903F902F900F900FBE0F9017
:101370001F9018951F920F920FB60F9211242F9362
:101380003F934F935F936F937F938F939F93AF930D
:10139000BF93EF93CF93DF9300D000D0CDB7DEB7EC
:1013A0002091DA083091DB084091DC085091DD088B
:1013B0006091DE087091DF088091E0089091E1086B
:1013C00027393A43410551056105710581059105AC
:1013D00011F008F04AC02091C1083091C208409134
:1013E000C3085091C4086091C5087091C6088091E7
:1013F000C7089091C808A2E00E9469172093C1080D
:101400003093C2084093C3085093C4086093C50842
:101410007093C6088093C7089093C80819821A82EF
:101420001B821C8249815A816B817C818091C90811
:101430009091CA08A091CB08B091CC0848175907E1
:101440006A077B0790F48FE19EE40197F1F700C0F3
:10145000000089819A81AB81BC810196A11DB11DDB
:1014600089839A83AB83BC83DDCF0F900F900F905D
:101470000F90DF91CF91EF91BF91AF919F918F919D
:101480007F916F915F914F913F912F910F900FBE80
:101490000F901F9018951F920F920FB60F92112464
:1014A0002F933F934F935F936F937F938F939F936C
:1014B000AF93BF93CF93DF9300D000D0CDB7DEB70B
:1014C0008091D908811153C08091AB08813009F413
:1014D00078942091AD083091AE084091AF085091BA
:1014E000B0086091B1087091B2088091B3089091F2
:1014F000B408A1E00E9469172093AD083093AE08AC
:101500004093AF085093B0086093B1087093B2084D
:101510008093B3089093B4088BB190E489278BB97A
:1015200019821A821B821C8249815A816B817C81BB
:101530008091A5089091A608A091A708B091A8084D
:10154000481759076A077B0790F48FE19EE40197DB
:10155000F1F700C0000089819A81AB81BC810196BE
:10156000A11DB11D89839A83AB83BC83DDCF0F900E
:101570000F900F900F90DF91CF91BF91AF919F91FE
:101580008F917F916F915F914F913F912F910F902C
:101590000FBE0F901F9018951092A1081092A008EE
:1015A00010929F0887E690E09093CD008093CC0046
:1015B000EAECF0E0808186608083E9ECF0E08081F5
:1015C000886080838081806180838081806880835F
:1015D00008951F920F920FB60F9211248F939F932D
:1015E000EF93FF938091CE008D3021F09091A10870
:1015F000923338F081E090E09093A00880939F08A8
:101600002EC0883081F48091A108882329F0809130
:10161000A10881508093A108E091A108F0E0E05B6F
:10162000FA4F10821CC0803279F08B3269F093ED52
:10163000980F923048F090ED980F9A3028F0982F3C
:101640009F7D91549A3158F4E091A108F0E0E05B5D
:10165000FA4F80838091A1088F5F8093A108FF914A
:10166000EF919F918F910F900FBE0F901F90189543
:101670009091C80095FFFCCF8093CE000895CF9342
:10168000DF93EC018991882311F0F2DFFBCF8DE02D
:10169000EFDFDF91CF910895A5E3B0E0E2E5FBE055
:1016A0000C9442178DE09AE0A0E0B0E089839A8321
:1016B000AB83BC83FE0135968EE2DF011D928A95D5
:1016C000E9F7CE01C3969F938F9302969F938F93D2
:1016D0008DE792E09F938F9380E595E09F938F93A2
:1016E0000E94711C0FB6F894DEBF0FBECDBF8DA94E
:1016F000863509F452C0A4F4803519F164F48434B9
:1017000049F1863409F04CC08CA98F938BA98F9333
:101710008EE793E02DC0823529F18335C1F140C0B9
:101720008037A9F03CF48A35A9F18436C9F56DE615
:1017300073E012C0863789F18A3761F1833781F50A
:1017400026C06AE373E0CE0101960E94CA1B6BE4D7
:1017500073E002C06CE573E0CE0101960E94CA1BE3
:1017600081E022C08CA98F938BA98F9380E993E0AD
:101770009F938F93CE0101969F938F930E94521C4B
:101780000F900F900F900F900F900F90E9CF61EA9C
:1017900073E0E2CF6FEA73E0DFCF6FEB73E0DCCF93
:1017A0008CEC93E06CDF80E01092A10892E3E0E51E
:1017B000F5E0DF011D929A95E9F7882319F0CE0133
:1017C00001965DDF1092A00810929F08E596E2E076
:1017D0000C945E17CF93DF9349E150E061E070E035
:1017E00082E091E020E030E0FC01E20FF31FA081F5
:1017F000B181EB01CA1BDB0BD183C0832E5F3F4F4E
:101800002A30310589F70A96D1E084339D0751F7D4
:10181000415051094115510519F7809102019091EC
:101820000301DF91CF9108958FE99FE00197F1F7D0
:1018300000C000008FE99FE00197F1F700C00000B1
:1018400081E090E0089580E090E008958FE99FE0C6
:101850000197F1F700C0000081E090E008958FE962
:101860009FE00197F1F700C0000081E090E008954B
:101870008FE39FE10197F1F700C0000082E090E064
:1018800008958FED9EE20197F1F700C0000083E01C
:1018900090E00895A6E1B0E0E0E5FCE00C9432179A
:1018A00080910001909101010196853091053CF4F1
:1018B000909301018093000180E090E01CC11092A0
:1018C00001011092000122E031E038872F831E8A47
:1018D0001D8AAD89BE89BD01882777FD8095982F27
:1018E0000E94B51820E030E040E250E40E94AE17BC
:1018F00020E030E040E05FE30E94AF1769837A8325
:101900008B839C839B01AC010E94A21969877A8713
:101910008B879C870EEF1FEFB801882777FD809596
:10192000982F0E94B51820E030E040E05FE30E946D
:10193000AF176B017C01F801EE0FFF1F2F81388577
:10194000E20FF31F84819581BC01882777FD809584
:10195000982F0E94B5184B015C01A7019601C701A1
:10196000B6010E94A21929853A854B855C850E94A3
:10197000AF179B01AC01C501B4010E94A2196D878C
:101980007E878F87988B1E821D82212C312CAD8102
:10199000BE81BD01882777FD8095982F0E94B518DC
:1019A00023EC35EF48E450E40E94AE174B015C0194
:1019B0000E9417189B01AC01C501B401298B3A8B19
:1019C0004B8B5C8B0E94511A2B013C0129893A896F
:1019D0004B895C89C701B6010E94A2194B015C01C9
:1019E000A301920169817A818B819C810E94A21955
:1019F0009B01AC01C501B4010E94AF174B015C0112
:101A000020E030E0A9010E949E1987FD0BC0C501AE
:101A1000B4010E948218CB0163E070E00E94991625
:101A200021010EC0C501B401905820E030E040E42F
:101A300050E40E941A180E94821893E0492E512CFB
:101A4000B5E0B69F3001B79F700C1124640C751C73
:101A5000660C771CF301EE5FFE4F3F01882777FD90
:101A60008095982F0E94B5189B01AC016D857E85ED
:101A70008F8598890E94AF174B015C01B2018827BE
:101A800077FD8095982F0E94B5189B01AC01C50188
:101A9000B4010E94AF170E948218D3018D919C91CE
:101AA0001197860F911D67FD9A958D939C93BFEFBB
:101AB0002B1A3B0AED81FE813496FE83ED83F2E022
:101AC0002F16310409F063CF0F5F1F4F013011054E
:101AD00009F022CF2D893E892F5F3F4F3E8B2D8B02
:101AE0008F8198850A9698878F832330310509F076
:101AF000F0CE81E090E06696E2E10C944E17A0E013
:101B0000B0E0E5E8FDE00C943A17CAE0D0E002E06E
:101B100011E0C12CD12C7601A12CB12CF801EA0DD9
:101B2000FB1D60817181882777FD8095982F0E9429
:101B3000B5189B01AC01C701B6010E94AF176B013C
:101B40007C0182E0A80EB11C8AE0A816B10431F72E
:101B5000065F1F4F81E004331807F1F620E030E004
:101B600048EC51E4C701B6010E941A1820E030E0A9
:101B700040E05FE30E949E1918162CF460E070E0CC
:101B800080E89FE303C060E070E0CB0121972097DD
:101B900009F0BDCF0E948218CB01CDB7DEB7EAE0D5
:101BA0000C94561785B190E1892785B981E090E0C2
:101BB000089585B190E4892785B981E090E0089582
:101BC0008BB190E489278BB981E090E00895109261
:101BD000AA081092A9088091AE069091AF060097CE
:101BE00021F09093B1068093B0060E945701909324
:101BF000AF068093AE0608958091A9089091AA0837
:101C0000892B51F11092AA081092A908E091390885
:101C1000F0913A08208181E090E000903B0802C0FA
:101C2000880F991F0A94E2F7282720838FE19EE40A
:101C30000197F1F700C00000E0913908F0913A08EF
:101C4000208181E090E000903B0802C0880F991F3E
:101C50000A94E2F7282720830895A1E0B0E0E3E3A7
:101C6000FEE00C94421740E751E06CE471E084E937
:101C700091E00E943A0289832196E2E00C945E177B
:101C800014BC15BC94B5926094BD95B5982B95BDC8
:101C900067BDEEE6F0E080818260808381E090E0C5
:101CA000089510928000E1E8F0E010829081986041
:101CB00090839081982B9083709389006093880023
:101CC000EFE6F0E080818260808381E090E008951B
:101CD00010929000E1E9F0E010829081986090838A
:101CE0009081982B90837093990060939800E1E71E
:101CF000F0E080818260808381E090E00895A0E838
:101D0000B0E01C92E1E8F0E010829C9190629C931C
:101D10009C9192609C939081906190839081986057
:101D200090839081982B908370938B0060938A00AE
:101D30003093870020938600EFE6F0E08081826098
:101D4000808381E090E008958034910591F034F42F
:101D50008130910561F0089791F00FC0811521E065
:101D6000920749F08115944041F485E0089581E09F
:101D7000089583E0089584E0089580E0089582E066
:101D800008954F925F926F927F92AF92BF92CF92DF
:101D9000DF92EF92FF920F931F93CF93DF93EC01AB
:101DA0005B013A01680179018230910518F08330B6
:101DB000910599F560E87EE380E090E09501442785
:101DC00037FD4095542FC8D7D301E8D72B013C01EC
:101DD0000E94B3189B01AC01C701B6010E94A21971
:101DE0000E9487186B017C01209741F48FEFC81681
:101DF000D104E104F10441F038F00FC0C114D10462
:101E000081E0E806F10448F4C5019EDF219729F43A
:101E1000A3019201B60173DF02C08FEF9FEFDF9144
:101E2000CF911F910F91FF90EF90DF90CF90BF90D7
:101E3000AF907F906F905F904F900895A0E0B0E0DA
:101E4000E4E2FFE00C943C17EC018B017A01823054
:101E5000910518F08330910589F560E87EE380E014
:101E600090E09801442737FD4095542F75D7D7014E
:101E700095D76B017C01209741F48FEFC816D104F0
:101E8000E104F10441F038F019C0C114D10481E03B
:101E9000E806F10498F4C80157DFC130D10541F0DC
:101EA000C330D10541F0CD2B49F46C2DE9DE08C0DB
:101EB000B601F7DE05C0B6010BDF02C08FEF9FEF62
:101EC000CDB7DEB7E8E0F4C7A0E0B0E0E9E6FFE0B8
:101ED000C9C71092D80060D8BAD07894C2E0D0E0D8
:101EE0008091D908813069F48091EF089091F008D1
:101EF0000E94D11B8093B5088F3F91F30E94F90691
:101F0000EFCF8111EDCF2091DA083091DB084091BD
:101F1000DC085091DD086091DE087091DF08809147
:101F2000E0089091E108C090B608D090B708E09022
:101F3000B808F090B9081601270156016201E12C9A
:101F4000F12C00E010E030D7A0E0CFD731F585B11B
:101F500030E1832785B92091D1083091D208409192
:101F6000D3085091D4086091D5087091D60880911B
:101F7000D7089091D808A1E0ACD72093D10830932E
:101F8000D2084093D3085093D4086093D508709337
:101F9000D6088093D7089093D8088FEF8093A40831
:101FA0001092BA082FEF2F5F233049F42093A40832
:101FB0001092BA088091A4088F3F89F491CF3BE139
:101FC0002303F0011124E25BF74F818D928D01977D
:101FD00051F72093A40881E08093BA08EBCFF894DE
:101FE0002091A4083BE12303F0011124E25BF74FA9
:101FF000D28FC18F78942091A4082303F00111247B
:10200000E25BF74F0190F081E02D0995F894209163
:10201000A4083BE12303F0011124E25BF74F878919
:10202000908D0196908F878B818992890197928BF1
:10203000818B81899289181619062CF481E090E031
:10204000928F818F02C0128E118E789449CF84E3D3
:1020500091E093D3EAC284B7877F84BF88E10FB64B
:10206000F89480936000109260000FBE90E080E8CA
:102070000FB6F89480936100909361000FBE57D023
:1020800060E178E084E391E0CCD3EFEEF8E080E12A
:1020900098E09383828391838083089508950895BF
:1020A00084E391E0DCC284E391E0CFC308950F9311
:1020B0001F93CF93DF934BD052D0C8EDD0E08881EF
:1020C0008F77888388818068888388818F7D8883E3
:1020D00019BC1092E6081092E2081092E4081092DF
:1020E000E30800EE10E0F80180818B7F8083888117
:1020F0008160888342E060E080E04DD5E1EEF0E071
:1021000080818E7F8083E2EEF0E080818160808339
:10211000808188608083F80180818E7F80838881C0
:1021200080618883DF91CF911F910F910895E8ED31
:10213000F0E080818F7E8083E7EDF0E08081816038
:10214000808384E082BF81E08093E508B0CFE8ED32
:10215000F0E080818E7F80831092E20008951092DB
:10216000DA001092E10008951F920F920FB60F92BD
:1021700011242F933F934F935F936F937F938F938C
:102180009F93AF93BF93EF93FF938091E10082FF02
:102190000AC08091E20082FF06C08091E1008B7F3F
:1021A0008093E10041D28091DA0080FF1DC08091D0
:1021B000D80080FF19C08091DA008E7F8093DA000A
:1021C0008091D90080FF0CC080E189BD82E189BD8A
:1021D00009B400FEFDCF81E08093E6085FDF04C014
:1021E00019BC1092E6085BDF8091E10080FF18C007
:1021F0008091E20080FF14C08091E2008E7F809386
:10220000E2008091E20080618093E2008091D8003A
:1022100080628093D80019BC85E08093E60804D2E0
:102220008091E10084FF2FC08091E20084FF2BC0E9
:1022300080E189BD82E189BD09B400FEFDCF8091B6
:10224000D8008F7D8093D8008091E1008F7E8093AD
:10225000E1008091E2008F7E8093E2008091E200B5
:1022600081608093E2008091E208882311F084E08D
:1022700007C08091E30087FD02C081E001C083E0D8
:102280008093E608D1D18091E10083FF27C080913F
:10229000E20083FF23C08091E100877F8093E1000B
:1022A00082E08093E6081092E2088091E1008E7F40
:1022B0008093E1008091E2008E7F8093E200809124
:1022C000E20080618093E20042E060E080E063D45D
:1022D0008091F00088608093F000A6D1FF91EF918B
:1022E000BF91AF919F918F917F916F915F914F912E
:1022F0003F912F910F900FBE0F901F9018951F9236
:102300000F920FB60F9211242F933F934F935F9329
:102310006F937F938F939F93AF93BF93CF93DF93ED
:10232000EF93FF93C091E900CF708091EC00D82F1C
:10233000D17080FDD0E81092E9008091F000877F95
:102340008093F00078941ED01092E9008091F00004
:1023500088608093F000CD2BCF70C093E900FF918F
:10236000EF91DF91CF91BF91AF919F918F917F912D
:102370006F915F914F913F912F910F900FBE0F90F2
:102380001F9018951F93CF93DF93CDB7DEB7AA9711
:102390000FB6F894DEBF0FBECDBFE7EEF8E088E0E1
:1023A0008E0F9091F10091938E13FBCF7CDE809184
:1023B000E80083FF21C18091E7089091E8089530FB
:1023C00009F478C030F4913081F168F0933069F10C
:1023D00013C1983009F4E2C0993009F4F1C0963085
:1023E00009F00AC189C0803881F0823809F004C13F
:1023F0008091EB088F708093E9008091EB0085FB62
:10240000882780F91092E90006C08091E308909136
:10241000E408911182609091E800977F9093E80022
:102420008093F1001092F100C4C0282F2D7F09F095
:10243000E3C0882319F0823061F0DEC08091E908A2
:10244000813009F0D9C0933009F080E08093E4082E
:102450002BC08091E908811127C08091EB088F7013
:1024600009F4CAC08093E9002091EB0020FF1CC052
:10247000933021F48091EB00806214C09091EB00C6
:1024800090619093EB0021E030E0A90102C0440F7D
:10249000551F8A95E2F74093EA001092EA00809176
:1024A000EB0088608093EB001092E9008091E800D7
:1024B000877F82C08111A0C01091E9081F778091A9
:1024C000E3008078812B8093E3008091E800877F90
:1024D0008093E800DDD38091E80080FFFCCF8091FD
:1024E000E30080688093E300111102C082E001C024
:1024F00083E08093E60880C08058823008F07CC07A
:102500008091E9089091EA088C3D53E0950771F5B8
:1025100083E08A838AE289834FB7F894DE011396B9
:1025200020E03EE051E2E32FF0E050935700E491C9
:1025300020FF03C0E295EF703F5FEF708E2F90E0B9
:10254000EA3010F0C79601C0C0968D939D932F5F1F
:10255000243149F74FBF8091E800877F8093E800DE
:102560006AE270E0CE01019652D212C0AE014F5F16
:102570005F4F6091EB0819D2BC01892B09F43CC074
:102580009091E800977F9093E80089819A81A2D288
:102590008091E8008B778093E8002EC0803861F549
:1025A0008091E800877F8093E8008091E208809323
:1025B000F1008091E8008E778093E80069D31CC019
:1025C00081111AC09091E9089230B0F48091E8002E
:1025D000877F8093E8009093E2085AD38091E208C5
:1025E000811106C08091E30087FD02C081E001C037
:1025F00084E08093E60854DD8091E80083FF0AC000
:102600008091E800877F8093E8008091EB008062F2
:102610008093EB00AA960FB6F894DEBF0FBECDBF35
:10262000DF91CF911F9108950895CF938091E6088F
:10263000882399F0C091E900CF709091EC00892F28
:10264000817090FD80E8C82B1092E9008091E8002D
:1026500083FD98DECF70C093E900CF910895CF93AA
:10266000DF93EC01FC0170968BE0DF011D928A95EF
:10267000E9F782E08C83898783E08E8761E0CE0171
:102680000196BED2882361F061E0CE010696B8D2F1
:10269000882331F061E0CE010B96DF91CF91B0C27B
:1026A00080E0DF91CF9108950F931F93CF932091F6
:1026B000E6082430F9F4FC01048915892689378954
:1026C000012B022B032BB1F0C62F81818F708093D9
:1026D000E9008091E80085FF04C0C093F10080E02C
:1026E0000AC08091E8008E778093E800F0D28823BA
:1026F000A1F301C082E0CF911F910F910895FB01DA
:10270000682F84859585D0DF21E030E0811102C0FB
:1027100020E030E088279927821B930B08952091B1
:10272000E608243041F5FC0144895589668977899A
:10273000452B462B472BF9F081818F708093E90060
:102740002091F3008091F20090E0922B892B89F088
:102750009091E8008091E8008E778093E80095FDE5
:1027600008C0B5D2811108C08091E8008E778093AF
:10277000E80080E0089582E008952091E608243082
:1027800089F4FC014489558966897789452B462B54
:10279000472B41F021812F702093E9002091E80020
:1027A00020FDBDCF08952091E608243019F08FEF69
:1027B0009FEF0895FC014489558966897789452BE7
:1027C000462B472BA1F386818F708093E90080917F
:1027D000E80082FFECCF2091F3008091F20090E0BE
:1027E000922B892B21F02091F10030E002C02FEFD5
:1027F0003FEF4091F3008091F20090E0942B892B01
:1028000029F48091E8008B778093E800C90108954E
:10281000FC0184859585C7DF97FF02C08EEF9FEF8F
:102820000895FB012EE0DB011D922A95E9F723E0D4
:1028300023832FE733E13187208728E034E1338792
:1028400022879587848708950895CF93DF93EC01BD
:102850008091E80083FFA6C0888190E02091EB087A
:102860003091EC082817390709F09CC08091E808DE
:10287000813261F020F4803209F43EC093C082328C
:1028800009F46CC0833209F47DC08CC08091E708E4
:10289000813A09F087C08091E800877F8093E80043
:1028A0008091E80080FFFCCF8C899D89AE89BF892B
:1028B0008093F100492F5A2F6B2F77274093F10017
:1028C000AD01662777274093F1008B2F9927AA2720
:1028D000BB278093F100888D8093F100898D8093D0
:1028E000F1008A8D8093F1008091E8008E778093CB
:1028F000E800DF91CF91CCC18091E708813209F0E7
:1029000051C08091E800877F8093E8008091E800C3
:1029100082FD05C08091E6088111F8CF43C0309157
:10292000F1002091F1009091F1008091F1003C8B39
:102930002D8B9E8B8F8B8091F100888F8091F10081
:10294000898F8091F1008A8F8091E8008B77809346
:10295000E8009ED1CE01DF91CF9176CF8091E7083C
:10296000813201F58091E800877F8093E80090D163
:102970008091E9089091EA08998B888BCE01DF91CC
:10298000CF9194CB8091E708813261F48091E80087
:10299000877F8093E8007CD16091E908CE01DF91C8
:1029A000CF9152CFDF91CF910895292F3327223035
:1029B000310559F02330310569F021303105F9F442
:1029C00082E190E02CE332E01EC08EE390E02EEF37
:1029D00031E019C099278130910541F0823091058D
:1029E00041F0892B61F4EAEFF1E005C0E0EEF1E09F
:1029F00002C0E8EBF1E0849190E09F0104C080E028
:102A000090E020E030E0FA013183208308952091A6
:102A1000ED083091EE082617370748F0611571056B
:102A200039F42091E8002E772093E80001C0B90125
:102A300040E061157105A9F12091E608222309F40F
:102A400043C0253009F442C02091E80023FD40C076
:102A50002091E80022FD32C02091E80020FFE9CF5C
:102A60004091F3002091F20030E0342BFC01CF01C3
:102A70006115710559F02830310540F4819180933A
:102A8000F100615071092F5F3F4FF1CF41E02830D5
:102A9000310509F040E02091E8002E772093E8000E
:102AA000C8CF4111C9CF0AC08091E608882361F0E0
:102AB000853061F08091E80083FD0AC08091E800D4
:102AC00082FFF2CF80E0089582E0089583E00895C8
:102AD00081E008952091ED083091EE082617370720
:102AE00048F06115710539F42091E8002E772093A4
:102AF000E80001C0B901FC0120E06115710591F108
:102B00008091E608882309F440C0853009F43FC06D
:102B10008091E80083FD3DC08091E80082FD2FC0D8
:102B20008091E80080FFE9CF2091F3008091F200CE
:102B300090E0922B6115710559F08830910540F4B1
:102B400024912093F1003196615071090196F2CFE2
:102B500021E0089709F020E08091E8008E778093CB
:102B6000E800CBCF2111CCCF0AC08091E6088823A2
:102B700061F0853061F08091E80083FD0AC08091AA
:102B8000E80082FFF2CF80E0089582E0089583E0BC
:102B9000089581E00895982F973058F59093E900B3
:102BA000981739F07091EC002091ED005091F000F1
:102BB00003C0242F762F50E021FF19C03091EB0085
:102BC0003E7F3093EB003091ED003D7F3093ED0080
:102BD0003091EB0031603093EB007093EC00209368
:102BE000ED005093F0002091EE0027FF07C09F5F9B
:102BF000D3CF8F708093E90081E0089580E008953D
:102C0000EF92FF920F931F93CF93DF93E62EEC0189
:102C10008C010C5F1F4FF12CFE1491F1588155234C
:102C200051F1F801208169817A8131979081852F56
:102C30008F70873010F080E024C0223010F442E022
:102C400001C046E0E8E0F0E020E0E617F70720F4F6
:102C50002F5FEE0FFF1FF9CF2295207F422BF0E46C
:102C60009F9F90011124551F5527551F652F622BDB
:102C700092DF882301F3F39425960B5F1F4FCCCF8F
:102C800081E0DF91CF911F910F91FF90EF90089518
:102C90008091E70887FF11C08091E80082FD05C0A0
:102CA0008091E6088111F8CF11C08091E8008B7700
:102CB0000BC08091E608882349F08091E80080FFEE
:102CC000F8CF8091E8008E778093E80008952091F6
:102CD000E4003091E50095E64091EC00842F81708E
:102CE00040FF22C08091E80080FD1CC08091E60872
:102CF000882391F0853091F08091EB0085FD10C024
:102D00004091E4005091E5004217530729F39A01DE
:102D1000915011F784E0089582E0089583E00895CA
:102D200081E0089580E008954091E80042FFDECF01
:102D3000089597FB072E16F4009406D077FD08D06F
:102D4000E0D007FC05D03EF4909581959F4F089503
:102D5000709561957F4F0895A1E21A2EAA1BBB1BA7
:102D6000FD010DC0AA1FBB1FEE1FFF1FA217B30757
:102D7000E407F50720F0A21BB30BE40BF50B661F6D
:102D8000771F881F991F1A9469F760957095809531
:102D900090959B01AC01BD01CF010895B7FFC5C05F
:102DA000C4D0821B930B0895689401C0E8948F925D
:102DB0009F92CF93DF9305D0DF91CF919F908F901B
:102DC000089588249924F401E401B0E49F93AA278C
:102DD0009A158B049C04ED05FE05CF05D007A107CD
:102DE00098F4AD2FDC2FCF2FFE2FE92D982C892EB4
:102DF000982F872F762F652F542F432F322F22277E
:102E0000B85031F7BF9127C01B2EBF91BB27220FAF
:102E1000331F441F551F661F771F881F991F881C6B
:102E2000991CEE1FFF1FCC1FDD1FAA1FBB1F8A149A
:102E30009B04EC05FD05CE05DF05A007B10748F0B2
:102E40008A189B08EC09FD09CE09DF09A00BB10B1C
:102E500021601A94E1F62EF49401AF01BE01CD0178
:102E6000000C08952F923F924F925F926F927F9243
:102E70008F929F92AF92BF92CF92DF92EF92FF928A
:102E80000F931F93CF93DF93CDB7DEB7CA1BDB0B36
:102E90000FB6F894DEBF0FBECDBF09942A883988DB
:102EA00048885F846E847D848C849B84AA84B984E2
:102EB000C884DF80EE80FD800C811B81AA81B981EE
:102EC000CE0FD11D0FB6F894DEBF0FBECDBFED0102
:102ED00008950024A7FD00942A0F301D401D501DA9
:102EE000601D701D801D901D08950024A7FD009495
:102EF0002A173005400550056005700580059005CE
:102F00000895AA1BBB1B51E107C0AA1FBB1FA61730
:102F1000B70710F0A61BB70B881F991F5A95A9F782
:102F200080959095BC01CD01089509D0A59F900D85
:102F3000B49F900DA49F800D911D11240895A29F10
:102F4000B001B39FC001A39F700D811D1124911D7D
:102F5000B29F700D811D1124911D08955058BB27FB
:102F6000AA270ED0A0C169D130F06ED120F031F483
:102F70009F3F11F41EF45EC10EF4E095E7FB54C1CF
:102F8000E92FB3D180F3BA17620773078407950757
:102F900018F071F49EF5CBC10EF4E0950B2EBA2F0C
:102FA000A02D0B01B90190010C01CA01A00111244F
:102FB000FF27591B99F0593F50F4503E68F11A16FB
:102FC000F040A22F232F342F4427585FF3CF46958C
:102FD00037952795A795F0405395C9F77EF41F16AE
:102FE000BA0B620B730B840BBAF09150A1F0FF0F78
:102FF000BB1F661F771F881FC2F70EC0BA0F621F64
:10300000731F841F48F4879577956795B795F79553
:103010009E3F08F0B3CF9395880F08F09927EE0FE5
:10302000979587950895DCD008F481E0089514D130
:10303000E3954AC10CD037C107D140F0FED030F043
:1030400021F45F3F19F0F0C0511172C1F3C04DD1AE
:1030500098F39923C9F35523B1F3951B550BBB275F
:10306000AA2762177307840738F09F5F5F4F220F0C
:10307000331F441FAA1FA9F333D00E2E3AF0E0E805
:1030800030D091505040E695001CCAF729D0FE2F51
:1030900027D0660F771F881FBB1F261737074807E3
:1030A000AB07B0E809F0BB0B802DBF01FF27935899
:1030B0005F4F2AF09E3F510568F0B6C039C15F3FAF
:1030C000ECF3983EDCF3869577956795B795F79581
:1030D0009F5FC9F7880F911D9695879597F9089579
:1030E000E1E0660F771F881FBB1F62177307840715
:1030F000BA0720F0621B730B840BBA0BEE1F88F724
:10310000E095089504D06894B11112C10895F5D0E6
:1031100088F09F5790F0B92F9927B751A0F0D1F0C0
:10312000660F771F881F991F1AF0BA95C9F712C04A
:10313000B13081F0FCD0B1E00895F9C0672F782F4D
:103140008827B85F39F0B93FCCF3869577956795B6
:10315000B395D9F73EF490958095709561957F4F22
:103160008F4F9F4F0895E89409C097FB3EF49095C8
:103170008095709561957F4F8F4F9F4F9923A9F050
:10318000F92F96E9BB279395F695879577956795DF
:10319000B795F111F8CFFAF4BB0F11F460FF1BC023
:1031A0006F5F7F4F8F4F9F4F16C0882311F096E9B6
:1031B00011C0772321F09EE8872F762F05C0662364
:1031C00071F096E8862F70E060E02AF09A95660F1D
:1031D000771F881FDAF7880F9695879597F90895D6
:1031E000990F0008550FAA0BE0E8FEEF1616170618
:1031F000E807F907C0F012161306E407F50798F080
:10320000621B730B840B950B39F40A2661F0232B98
:10321000242B252B21F408950A2609F4A140A69514
:103220008FEF811D811D089597F99F6780E870E0F9
:1032300060E008959FEF80EC089500240A9416162C
:10324000170618060906089500240A941216130694
:10325000140605060895EECF50D0E8F3E894E0E0B8
:10326000BB279F57F0F02AED3FE049EC06C0EE0F78
:10327000BB0F661F771F881F28F0B23A62077307DB
:10328000840728F0B25A620B730B840BE3959A956E
:1032900072F7803830F49A95BB0F661F771F881F2E
:1032A000D2F7904879C1092E0394000C11F48823B9
:1032B00052F0BB0F40F4BF2B11F460FF04C06F5FEE
:1032C0007F4F8F4F9F4F0895EF93E0FF06C0A2EA14
:1032D0002AED3FE049EC5FEB53DEE5DF0F9003940E
:1032E00001FC9058ECEAF0E08FC157FD9058440F74
:1032F000551F59F05F3F71F04795880F97FB991F55
:1033000061F09F3F79F08795089512161306140611
:10331000551FF2CF4695F1DF08C01616170618069E
:10332000991FF1CF86957105610508940895E89479
:10333000BB2766277727CB0197F9089551DF08F45B
:103340008FEF08950BD0AFCF78DF28F07DDF18F036
:10335000952309F069CF6ECF1124EACFC6DFA0F321
:10336000959FD1F3950F50E0551F629FF001729F1A
:10337000BB27F00DB11D639FAA27F00DB11DAA1F39
:10338000649F6627B00DA11D661F829F2227B00D86
:10339000A11D621F739FB00DA11D621F839FA00D11
:1033A000611D221F749F3327A00D611D231F849F61
:1033B000600D211D822F762F6A2F11249F575040B8
:1033C0008AF0E1F088234AF0EE0FFF1FBB1F661F53
:1033D000771F881F91505040A9F79E3F510570F00C
:1033E00023CFA6CF5F3FECF3983EDCF3869577952D
:1033F0006795B795F795E7959F5FC1F7FE2B880F07
:10340000911D9695879597F90895FA01EE0FFF1F84
:1034100030962105310599F16115710561F4803807
:10342000BFE39B0749F168949038810561F08038CB
:10343000BFEF9B0741F0992342F5FF3FE1053105BE
:10344000210511F1E8940894E795D901AA2329F4FC
:10345000AB2FBE2FF85FD0F310C0FF5F70F4A695BE
:10346000E0F7F73950F019F0FF3A38F49F779F935F
:103470000CD00F9007FC905808953EF0DBCE60E032
:1034800070E080E89FE308954FE79F775F934F9345
:103490003F932F930CD12F913F914F915F9152DF2A
:1034A0004DC09F93D9DE0F9007FCEE5F0DCF11F456
:1034B0000EF4C0CE6FC021DFD0F39923D9F3CEF341
:1034C0009F57550B87FF74D00024A0E640EA900177
:1034D00080585695979528F4805C660F771F881F53
:1034E00020F026173707480730F4621B730B840B54
:1034F000202931294A2BA695179407942025312598
:103500004A2758F7660F771F881F20F026173707BE
:10351000480730F4620B730B840B200D311D411DE5
:10352000A09581F7B901842F9158880F96958795BA
:10353000089519F40EF078CEFACE7CCEDEDEC8F314
:103540009638C0F707F80F92E8942BE33AEA48EB75
:103550005FE706DF0F920F920F924DB75EB70F92A3
:10356000E6D0EAECF0E02BD04F915F91EF91FF9124
:10357000E595EE1FFF1F49F0FE57E0684427EE0F68
:10358000441FFA95E1F74195550B58D00F9007FE6F
:103590004CC008959F3F31F0915020F48795779566
:1035A0006795B795880F911D9695879597F908951A
:1035B00091505040660F771F881FD2F70895DF9310
:1035C000CF931F930F93FF92EF92DF927B018C01B9
:1035D000689405C0DA2EEF01C1DEFE01E894A591E2
:1035E0002591359145915591AEF3EF01C9DCFE016E
:1035F0009701A801DA9479F7DF90EF90FF900F918F
:103600001F91CF91DF9108959F938F937F936F9335
:10361000FF93EF939B01AC0195DEEF91FF91CFDF1C
:103620002F913F914F915F918DCE9B01AC0160E056
:1036300070E080E89FE3FECCF7CDACCF5EDEE8F330
:103640009923D9F3940F511DBBF39150504094F03E
:1036500059F0882332F0660F771F881F9150504031
:10366000C1F79E3F510544F7880F911D96958795A8
:1036700097F908955F3FACF0983E9CF0BB27869584
:1036800077956795B79508F4B1609395C1F7BB0F2F
:1036900058F711F460FFE8CF6F5F7F4F8F4F9F4F58
:1036A000E3CF46CE0EF076CFC5CD6894BDCD25DEF6
:1036B000C8F39923D1F3C6F3DF93CF931F930F93EE
:1036C000FF92C92FDD2788232AF02197660F771FE5
:1036D000881FDAF720E030E040E85FEB9FE38839AD
:1036E00020F0803E30F021968F7739DCE2EFF0E079
:1036F00003C035DCEFE1F1E062DF8B01BE01EC01DC
:10370000FB2E6F5771097595771F880B990B2DDD6F
:1037100028E132E741E35FE321DEAF2D9801AE01FE
:10372000FF900F911F91CF91DF912ADCBCCDFA0160
:10373000DC01AA0FBB1F9B01AC01BF5728F4222755
:103740003327442750781FC0B75188F4AB2F00248B
:10375000469537952795011CA395D2F3002069F073
:10376000220F331F441FB395DAF30DD0F7CB61302E
:103770007105A0E88A07B94630F49B01AC016627C1
:10378000772788279078309621F0208331834283F1
:1037900053830895FB01DC0101900D920020E1F7B5
:1037A0000895CF93DF93EC012B8120FF33C026FFD8
:1037B0000AC02F7B2B838E819F8101969F838E83EE
:1037C0008A8190E029C022FF0FC0E881F9818081C1
:1037D000992787FD9095009719F420622B831AC0D2
:1037E0003196F983E8830EC0EA85FB85099597FF3A
:1037F00009C02B81019611F480E101C080E2822B87
:103800008B8308C02E813F812F5F3F4F3F832E83E4
:10381000992702C08FEF9FEFDF91CF910895A0E02D
:10382000B0E0E4E1FCE12ECBFE01359661917191AF
:10383000AF018091F1089091F20869D0E2E03ECBAF
:103840006091F1087091F208E7C40F931F93CF9332
:10385000DF93E091F108F091F208238121FF1BC072
:10386000EC0100E010E089916091F1087091F2089C
:10387000DB011896ED91FC911997882331F0099599
:10388000892B89F30FEF1FEFEECF8AE00995892B83
:1038900011F4C80102C08FEF9FEFDF91CF911F910C
:1038A0000F910895AEE0B0E0E7E5FCE1E9CA0D89CB
:1038B0001E8986E08C831A8309838FEF9FE79E839E
:1038C0008D83AE01475E5F4F6F89788DCE01019683
:1038D0001ED0EF81F885E00FF11F10822E96E4E0F4
:1038E000EBCAAEE0B0E0E6E7FCE1CCCA85E08C8351
:1038F0008B899C899A838983AE01495E5F4F6D896C
:103900007E89CE01019636D32E96E2E0D7CAACE08E
:10391000B0E0ECE8FCE1A6CA7C016B018A01FC0185
:1039200017821682838181FFB0C1CE0101964C01BE
:10393000F7019381F60193FD859193FF81916F01CA
:10394000882309F49EC1853239F493FD859193FF54
:1039500081916F01853221F4B70190E05DD4E8CF09
:10396000512C312C20E02032A0F48B3269F030F45D
:10397000803259F0833269F420612CC08D3239F0E5
:10398000803339F4216026C02260246023C028607F
:1039900021C027FD27C030ED380F3A3078F426FFDC
:1039A00006C0FAE05F9E300D1124532E13C08AE04A
:1039B000389E300D1124332E20620CC08E3221F43B
:1039C00026FD5FC1206406C08C3611F4206802C059
:1039D000883641F4F60193FD859193FF81916F0143
:1039E0008111C1CF982F9F7D9554933028F40C5F9F
:1039F0001F4FFFE3F9830DC0833631F0833771F039
:103A0000833509F057C021C0F801808189830E5F9A
:103A10001F4F44244394512C540114C03801F2E048
:103A20006F0E711CF801A080B18026FF03C0652DC8
:103A300070E002C06FEF7FEFC5012C87E2D32C014D
:103A400083012C852F77222E16C03801F2E06F0EED
:103A5000711CF801A080B18026FF03C0652D70E0C5
:103A600002C06FEF7FEFC5012C87C0D32C012C85DE
:103A70002068222E830123FC19C0832D90E0481674
:103A80005906A0F4B70180E290E0C6D33A94F5CF8E
:103A9000F50127FC859127FE81915F01B70190E038
:103AA000BBD331103A94F1E04F1A5108411451043C
:103AB00079F7DEC0843611F0893631F5F80127FF39
:103AC00007C060817181828193810C5F1F4F08C0A4
:103AD00060817181882777FD8095982F0E5F1F4F39
:103AE0002F76B22E97FF09C09095809570956195BD
:103AF0007F4F8F4F9F4F2068B22E2AE030E0A40105
:103B0000D6D3A82EA81843C0853729F42F7EB22E0D
:103B10002AE030E025C0F22FF97FBF2E8F36C1F0AA
:103B200018F4883579F0ADC0803719F0883721F066
:103B3000A8C02F2F2061B22EB4FE0DC08B2D846043
:103B4000B82E09C024FF0AC09F2F9660B92E06C068
:103B500028E030E005C020E130E002C020E132E0A2
:103B6000F801B7FE07C060817181828193810C5F8B
:103B70001F4F06C06081718180E090E00E5F1F4F93
:103B8000A40195D3A82EA818FB2DFF77BF2EB6FE53
:103B90000BC02B2D2E7FA51450F4B4FE0AC0B2FC2E
:103BA00008C02B2D2E7E05C07A2C2B2D03C07A2C1D
:103BB00001C0752C24FF0DC0FE01EA0DF11D8081AE
:103BC000803311F4297E09C022FF06C073947394D8
:103BD00004C0822F867809F0739423FD12C020FF61
:103BE00006C05A2C731418F4530C5718732C731402
:103BF00060F4B70180E290E02C870ED373942C859B
:103C0000F6CF731410F4371801C0312C24FF11C003
:103C1000B70180E390E02C87FFD22C8522FF16C0ED
:103C200021FF03C088E590E002C088E790E0B7017B
:103C30000CC0822F867851F021FD02C080E201C0C5
:103C40008BE227FD8DE2B70190E0E6D2A51430F4B7
:103C5000B70180E390E0E0D25A94F8CFAA94F4013F
:103C6000EA0DF11D8081B70190E0D6D2A110F6CF08
:103C7000332009F45DCEB70180E290E0CDD23A94D2
:103C8000F7CFF7018681978102C08FEF9FEF2C96C7
:103C9000E2E104C920FD09C0FC0123FD05C022FFAB
:103CA00002C07383628351834083089544FD10C032
:103CB00046FD10C0DB01FC01AA0FBB1FEE1FFF1F5A
:103CC0001094D1F76A0F7B1F8E1F9F1F31E003C036
:103CD00033E001C034E0660F771F881F991F315011
:103CE000D1F7620F711D811D911D08950F931F93D0
:103CF000CF93DF938C01C80154DDEC0197FD06C022
:103D000062D2892BC1F7B801CE01B8D2CE01DF91C2
:103D1000CF911F910F9108958F929F92AF92CF9262
:103D2000DF92EF92FF920F931F93CF93DF93EC01FB
:103D3000A62E4A01022F35DDAC0155274B32510525
:103D400021F04D32510549F40068AA9411F480E045
:103D500060C0CE0126DD97FDFACF102F1D7F302FDA
:103D60003073F1F48033E1F4FF24FA94FA0C09F48F
:103D70003DC0CE0116DD97FD39C0382F3F7D383567
:103D800049F41264AA94AA9489F1CE010ADD97FF3E
:103D900007C02CC006FF02C0126001C01261AF2C28
:103DA000C12CD12C760120ED280F283078F014FF9B
:103DB00003C0BE0163D217C02A3040F016FFF9CF0E
:103DC0002F7D3FEE320F3630A0F72750412FC7012D
:103DD000B6016CDF6B017C011260AA9451F0CE0138
:103DE000E0DC97FFE0CF11FD04C0B1CFC12CD12C96
:103DF000760117FF08C0F094E094D094C094C11CE1
:103E0000D11CE11CF11C212FB701A601C40142DF26
:103E100081E0DF91CF911F910F91FF90EF90DF90A4
:103E2000CF90AF909F908F900895A1E2B0E0EAE12B
:103E3000FFE11DC85C017A018E010F5F1F4F680111
:103E400080E2D8011D928A95E9F7F501738040E080
:103E500050E0812CB0E0912C81E090E0F90173FCFE
:103E6000A59173FEA1918F017A2F9F01A11103C02B
:103E700080E090E07BC0AE3519F44115510559F151
:103E8000E92DF0E0E417F5073CF4AD3569F1AD320A
:103E900019F4BB2319F103C0B11101C08A2EE72F19
:103EA000E695E695E69586010E0F111DF801A72F00
:103EB000A7708C0102C0000F111FAA95E2F7D8016C
:103EC000B081BA2BB083781559F0781510F47F5F64
:103ED000E6CF7150E4CF9924939403C0B1E001C0C0
:103EE000B0E04F5F5F4FBACFBB2319F08E81806285
:103EF0008E83911003C09924939415C0F601CE01CE
:103F00008196208120952193E817F907D1F7F3CF07
:103F1000E114F10429F0D7018C93F70131967F0168
:103F20006150F1F0912CC50169A33BDC69A197FDBB
:103F300015C0282F269526952695F601E20FF11D2E
:103F4000208130E0AC014770552702C03595279598
:103F50004A95E2F720FDDCCFB50190D1911088CFD2
:103F6000E114F10411F0D7011C92C801A196EDE013
:103F70000C9453174F925F927F928F929F92AF92C1
:103F8000BF92CF92DF92EF92FF920F931F93CF9346
:103F9000DF931F92CDB7DEB78C012B017A01FC01B4
:103FA00017821682A12CF801D380F201D3FC8591EF
:103FB000D3FE8191382F2F01882309F4EEC090E0C1
:103FC000398301D13981892B19F0C8018FDEEBCFFC
:103FD000353241F4F201D3FC3591D3FE31912F01FA
:103FE000353259F4C8013983DCDB398197FDD3C000
:103FF0003817C9F2B80142D1D0C03A3241F4D3FCEB
:104000003591D3FE31912F01BB24B39401C0B12C63
:10401000712C20ED230F2A3088F4FB2DF260BF2E87
:10402000672D70E080E090E040E240DE762EF20105
:10403000D3FC3591D3FE31912F01EBCFB1FE03C0FC
:10404000711003C0AAC077247A94383619F03C3630
:1040500061F014C0F201D3FC3591D3FE31912F01F0
:10406000383661F4FB2DF860BF2E8B2D8460B82E9E
:10407000F201D3FC3591D3FE31912F01332309F4A2
:104080008CC0632F70E08EE492E03983A4D0398134
:10409000892B09F482C0B0FC07C0F701C080D18031
:1040A000C70102967C0102C0C12CD12C3E3649F4D6
:1040B000F8014681578160E070E02B2DC601EADDF2
:1040C00072CF333699F4B1FC02C077247394C801DF
:1040D00068DB97FD60C0C114D10429F0F60180832C
:1040E000C60101966C017A9491F751C03B3551F4A9
:1040F0009201A601672DC80198DE2C01009709F0F6
:1041000046C040C0C8013983F1DD398197FD43C005
:104110003F3651F128F4343619F1393661F128C0AF
:10412000333769F03537E1F023C0C114D10429F0E9
:10413000F6018082C60101966C017A9459F0C8019B
:1041400030DB4C0197FD06C03ED0892B71F3B801DE
:10415000C40194D0C114D104D1F0F601108217C06B
:10416000FB2DF062BF2E07C08B2D8061B82E03C0DF
:104170009B2D9064B92E2B2DA601672DC801CCDD97
:10418000811105C0F8018381807329F406C0B0FC59
:104190000ACFA39408CFAA2019F08A2D90E002C07C
:1041A0008FEF9FEF0F90DF91CF911F910F91FF90B5
:1041B000EF90DF90CF90BF90AF909F908F907F90C7
:1041C0005F904F9008959111D0C0803219F08950BE
:1041D0008550D0F70895FC010590061621F00020C7
:1041E000D9F7C00108953197CF010895FC010590DA
:1041F000615070400110D8F7809590958E0F9F1FE9
:104200000895FC016150704001900110D8F780952D
:1042100090958E0F9F1F08950F931F93CF93DF9359
:10422000182F092FEB018B8181FD03C08FEF9FEFCA
:1042300020C082FF10C04E815F812C813D814217DA
:1042400053077CF4E881F9819F012F5F3F4F398349
:104250002883108306C0E885F985812F0995892B6D
:1042600029F72E813F812F5F3F4F3F832E83812F80
:10427000902FDF91CF911F910F910895FB01238122
:1042800020FF12C026FD10C08F3F3FEF930761F063
:1042900082832F7D20642383268137812150310939
:1042A00037832683992708958FEF9FEF0895FA01AA
:1042B000AA27283051F1203181F1E8946F936E7F65
:1042C0006E5F7F4F8F4F9F4FAF4FB1E03ED0B4E056
:1042D0003CD0670F781F891F9A1FA11D680F791F97
:1042E0008A1F911DA11D6A0F711D811D911DA11DA8
:1042F00020D009F468943F912AE0269F11243019B8
:10430000305D3193DEF6CF010895462F4770405D52
:104310004193B3E00FD0C9F7F6CF462F4F70405D01
:104320004A3318F0495D31FD4052419302D0A9F75C
:10433000EACFB4E0A6959795879577956795BA9556
:10434000C9F700976105710508959B01AC010A2E1C
:1043500006945795479537952795BA95C9F7620FF3
:10436000731F841F951FA01D0895992788270895FE
:04437000F894FFCFEF
:104374000400FF00FF00FF00FF00FF00FF0000003B
:1043840000000000FF00FF000000FF000000FF002D
:10439400FF00000000000000FF00FF00FF00FF001E
:1043A400FF00FF00008310000001041000000182E0
:1043B40008000001000000000000000000000024CC
:1043C40000250003230024002500002300270028E3
:1043D400000726002A002B000529002400250000E0
:1043E4002300486F756768205472616E73666F723C
:1043F4006D205461736B2C20636F756E742025647B
:104404002C206D697373656420646561646C696EE6
:1044140065733A2025640A0D004576656E74205054
:104424006F6C6C696E67205461736B2C20636F75BD
:104434006E742025642C206D697373656420646533
:1044440061646C696E65733A2025640A0D004772D5
:1044540065656E20636F756E742025640A0D0059BE
:10446400656C6C6F7720636F756E742025640A0D1C
:104474000052656420636F756E742025640A0D0014
:1044840054797065206520666F7220657870657256
:10449400696D656E7420616E64207468656E206E4B
:1044A400756D6265722030202D203820666F722071
:1044B4006578706572696D656E74206E756D626580
:1044C400720A0D00464F52204558414D504C453A12
:1044D4002065310A720030203D2064656661756C88
:1044E400742073657474696E67730A0D0025632004
:1044F400256400526561647920746F2072756E20A2
:104504006578706572696D656E742025640A0D00A6
:104514004368616E676520677265656E20706572B9
:10452400696F6420746F202564206D732E0A0D005A
:104534005A65726F696E67206F757420616C6C20A8
:104544007661726961626C65732E0A0D00476F2093
:1045540077697468206578706572696D656E74201A
:1045640025640A0D007A2865726F29206528787001
:104574006572696D656E74292067286F292070281B
:1045840072696E7429207228706572696F64290AD1
:104594000D00082008004275666665722066756C19
:1045A4006C0D00502C20700A0D00496E6372656119
:1045B40073696E67206B502E0D0A00446563726543
:1045C4006173696E67206B502E0D0A00496E637229
:1045D400656173696E67206B442E0D0A0044656340
:1045E40072656173696E67206B442E0D0A00466F15
:1045F4007277617264202564206465672E0D0A0059
:1046040052657665727365202564206465672E0A99
:104614000053746F70204D6F746F722E0D0A005A20
:1046240065726F20456E636F6465722E0D0A0056C5
:1046340069657720446174612E0D0A00502C207046
:104644002C20442C20642C204620232C2052202370
:0C4654002C20532C205A2C20560D0A005C
:00000001FF
