:1000000041C100005CC100005AC1000058C100009D
:1000100056C1000054C1000052C1000050C1000090
:100020004EC10000E2C100004AC1000048C100000A
:1000300046C1000044C1000042C1000040C10000B0
:100040003EC100000C948B0B3AC1000038C1000087
:1000500036C100000C94920A32C1000030C1000089
:100060002EC100000C94AD0D2AC1000028C1000073
:1000700026C1000024C1000022C1000020C10000F0
:100080000C94580C1CC100001AC1000018C10000DB
:1000900016C1000014C1000012C1000010C1000010
:1000A0000EC100000CC100000AC1000005A84CCD23
:1000B000B2D44EB93836A9020C50B9918688083CA2
:1000C000A6AAAA2ABE000000803F07634236B79B5B
:1000D000D8A71A39685618AEBAAB558C1D3CB7CCA8
:1000E0005763BD6DEDFD753EF6177231BF00000020
:1000F000803F08000000BE922449123EABAAAA2A03
:10010000BECDCCCC4C3E00000080BEABAAAAAA3E1D
:1001100000000000BF000000803F00000000000859
:100120004178D3BB4387D1133D190E3CC3BD4282F6
:10013000AD2B3E68EC8276BED98FE1A93E4C80EFB4
:10014000FFBE01C4FF7F3F0000000000504E4B4542
:100150003F3D3D3E40414450544B4441403F41416E
:100160004D504D48474D48424143544D4A4F504AE7
:10017000474643435E52515B5744414A474589686D
:100180004E51544F4B4F48489E896B59565B5752BE
:100190004C4A7C9BA48360575651504E5C718EA094
:1001A000916E534C5952645D657D908B75654F56C9
:1001B000282928242222252729291C282F2A2526D8
:1001C0002827292923272724282E2E2829282722B3
:1001D00022282D2C292B29292F2525323122212C8B
:1001E0002929593821242B28272D2A296C563A2AC7
:1001F0002A31312C2A294A687353322A2C282A2979
:10020000283D5C6D5F3D261F2E2B312A314B5D59F9
:100210004436212B151514100D0D0F11131309154C
:100220001B161011121113130C100F0C0F171610B0
:1002300011130C07060C1311101111110F040612E3
:10024000130404111011351400020A0809100F10CC
:10025000422E1204050E0F0C0D0F1C3D47290904F8
:1002600009070A0D000E2E42351500000D0B000087
:10027000021D322F1C10000A6364696E6F70737563
:1002800078585B0011241FBECFEFDAE0DEBFCDBF90
:1002900016E0A0E0B1E0EEE7FDE302C005900D92AC
:1002A000A231B107D9F72BE0A2E1B6E001C01D925F
:1002B000AF33B207E1F70E94E1110C94BD1EA0CE4E
:1002C00080E480937C0087E880937A00EBE7F0E09D
:1002D000808180628083089580917A008064809319
:1002E0007A0080917A0086FDFCCF80917800909111
:1002F00079000895089587E0E6E3F1E0A3E8BAE025
:1003000001900D928A95E1F787E0EDE3F1E0ABE62D
:10031000BAE001900D928A95E1F78AE791E0909317
:100320008D0A80938C0A90938B0A80938A0A90930B
:10033000730A8093720A9093630A8093620A089505
:10034000FC01A081B1814C9181E090E09C0104808E
:1003500002C0220F331F0A94E2F7209524232C9326
:10036000A281B3812C91048002C0880F991F0A9446
:10037000E2F7282B2C9380916800816080936800BD
:100380008481833029F480916B00886080936B00B6
:100390008481811105C080916B00816080936B0026
:1003A00083B189708093820A80E090E00895FC0117
:1003B0008481833061F4672B29F050938D0A409338
:1003C0008C0A089550938B0A40938A0A08958111EC
:1003D0000BC0672B29F05093730A4093720A08955B
:1003E0005093630A4093620A08951F920F920FB6CA
:1003F0000F9211241F932F933F934F935F936F930B
:100400007F938F939F93AF93BF93CF93DF93EF939C
:10041000FF9313B1D12FD9708FE99FE00197F1F7C6
:1004200000C0000083B12D2F30E0897090E02817C4
:10043000390709F5C091820ACD27C3FF0CC013FD0F
:1004400005C0E0918A0AF0918B0A04C0E0918C0A01
:10045000F0918D0A0995C0FF0CC010FD05C0E09118
:10046000620AF091630A04C0E091720AF091730A83
:100470000995D093820AFF91EF91DF91CF91BF91BF
:10048000AF919F918F917F916F915F914F913F912C
:100490002F911F910F900FBE0F901F901895ADE9EF
:1004A000B0E0E5E5F2E00C9418145C014B013A0170
:1004B00080E090E08A189B086A187B088C010F5F27
:1004C0001F4F7501C12CD12CEAE0E89FD001E99FB4
:1004D000B00D1124C157DF4FB983A883CF58D04046
:1004E000F7016491F401EE0DFF1D2491C757DF4F12
:1004F0002883C958D040F301EE0DFF1D3491C55734
:10050000DF4F3883CB58D04070E080E090E00E940D
:10051000B91520ED33EB49E55EE30E94A6161B01F9
:100520002C01C557DF4F4881CB58D040642F70E075
:1005300080E090E00E94B91529E537E147E35FE3E9
:100540000E94A6169B01AC01C201B1010E94B31426
:100550001B012C01C757DF4FA881C958D0406A2F13
:1005600070E080E090E00E94B91528E93DED43E994
:100570005DE30E94A6169B01AC01C201B1010E947D
:10058000B31420E030E04FE753E40E941E150E94B0
:100590008615C157DF4FE881F981CF58D040EC0D67
:1005A000FD1D21E030E02C0F3D1FE20FF31F6083A3
:1005B0003FEFC31AD30AE00EF11E4AE0C416D1047D
:1005C00009F08ECFC8010A30110509F077CF8BED05
:1005D0009FE0A9E4B0E480938E0A90938F0AA093E1
:1005E000900AB093910A00E010E0C12CD12C760162
:1005F0009AE0792EA12CB12C709E4001719E900C36
:100600001124F401EA0DFB1D21E030E02C0F3D1F09
:10061000E20FF31F6081772767FD7095872F972F73
:100620000E94B9159B01AC01C701B6010E94B31429
:100630006B017C013FEFA31AB30A4AE0A416B10490
:1006400001F70F5F1F4F0A301105A1F620E030E0DF
:10065000A9010E941715882309F180E090E06AE063
:1006600071E020E030E0689FA001699F500D1124E7
:10067000FA01E20FF31FA1E0B0E0AC0FBD1FEA0FDB
:10068000FB1FA081B72FBA1BB0832F5F3F4F2A30CB
:10069000310571F701968A30910519F7212C312C1B
:1006A000B101882777FD8095982F0E94B91520E029
:1006B00030E040EA50E40E94B21420E030E040E034
:1006C0005FE30E94B3142B013C019B01AC010E942B
:1006D000A616C157DF4F688379838A839B83CF58DF
:1006E000D04000E010E02AE0229DF001239DF00DB3
:1006F0001124C856DF4FF983E883C859D040B801A8
:1007000065507109882777FD8095982F0E94B9154B
:1007100020E030E040E05FE30E94B3146B017C0115
:100720009B01AC010E94A616C157DF4F2881398179
:100730004A815B81CF58D0400E94B3140E945F175A
:100740009B01AC01C856DF4FE881F981C859D04000
:10075000E00FF11F81E090E08C0F9D1FE80FF91F63
:100760006081772767FD7095872F972FC656DF4FDB
:100770002883CA59D040C556DF4F3883CB59D04063
:10078000C456DF4F4883CC59D040C356DF4F5883FF
:10079000CD59D0400E94B915C656DF4F2881CA599D
:1007A000D040C556DF4F3881CB59D040C456DF4FBB
:1007B0004881CC59D040C356DF4F5881CD59D040E5
:1007C0000E94A6160E948615C956DF4F6883C75936
:1007D000D040C757DF4F19821882C958D040C75739
:1007E000DF4FA881B981C958D040BD01882777FD66
:1007F0008095982F0E94B915C557DF4F688379837C
:100800008A839B83CB58D04022E93AE046E85FE3F5
:100810000E94A6162BED3FE049E450E40E94B2147A
:100820004B015C010E941B159B01AC01C501B40189
:10083000C656DF4F2883CA59D040C556DF4F38838C
:10084000CB59D040C456DF4F4883CC59D040C35613
:10085000DF4F5883CD59D0400E945517CD56DF4FFA
:10086000688379838A839B83C359D040C656DF4F00
:100870002881CA59D040C556DF4F3881CB59D04066
:10088000C456DF4F4881CC59D040C356DF4F588102
:10089000CD59D040C701B6010E94A6164B015C019C
:1008A000CD56DF4F288139814A815B81C359D040C1
:1008B000C301B2010E94A6169B01AC01C501B4019F
:1008C0000E94B3144B015C0120E030E0A9010E94BA
:1008D000A21687FD1AC0C501B4010E94861588279B
:1008E00077FD8095982F0E94B91526E93EE44FE8E0
:1008F0005FE30E941E150E9486155B01C757DF4FFC
:1009000088819981C958D04021C0C501B40190584F
:1009100026E93EE44FE85FE30E941E150E9486151B
:100920005B0120E030E040E450E4C557DF4F6881D0
:1009300079818A819B81CB58D0400E94B3140E9458
:100940008615CB0166E070E00E947F13B6E0BA9D89
:10095000F001BB9DF00D1124E80FF91F25E630E0F2
:100960002C0F3D1FE20FF31F8081C956DF4F3881E6
:10097000C759D040830F8083C757DF4F8881998143
:10098000C958D0400196C757DF4F99838883C9580B
:10099000D040069709F023CF0F5F1F4F0A30110593
:1009A00009F0ADCE9FEF291A390AAAE02A163104C0
:1009B00009F076CEA6966FADA697772767FD70955E
:1009C000872F972F0E94B9151B012C01A6966FAD9A
:1009D000A697772767FD7095872F972F0E94B915E7
:1009E0006B017C01812C912CA12CB12C86E0889D7F
:1009F0008001899D100D112438016A0C7B1CE5E6ED
:100A0000F0E0EC0FFD1F6E0E7F1ED3016C91772777
:100A100067FD7095872F972F0E94B9159B01AC0138
:100A2000C201B1010E94171587FF0BC0F30160815D
:100A3000772767FD7095872F972F0E94B9151B01A7
:100A40002C0138016A0C7B1C25E630E02C0F3D1F81
:100A5000620E731ED3016C91772767FD7095872F07
:100A6000972F0E94B9159B01AC01C701B6010E94E6
:100A7000A21618165CF4F3016081772767FD709564
:100A8000872F972F0E94B9156B017C01FFEFAF1ADA
:100A9000BF0A26E0A216B10409F0AECF3FEF831AD9
:100AA000930A46E08416910409F09ECFA7019601AF
:100AB000C201B1010E94B2142B013C01A12CB12C46
:100AC000312C86E0282E812C912C2A9CC0012B9C55
:100AD000900D1124C757DF4F99838883C958D040A0
:100AE000C757DF4F08811981C958D040080D191D1B
:100AF000A5E6B0E0AC0FBD1F0A0F1B1FF801608117
:100B0000772767FD7095872F972F0E94B915A7014A
:100B100096010E94B214A30192010E941E1520E0CA
:100B200030E040EC5FE30E9409170E948615D8016F
:100B30006C938C91380EBFEF8B1A9B0AE6E08E16F1
:100B4000910471F6FFEFAF1ABF0A26E0A216B104B6
:100B500009F0B9CF832DC356DF4FE2E10C94341472
:100B600087E0E4E4F1E0ABE7BAE001900D928A950A
:100B7000E1F73F9A87E0EBE4F1E0A4E7BAE0019007
:100B80000D928A95E1F7559A87E0E2E5F1E0A4E657
:100B9000BAE001900D928A95E1F7209A0895FC0140
:100BA000A281B38134812C9181E090E0032E01C0B9
:100BB000880F0A94EAF7672B19F4282B2C9303C0AB
:100BC000809582238C932FEF83EC99E02150804015
:100BD0009040E1F700C00000A281B3812C9181E038
:100BE00090E0048002C0880F991F0A94E2F728273A
:100BF0002C932FEF83EC99E0215080409040E1F757
:100C000000C00000089560E070E08BE79AE0C7DF65
:100C100061E070E084E69AE0C2DF61E070E084E7C2
:100C20009AE0BDDF60E070E08BE79AE0B8DF61E05A
:100C300070E084E69AE0B3DF61E070E084E79AE078
:100C4000AECFA3E0B0E0E7E2F6E00C9426148C010E
:100C5000FC0120812A3509F4CFC074F4273409F44B
:100C60000EC124F4253409F473C01FC12035A9F046
:100C7000223509F4A1C019C1203779F03CF425369A
:100C800009F466C0273609F4FAC00FC1223709F407
:100C900093C02A3709F4B0C008C1809131068F9300
:100CA000809130068F9380912F068F9380912E062E
:100CB0008F9380912D068F9380912C068F93809136
:100CC0002B068F9380912A068F938AEA91E09F9357
:100CD0008F930E941319809129068F938091280683
:100CE0008F93809127068F93809126068F93809112
:100CF00025068F93809124068F93809123068F93EE
:100D0000809122068F938BEB91E09F938F930E94AB
:100D10001319809121068F93809120068F938091E3
:100D20001F068F9380911E068F9380911D068F93CF
:100D300080911C068F9380911B068F9380911A06D9
:100D40008F938DEC91E09F938F930E9413192EC087
:100D50008CED91E09F938F930E94131980E292E0B3
:100D60009F938F930E94131982E392E09F938F9336
:100D70000E94131988E196E09F938F93CE0103960A
:100D80009F938F9389E492E09F938F931F930F9388
:100D90000E947519809119068F93809118068F9380
:100DA0008FE492E09F938F930E9413190FB6F894EB
:100DB000DEBF0FBECDBF81C0CE0101969F938F9342
:100DC00002969F938F9389E492E09F938F931F9352
:100DD0000F930E9475198A818F9389818F938CE676
:100DE00092E09F938F930E94131989819A81909327
:100DF000150680931406DACF822F992787FD9095E8
:100E00009F932F938CE892E09F938F930E941319E6
:100E100081E090E0909317068093160610922A06C0
:100E200010922B0610922C0610922D0610922E0670
:100E300010922F0610923006109231061092220660
:100E40001092230610922406109225061092260670
:100E500010922706109228061092290610921A0660
:100E600010921B0610921C0610921D0610921E0670
:100E700010921F06109220061092210611C0809138
:100E800019068F93809118068F9389EA92E09F93B9
:100E90008F930E941319109201011092000178940F
:100EA0000F900F900F900F9008C081EC92E09F93ED
:100EB0008F930E9413190F900F902396E4E00C94E7
:100EC0004214A2E1B0E0E7E6F7E00C942414282FE6
:100ED00000E010E08EEEE82E82E0F82E283059F483
:100EE00002501109FF92EF922A8B0E9413190F9062
:100EF0000F902A891FC02A3019F4015011091AC015
:100F00002D30E9F0822F992787FD90952A8B0E943A
:100F10002419E1E0F0E0EC0FFD1FE00FF11F2A893A
:100F200020838091390B90913A0B0E94D518282F7D
:100F30008F3FB9F30F5F1F4F003111057CF28CEE2C
:100F400092E00E9429190031110529F482EF92E004
:100F50000E9429190DC0E1E0F0E0EC0FFD1FE00F49
:100F6000F11F10828981882319F0CE01019669DE74
:100F70006296E6E00C944014F89420913A06309181
:100F80003B0640913C0650913D0660913E067091B3
:100F90003F06809140069091410678940895279AE3
:100FA0002F9ABED58DD978940895CF93DF93C091B1
:100FB0001206D0911306C330D105E9F17BE17C9F85
:100FC000F0017D9FF00D1124E355F54F918380834F
:100FD00053834283852F880F880BDF011496448347
:100FE00011965C93119712968C93129713968C938B
:100FF000139714968C93149715968C9315971696B1
:101000008C93169717968C93158614866687308B6B
:10101000278781E090E0928B818B948B838B168A5B
:10102000158A108E178A928F818F2196D09313067E
:10103000C093120602C08FEF9FEFDF91CF9108950A
:1010400021E030E044E650E064E070E087EC90E1BD
:10105000ACDF22E030E04EE551E065E070E085E88D
:1010600090E1A3DF23E030E047E751E066E070E085
:1010700086E990E19ACF8FEF92E023DFEEE9FAE084
:1010800081818F9380818F9381E093E09F938F93F1
:101090000E941319809121068F93809120068F93CF
:1010A00080911F068F9380911E068F9380911D065D
:1010B0008F9380911C068F9380911B068F93809154
:1010C0001A068F938AE293E09F938F930E941319DD
:1010D000ECE0FBE081818F9380818F9384E593E046
:1010E0009F938F930E941319809129068F9380916B
:1010F00028068F93809127068F93809126068F93E1
:10110000809125068F93809124068F9380912306EA
:101110008F93809122068F9380E893E09F938F9323
:101120000E9413198091D40A9091D50A9F938F93AE
:101130008DEA93E09F938F930E9413198091DF0AA9
:101140009091E00A2DB73EB7205E3F4F0FB6F8945E
:101150003EBF0FBE2DBF9F938F938CED93E09F9367
:101160008F930E9413198091EF0A9091F00A9F9338
:101170008F938FE094E09F938F930E941319809137
:10118000FA0A9091FB0A9F938F938AE394E09F93CE
:101190008F930E9413198091B90A9091BA0A9F9374
:1011A0008F9389E694E09F938F930E941319809107
:1011B000C40A9091C50A9F938F9389E994E09F9305
:1011C0008F930E941319EAE2FBE081818F93808163
:1011D0008F938DEC94E09F938F930E9413198091CD
:1011E00031068F93809130068F9380912F068F93D5
:1011F00080912E068F9380912D068F9380912C06DF
:101200008F9380912B068F9380912A068F9388EF7E
:1012100094E09F938F930E9413198DB79EB7829687
:101220000FB6F8949EBF0FBE8DBF08950F931F9306
:1012300080911806909119060197C1F18BE1E9E5BB
:10124000F1E0A2E9BAE001900D928A95E1F78BE115
:10125000E4E7F1E0AEE1BBE001900D928A95E1F7A1
:101260008BE1EFE8F1E0A0E0BBE001900D928A9500
:10127000E1F7E6DE41E050E060E470E080E090E01D
:101280000E949C1100E010E020E03FE344EF51E0B9
:1012900060E071E081E090E00E94541140E951E08B
:1012A00060E074E083E090E00E949C111F910F9138
:1012B000089510922A0610922B0610922C06109276
:1012C0002D0610922E0610922F06109230061092C4
:1012D00031061092220610922306109224061092D4
:1012E00025061092260610922706109228061092C4
:1012F000290610921A0610921B0610921C061092D4
:101300001D0610921E0610921F06109220061092C3
:10131000210620E030E06BE141E050E0629FF00107
:10132000639FF00D1124E355F54F1586148681E077
:1013300090E0528B418B108E178A528F418F2F5F16
:101340003F4F2330310551F710929F0A10929E0AA9
:101350009093A40A8093A30A1092AA0A1092A90A51
:101360009093AC0A8093AB0A10920D0B10920C0B69
:101370009093120B8093110B1092180B1092170B75
:1013800090931A0B8093190B10922B0B10922A0B2F
:101390009093300B80932F0B1092360B1092350BDD
:1013A0009093380B8093370B10923A0610923B06BD
:1013B00010923C0610923D0610923E0610923F0697
:1013C0001092400610924106109232061092330697
:1013D0001092340610923506109236061092370697
:1013E000109238061092390608950F931F9381E0EA
:1013F00090E0909301018093000120913A06309192
:101400003B0640913C0650913D0660913E0670912E
:101410003F06809140069091410628393A434105A4
:101420005105610571058105910509F008F43BC07E
:101430008091180690911906892BA9F186E295E012
:101440009F938F930E94131916DE10921906109223
:1014500018062FDF0F900F9026C08091390B9091C6
:101460003A0B0E94D5182DDD809116069091170633
:10147000892B29F01EDF1092170610921606409154
:101480001406509115064115510569F000E010E071
:1014900020E03FE360E071E081E090E005D710924A
:1014A0001506109214068091000190910101892B7C
:1014B000A1F68091180690911906B8DE1F910F9140
:1014C00008956DDD4DDB9FDB0E947B01E091920A68
:1014D000F091930A0995E0911E0BF0911F0B09956D
:1014E000E091000BF091010B09952FEF83ED90E354
:1014F000215080409040E1F700C00000E091920A46
:10150000F091930A0995E0911E0BF0911F0B09953C
:10151000E091000BF091010B0995269A249A6E9A9E
:10152000569A08951F920F920FB60F9211243F9270
:101530004F925F926F927F928F929F92AF92BF92E3
:10154000CF92DF92EF92FF920F931F932F933F93CF
:101550004F935F936F937F938F939F93AF93BF93BB
:10156000CF93DF93EF93FF9380910001909101015E
:10157000892B09F0AEC020913A0630913B0640918C
:101580003C0650913D0660913E0670913F06809169
:1015900040069091410628393A43410551056105BD
:1015A00071058105910549F040F0809118069091F0
:1015B0001906892B11F019DF8CC020913A06309161
:1015C0003B0640913C0650913D0660913E0670916D
:1015D0003F068091400690914106A1E00E946D1463
:1015E00020933A0630933B0640933C0650933D06C9
:1015F00060933E0670933F068093400690934106A9
:10160000812C912CBBE13B2E44244394512C2091FE
:101610003A0630913B0640913C0650913D06609160
:101620003E0670913F068091400690914106389C9D
:10163000E001399CD00D1124C355D54FEA81FB81BF
:101640001F2F110F110B5F01C12ED12EE12EF12E94
:10165000012F0E94BA13A0E00E94791491F5209105
:101660003A0630913B0640913C0650913D06609110
:101670003E0670913F068091400690914106EA81B6
:10168000FB816F88788C1F2F110F110B5F01C12E0A
:10169000D12EE12EF12E012F0E94BC135901A61864
:1016A000B708BD86AC865A8E498E29893A898B89BE
:1016B0009C89281739072CF489899A8901969A8B75
:1016C000898B8FEF881A980AE3E08E16910409F04F
:1016D0009ECFFF91EF91DF91CF91BF91AF919F91FD
:1016E0008F917F916F915F914F913F912F911F91BA
:1016F0000F91FF90EF90DF90CF90BF90AF909F90B1
:101700008F907F906F905F904F903F900F900FBEA3
:101710000F901F9018951F920F920FB60F921124E1
:101720008F929F92AF92BF92CF92DF92EF92FF92F1
:101730000F931F932F933F934F935F936F937F93D9
:101740008F939F93AF93BF93CF93EF93FF9380912A
:10175000000190910101892B09F08EC020912A0689
:1017600030912B0640912C0650912D0660912E064B
:1017700070912F068091300690913106A1E00E9471
:101780006D1420932A0630932B0640932C06509319
:101790002D0660932E0670932F068093300690934B
:1017A00031068091180690911906029741F42FEFA7
:1017B00089EF90E0215080409040E1F71BC080917C
:1017C000180690911906049741F42FEF86E791E0EF
:1017D000215080409040E1F70DC080911806909113
:1017E0001906069749F42FE780E295E021508040E2
:1017F0009040E1F700C0000020913A0630913B068E
:1018000040913C0650913D0660913E0670913F0626
:1018100080914006909141068090210BC091200B51
:10182000982C990C9908AC2EB82CC92CD92CE92CE1
:10183000F92C092D192D9ED7A0E00E947914E1F40E
:1018400020913A0630913B0640913C0650913D066E
:1018500060913E0670913F0680914006909141064E
:101860008BD7490180912A0690912B06881A990AF4
:1018700090922B0B80922A0BFF91EF91CF91BF9109
:10188000AF919F918F917F916F915F914F913F9118
:101890002F911F910F91FF90EF90DF90CF90BF900D
:1018A000AF909F908F900F900FBE0F901F90189544
:1018B0001F920F920FB60F9211242F923F924F92C8
:1018C0005F926F927F928F929F92AF92BF92CF92D0
:1018D000DF92EF92FF920F931F932F933F934F93BB
:1018E0005F936F937F938F939F93AF93BF93EF9388
:1018F000FF93CF93DF9300D01F92CDB7DEB78091D7
:10190000000190910101892B09F0E4C08091180633
:1019100090911906089709F4789420913206309135
:101920003306409134065091350660913606709129
:1019300037068091380690913906A1E0CED72093E2
:101940003206309333064093340650933506609345
:1019500036067093370680933806909339062091A7
:10196000320680913306809134068091350680914D
:1019700036068091370680913806809139062370AB
:1019800030E040E050E060E070E080E090E0A0E017
:10199000B0D709F09FC0E091000BF091010B0995C1
:1019A0008091180690911906039741F42FEF89EF63
:1019B00090E0215080409040E1F70DC080911806E2
:1019C00090911906059751F4AFEFE6E7F1E0A150C9
:1019D000E040F040E1F700C0000014C0809118061C
:1019E00090911906079741F42FE780E295E0215086
:1019F00080409040E1F7EFCF809118069091190652
:101A0000089791F3209122063091230640912406F5
:101A10005091250660912606709127068091280630
:101A200090912906A1E059D719012A013B014C01E7
:101A300020932206309223064093240650922506D6
:101A400060932606709227068093280690922906B6
:101A5000209132063091330640913406509135067C
:101A6000609136067091370680913806909139065C
:101A7000A091030BAB83E091020BE983AA0FAA0BA1
:101A8000AA8302E00ED7AE2EBB80CA2EDA2EEC2C33
:101A9000FC2C0C2D1A2F6ED6A0E02BD7D9F4209158
:101AA00032063091330640913406509135066091EC
:101AB000360670913706809138069091390602E01B
:101AC000F0D60C2D59D65901A218B308B0920D0BBF
:101AD000A0920C0B0F900F900F90DF91CF91FF9180
:101AE000EF91BF91AF919F918F917F916F915F9196
:101AF0004F913F912F911F910F91FF90EF90DF90A9
:101B0000CF90BF90AF909F908F907F906F905F909D
:101B10004F903F902F900F900FBE0F901F901895F1
:101B200010921B0B1092FF0A1092FE0A87E690E0BB
:101B30009093CD008093CC00EAECF0E08081866049
:101B40008083E9ECF0E0808188608083808180611F
:101B5000808380818068808308951F920F920FB6E2
:101B60000F9211248F939F93EF93FF938091CE0058
:101B70008D3021F090911B0B923338F081E090E092
:101B80009093FF0A8093FE0A2EC0883081F48091E2
:101B90001B0B882329F080911B0B815080931B0B1A
:101BA000E0911B0BF0E0E056F84F10821CC0803231
:101BB00079F08B3269F093ED980F923048F090ED08
:101BC000980F9A3028F0982F9F7D91549A3158F4AD
:101BD000E0911B0BF0E0E056F84F808380911B0BE7
:101BE0008F5F80931B0BFF91EF919F918F910F90CF
:101BF0000FBE0F901F9018959091C80095FFFCCFD5
:101C00008093CE000895CF93DF93EC0189918823D0
:101C100011F0F2DFFBCF8DE0EFDFDF91CF91089580
:101C2000A5E3B0E0E5E1FEE013C68DE09AE0A0E0B8
:101C3000B0E089839A83AB83BC83FE0135968EE244
:101C4000DF011D928A95E9F7CE01C3969F938F938A
:101C500002969F938F9389E492E09F938F9380EAFB
:101C600097E09F938F930E9475190FB6F894DEBF8B
:101C70000FBECDBF8DA9863509F452C0A4F48035BE
:101C800019F164F4843449F1863409F04CC08CA90C
:101C90008F938BA98F9384EA95E02DC0823529F12B
:101CA0008335C1F140C08037A9F03CF48A35A9F1F1
:101CB0008436C9F563E975E012C0863789F18A3741
:101CC00061F1833781F526C060E675E0CE010196AB
:101CD0000E94CE1861E775E002C062E875E0CE01AF
:101CE00001960E94CE1881E022C08CA98F938BA907
:101CF0008F9386EB95E09F938F93CE0101969F93F0
:101D00008F930E9456190F900F900F900F900F9085
:101D10000F90E9CF67EC75E0E2CF65ED75E0DFCFBE
:101D200065EE75E0DCCF82EF95E06DDF80E010922C
:101D30001B0B92E3E0EAF7E0DF011D929A95E9F7C9
:101D4000882319F0CE0101965EDF1092FF0A1092EF
:101D5000FE0AE596E2E098C5CF93DF9349E150E0B3
:101D600061E070E084E091E020E030E0FC01E20F0F
:101D7000F31FA081B181EB01CA1BDB0BD183C083B0
:101D80002E5F3F4F2A30310589F70A96D1E086331E
:101D90009D0751F7415051094115510519F780919F
:101DA000040190910501DF91CF9108958FE99FE0A3
:101DB0000197F1F700C000008FE99FE00197F1F76C
:101DC00000C0000081E090E0089580E090E0089578
:101DD0008FE99FE00197F1F700C0000081E090E0FB
:101DE00008958FE99FE00197F1F700C0000081E0BE
:101DF00090E008958FE39FE10197F1F700C00000A4
:101E000082E090E008958FED9EE20197F1F700C027
:101E1000000083E090E00895A6E1B0E0E1E1FFE09A
:101E200007C58091020190910301019685309105CB
:101E30003CF4909303018093020180E090E001C1A3
:101E4000109203011092020124E031E038872F83C1
:101E50001E8A1D8AAD89BE89BD01882777FD8095C0
:101E6000982F87D620E030E040E250E47BD520E098
:101E700030E040E05FE377D569837A838B839C838E
:101E80009B01AC0163D769877A878B879C870EEFAC
:101E90001FEFB801882777FD8095982F6AD620E03C
:101EA00030E040E05FE35FD56B017C01F801EE0FAD
:101EB000FF1F2F813885E20FF31F84819581BC01BC
:101EC000882777FD8095982F54D64B015C01A70198
:101ED0009601C701B6013AD729853A854B855C85BD
:101EE00042D59B01AC01C501B40130D76D877E8717
:101EF0008F87988B1E821D82212C312CAD81BE8153
:101F0000BD01882777FD8095982F33D623EC35EFD8
:101F100048E450E427D54B015C018DD59B01AC0111
:101F2000C501B401298B3A8B4B8B5C8BBED72B013F
:101F30003C0129893A894B895C89C701B60106D7DA
:101F40004B015C01A301920169817A818B819C81A3
:101F5000FDD69B01AC01C501B40105D54B015C0167
:101F600020E030E0A901EED687FD09C0C501B4012B
:101F7000CDD5CB0163E070E0C2D321010CC0C50117
:101F8000B401905820E030E040E450E457D5BED58D
:101F900093E0492E512CB5E0B69F3001B79F700CED
:101FA0001124640C751C660C771CF301EC5FFE4F6A
:101FB0003F01882777FD8095982FDBD59B01AC01E9
:101FC0006D857E858F859889CED44B015C01B201E9
:101FD000882777FD8095982FCCD59B01AC01C50152
:101FE000B401C1D493D5D3018D919C911197860FE3
:101FF000911D67FD9A958D939C93BFEF2B1A3B0A19
:10200000ED81FE813496FE83ED83F2E02F163104DC
:1020100009F074CF0F5F1F4F0130110509F039CF60
:102020002D893E892F5F3F4F3E8B2D8B8F81988569
:102030000A9698878F832330310509F00BCF81E012
:1020400090E06696E2E110C4A0E0B0E0E9E2F0E1E1
:10205000F7C3CAE0D0E004E011E0C12CD12C760136
:10206000A12CB12CF801EA0DFB1D6081718188273C
:1020700077FD8095982F7DD59B01AC01C701B601F6
:1020800072D46B017C0182E0A80EB11C8AE0A81614
:10209000B10441F7065F1F4F81E00633180701F7CF
:1020A00020E030E048EC51E4C701B601C7D420E09D
:1020B00030E040E05FE346D618162CF460E070E0B4
:1020C00080E89FE303C060E070E0CB012197209798
:1020D00009F0C1CF1BD5CB01CDB7DEB7EAE0CCC349
:1020E00085B190E1892785B981E090E0089585B1B7
:1020F00090E4892785B981E090E008958BB190E460
:1021000089278BB981E090E008958091FE08909135
:10211000FF08009721F090930109809300090E9425
:102120006C019093FF088093FE0808958091020946
:1021300090910309892B51F1109203091092020921
:10214000E0917D0AF0917E0A208181E090E000908C
:102150007F0A02C0880F991F0A94E2F7282720837C
:102160008FE19EE40197F1F700C00000E0917D0A45
:10217000F0917E0A208181E090E000907F0A02C009
:10218000880F991F0A94E2F7282720830895A1E079
:10219000B0E0ECECF0E15CC340EB51E06CE471E0EA
:1021A00084E192E00E944F0289832196E2E06CC3B1
:1021B00014BC15BC94B5926094BD95B5982B95BD93
:1021C00067BDEEE6F0E080818260808381E090E090
:1021D000089510928000E1E8F0E01082908198600C
:1021E00090839081982B90837093890060938800EE
:1021F000EFE6F0E080818260808381E090E00895E6
:1022000010929000E1E9F0E0108290819860908354
:102210009081982B90837093990060939800E1E7E8
:10222000F0E080818260808381E090E00895A0E802
:10223000B0E01C92E1E8F0E010829C9190629C93E7
:102240009C9192609C939081906190839081986022
:1022500090839081982B908370938B0060938A0079
:10226000309387002093860081E090E008958034C9
:10227000910591F034F48130910561F0089791F067
:102280000FC0811521E0920749F08115944041F477
:1022900085E0089581E0089583E0089584E008953D
:1022A00080E0089582E00895A0E0B0E0E9E5F1E182
:1022B000BFC2EC011B015A0168017901823091050E
:1022C00018F08330910591F560E87EE380E090E0BE
:1022D0009101442737FD4095542F24D2D50144D293
:1022E0002B013C0144D49B01AC01C701B6012ED5A2
:1022F00012D44B015C01209741F48FEF88169104B2
:10230000A104B10441F038F011C08114910481E0BE
:10231000A806B10458F4C101AADF219739F4870156
:102320007601A3019201B40182DF02C08FEF9FEF1B
:10233000CDB7DEB7E2E198C2A0E0B0E0E1EAF1E1BA
:1023400081C2EC018B017A018230910518F0833053
:10235000910589F560E87EE380E090E098014427EC
:1023600037FD4095542FDED1D701FED16B017C01A2
:10237000209741F48FEFC816D104E104F10441F035
:1023800038F019C0C114D10481E0E806F10498F4D2
:10239000C8016DDFC130D10541F0C330D10541F036
:1023A000CD2B49F46C2D04DF08C0B60112DF05C047
:1023B000B60126DF02C08FEF9FEFCDB7DEB7E8E0B2
:1023C0005DC2A0E0B0E0E6EEF1E137C21092D800C5
:1023D0000E943B088091000190910101892B41F1FD
:1023E0008091390B90913A0BE0D60E946107809161
:1023F000160690911706892B31F00E945909109208
:1024000017061092160640911406509115064115B4
:10241000510501F300E010E020E03FE360E071E0EF
:1024200081E090E041DF1092150610921406D2CFA1
:1024300080911806909119060E94160983E89AE087
:102440000E94A00145EF59E061E070E083E89AE066
:102450000E94D70136D810923A0610923B0610928D
:102460003C0610923D0610923E0610923F061092D6
:1024700040061092410610923206109233061092D6
:1024800034061092350610923606109237061092D6
:1024900038061092390678948BE395E00E94610724
:1024A0000E94590910921706109216068DE395E0C6
:1024B0009F938F93B8D60F900F90C1E0D0E0FBE1CF
:1024C0007F2EA2E08A2E912C20913A0630913B0675
:1024D00040913C0650913D0660913E0670913F064A
:1024E000809140069091410628393A4341055105B3
:1024F000610571058105910549F040F0809118064C
:1025000090911906892B11F00E94F50920913A0645
:1025100030913B0640913C0650913D0660913E064D
:1025200070913F068091400690914106E4E6AE2E00
:10253000B12CC12CD12CE12CF12C00E010E01AD1EF
:10254000A0E0D7D1E1F5D093AC0AC093AB0A2091BB
:102550003A0630913B0640913C0650913D06609111
:102560003E0670913F068091400690914106B090E2
:10257000950AA090940A1B2D110F110BC12ED12E7C
:10258000E12EF12E012FF8D059018091A90A9091E6
:10259000AA0AA81AB90AB0929F0AA0929E0A80912C
:1025A000A30A9091A40A2091A50A3091A60A821745
:1025B00093072CF401969093A40A8093A30A809128
:1025C000AB0A9091AC0A019709F04DC0F894909233
:1025D000AC0A8092AB0A7894E091920AF091930A47
:1025E000099520911A0630911B0640911C065091C6
:1025F0001D0660911E0670911F0680912006909125
:102600002106A1E06AD120931A0630931B0640935D
:102610001C0650931D0660931E0670931F06809340
:10262000200690932106F8948091A90A9091AA0A15
:1026300001969093AA0A8093A90A8091A30A909187
:10264000A40A01979093A40A8093A30A1816190666
:102650002CF4D093AC0AC093AB0A4FC01092AC0AD2
:102660001092AB0A4AC08091C60A9091C70A01979E
:1026700069F08091E10A9091E20A019751F080910E
:10268000FC0A9091FD0A02E010E005C000E010E0B5
:1026900002C001E010E0F894709EF001719EF00D10
:1026A0001124E355F54F928E818E7894709EF0013F
:1026B000719EF00D1124E355F54F0190F081E02D4E
:1026C0000995F894709EF001719EF00D1124E35568
:1026D000F54F8789908D0196908F878B818992899C
:1026E0000197928B818B81899289181619061CF4A7
:1026F000D28FC18F02C0128E118E7894E5CE97FBD7
:10270000072E16F4009406D077FD08D0FED007FC03
:1027100005D03EF4909581959F4F089570956195F1
:102720007F4F0895A1E21A2EAA1BBB1BFD010DC00D
:10273000AA1FBB1FEE1FFF1FA217B307E407F50771
:1027400020F0A21BB30BE40BF50B661F771F881F4D
:10275000991F1A9469F760957095809590959B01E3
:10276000AC01BD01CF010895B7FFE3C0E2D0821BE9
:10277000930B0895689401C0E8948F929F92CF9331
:10278000DF9305D0DF91CF919F908F90089588249B
:102790009924F401E401B0E49F93AA279A158B04CD
:1027A0009C04ED05FE05CF05D007A10798F4AD2FD9
:1027B000DC2FCF2FFE2FE92D982C892E982F872FD5
:1027C000762F652F542F432F322F2227B85031F701
:1027D000BF9127C01B2EBF91BB27220F331F441F61
:1027E000551F661F771F881F991F881C991CEE1F95
:1027F000FF1FCC1FDD1FAA1FBB1F8A149B04EC0503
:10280000FD05CE05DF05A007B10748F08A189B0833
:10281000EC09FD09CE09DF09A00BB10B21601A9468
:10282000E1F62EF49401AF01BE01CD01000C089534
:102830002F923F924F925F926F927F928F929F92D0
:10284000AF92BF92CF92DF92EF92FF920F931F93BE
:10285000CF93DF93CDB7DEB7CA1BDB0B0FB6F8946F
:10286000DEBF0FBECDBF09942A88398848885F84AF
:102870006E847D848C849B84AA84B984C884DF8020
:10288000EE80FD800C811B81AA81B981CE0FD11D04
:102890000FB6F894DEBF0FBECDBFED01089597FBD4
:1028A00010F8169400080F93083098F00850232F62
:1028B000342F452F562F672F782F892F902DF4CF47
:1028C000059497958795779567955795479537958B
:1028D00027950A95AAF70F9108950024A7FD009463
:1028E0002A0F301D401D501D601D701D801D901D44
:1028F00008950024A7FD00942A17300540055005CF
:1029000060057005800590050895AA1BBB1B51E169
:1029100007C0AA1FBB1FA617B70710F0A61BB70B4F
:10292000881F991F5A95A9F780959095BC01CD01F4
:10293000089509D0A59F900DB49F900DA49F800D80
:10294000911D11240895A29FB001B39FC001A39FC0
:10295000700D811D1124911DB29F700D811D1124D8
:10296000911D08955058BB27AA270ED0A0C169D148
:1029700030F06ED120F031F49F3F11F41EF45EC1AF
:102980000EF4E095E7FB54C1E92FB3D180F3BA17F9
:10299000620773078407950718F071F49EF5CBC1A1
:1029A0000EF4E0950B2EBA2FA02D0B01B90190016A
:1029B0000C01CA01A0011124FF27591B99F0593FAE
:1029C00050F4503E68F11A16F040A22F232F342FF6
:1029D0004427585FF3CF469537952795A795F04044
:1029E0005395C9F77EF41F16BA0B620B730B840B59
:1029F000BAF09150A1F0FF0FBB1F661F771F881F11
:102A0000C2F70EC0BA0F621F731F841F48F4879568
:102A100077956795B795F7959E3F08F0B3CF939557
:102A2000880F08F09927EE0F979587950895DCD0C9
:102A300008F481E0089514D1E3954AC10CD037C160
:102A400007D140F0FED030F021F45F3F19F0F0C024
:102A5000511172C1F3C04DD198F39923C9F3552395
:102A6000B1F3951B550BBB27AA2762177307840781
:102A700038F09F5F5F4F220F331F441FAA1FA9F337
:102A800033D00E2E3AF0E0E830D091505040E69529
:102A9000001CCAF729D0FE2F27D0660F771F881F8A
:102AA000BB1F261737074807AB07B0E809F0BB0B79
:102AB000802DBF01FF2793585F4F2AF09E3F51059D
:102AC00068F0B6C039C15F3FECF3983EDCF3869501
:102AD00077956795B795F7959F5FC9F7880F911D13
:102AE0009695879597F90895E1E0660F771F881FFF
:102AF000BB1F621773078407BA0720F0621B730BB2
:102B0000840BBA0BEE1F88F7E095089504D0689403
:102B1000B11112C10895F5D088F09F5790F0B92FE8
:102B20009927B751A0F0D1F0660F771F881F991F22
:102B30001AF0BA95C9F712C0B13081F0FCD0B1E0FB
:102B40000895F9C0672F782F8827B85F39F0B93F0B
:102B5000CCF3869577956795B395D9F73EF4909524
:102B60008095709561957F4F8F4F9F4F0895E894A2
:102B700009C097FB3EF490958095709561957F4FC5
:102B80008F4F9F4F9923A9F0F92F96E9BB27939573
:102B9000F695879577956795B795F111F8CFFAF483
:102BA000BB0F11F460FF1BC06F5F7F4F8F4F9F4FB4
:102BB00016C0882311F096E911C0772321F09EE812
:102BC000872F762F05C0662371F096E8862F70E078
:102BD00060E02AF09A95660F771F881FDAF7880F52
:102BE0009695879597F90895990F0008550FAA0BA8
:102BF000E0E8FEEF16161706E807F907C0F0121610
:102C00001306E407F50798F0621B730B840B950B12
:102C100039F40A2661F0232B242B252B21F4089567
:102C20000A2609F4A140A6958FEF811D811D089504
:102C300097F99F6780E870E060E008959FEF80EC6F
:102C4000089500240A941616170618060906089512
:102C500000240A9412161306140605060895EECFF2
:102C600050D0E8F3E894E0E0BB279F57F0F02AED5E
:102C70003FE049EC06C0EE0FBB0F661F771F881FB1
:102C800028F0B23A62077307840728F0B25A620B41
:102C9000730B840BE3959A9572F7803830F49A950C
:102CA000BB0F661F771F881FD2F7904879C1092E86
:102CB0000394000C11F4882352F0BB0F40F4BF2B97
:102CC00011F460FF04C06F5F7F4F8F4F9F4F0895D7
:102CD000EF93E0FF06C0A2EA2AED3FE049EC5FEB8C
:102CE00053DEE5DF0F90039401FC9058ECEAF0E02E
:102CF0008FC157FD9058440F551F59F05F3F71F039
:102D00004795880F97FB991F61F09F3F79F0879552
:102D10000895121613061406551FF2CF4695F1DFDB
:102D200008C0161617061806991FF1CF869571056B
:102D3000610508940895E894BB2766277727CB019F
:102D400097F9089551DF08F48FEF08950BD0AFCFB6
:102D500078DF28F07DDF18F0952309F069CF6ECF7A
:102D60001124EACFC6DFA0F3959FD1F3950F50E071
:102D7000551F629FF001729FBB27F00DB11D639F2D
:102D8000AA27F00DB11DAA1F649F6627B00DA11DD3
:102D9000661F829F2227B00DA11D621F739FB00D79
:102DA000A11D621F839FA00D611D221F749F3327E9
:102DB000A00D611D231F849F600D211D822F762F82
:102DC0006A2F11249F5750408AF0E1F088234AF07F
:102DD000EE0FFF1FBB1F661F771F881F91505040CB
:102DE000A9F79E3F510570F023CFA6CF5F3FECF3CC
:102DF000983EDCF3869577956795B795F795E795B7
:102E00009F5FC1F7FE2B880F911D9695879597F9C7
:102E10000895FA01EE0FFF1F30962105310599F153
:102E20006115710561F48038BFE39B0749F168942F
:102E30009038810561F08038BFEF9B0741F09923FE
:102E400042F5FF3FE1053105210511F1E8940894B1
:102E5000E795D901AA2329F4AB2FBE2FF85FD0F351
:102E600010C0FF5F70F4A695E0F7F73950F019F045
:102E7000FF3A38F49F779F930CD00F9007FC90583F
:102E800008953EF0DBCE60E070E080E89FE30895B7
:102E90004FE79F775F934F933F932F930CD12F91E1
:102EA0003F914F915F9152DF4DC09F93D9DE0F90BC
:102EB00007FCEE5F0DCF11F40EF4C0CE6FC021DF22
:102EC000D0F39923D9F3CEF39F57550B87FF74D0D6
:102ED0000024A0E640EA900180585695979528F482
:102EE000805C660F771F881F20F02617370748077A
:102EF00030F4621B730B840B202931294A2BA695D1
:102F000017940794202531254A2758F7660F771F15
:102F1000881F20F026173707480730F4620B730B21
:102F2000840B200D311D411DA09581F7B901842F1F
:102F30009158880F96958795089519F40EF078CEDC
:102F4000FACE7CCEDEDEC8F39638C0F707F80F92D3
:102F5000E8942BE33AEA48EB5FE706DF0F920F9223
:102F60000F924DB75EB70F92E6D0EAECF0E02BD0AF
:102F70004F915F91EF91FF91E595EE1FFF1F49F093
:102F8000FE57E0684427EE0F441FFA95E1F741959C
:102F9000550B58D00F9007FE4CC008959F3F31F05D
:102FA000915020F4879577956795B795880F911D77
:102FB0009695879597F9089591505040660F771F21
:102FC000881FD2F70895DF93CF931F930F93FF923B
:102FD000EF92DF927B018C01689405C0DA2EEF013D
:102FE000C1DEFE01E894A591259135914591559159
:102FF000AEF3EF01C9DCFE019701A801DA9479F77D
:10300000DF90EF90FF900F911F91CF91DF91089586
:103010009F938F937F936F93FF93EF939B01AC01EB
:1030200095DEEF91FF91CFDF2F913F914F915F910F
:103030008DCE9B01AC0160E070E080E89FE3FECCA8
:10304000F7CDACCF5EDEE8F39923D9F3940F511D91
:10305000BBF39150504094F059F0882332F0660F42
:10306000771F881F91505040C1F79E3F510544F78C
:10307000880F911D9695879597F908955F3FACF05D
:10308000983E9CF0BB27869577956795B79508F491
:10309000B1609395C1F7BB0F58F711F460FFE8CF0B
:1030A0006F5F7F4F8F4F9F4FE3CF46CE0EF076CFAF
:1030B000C5CD6894BDCD25DEC8F39923D1F3C6F301
:1030C000DF93CF931F930F93FF92C92FDD278823A0
:1030D0002AF02197660F771F881FDAF720E030E08B
:1030E00040E85FEB9FE3883920F0803E30F0219686
:1030F0008F7739DCE2EFF0E003C035DCEFE1F1E09F
:1031000062DF8B01BE01EC01FB2E6F5771097595D3
:10311000771F880B990B2DDD28E132E741E35FE350
:1031200021DEAF2D9801AE01FF900F911F91CF913D
:10313000DF912ADCBCCDFA01DC01AA0FBB1F9B0189
:10314000AC01BF5728F422273327442750781FC0EB
:10315000B75188F4AB2F0024469537952795011C6D
:10316000A395D2F3002069F0220F331F441FB395BB
:10317000DAF30DD0F7CB61307105A0E88A07B946C4
:1031800030F49B01AC01662777278827907830962A
:1031900021F020833183428353830895FB01DC01B6
:1031A00001900D920020E1F70895CF93DF93EC0199
:1031B0002B8120FF33C026FF0AC02F7B2B838E81FB
:1031C0009F8101969F838E838A8190E029C022FF90
:1031D0000FC0E881F9818081992787FD909500973C
:1031E00019F420622B831AC03196F983E8830EC04C
:1031F000EA85FB85099597FF09C02B81019611F49B
:1032000080E101C080E2822B8B8308C02E813F8148
:103210002F5F3F4F3F832E83992702C08FEF9FEF91
:10322000DF91CF910895A0E0B0E0E8E1F9E110CBA3
:10323000FE01359661917191AF0180913B0B9091A8
:103240003C0B69D0E2E020CB60913B0B70913C0BD2
:10325000E8C40F931F93CF93DF93E0913B0BF09162
:103260003C0B238121FF1BC0EC0100E010E08991A1
:1032700060913B0B70913C0BDB011896ED91FC913A
:103280001997882331F00995892B89F30FEF1FEFE8
:10329000EECF8AE00995892B11F4C80102C08FEFA7
:1032A0009FEFDF91CF911F910F910895AEE0B0E0B5
:1032B000EBE5F9E1CBCA0D891E8986E08C831A8380
:1032C00009838FEF9FE79E838D83AE01475E5F4F3B
:1032D0006F89788DCE0101961ED0EF81F885E00FC1
:1032E000F11F10822E96E4E0CDCAAEE0B0E0EAE72E
:1032F000F9E1AECA85E08C838B899C899A838983A6
:10330000AE01495E5F4F6D897E89CE01019637D34C
:103310002E96E2E0B9CAACE0B0E0E0E9F9E188CA93
:103320007C016B018A01FC0117821682838181FF77
:10333000B0C1CE0101964C01F7019381F60193FDD6
:10334000859193FF81916F01882309F49EC1853295
:1033500039F493FD859193FF81916F01853221F4BA
:10336000B70190E05ED4E8CF512C312C20E0203220
:10337000A0F48B3269F030F4803259F0833269F472
:1033800020612CC08D3239F0803339F4216026C0A1
:103390002260246023C0286021C027FD27C030EDB3
:1033A000380F3A3078F426FF06C0FAE05F9E300D01
:1033B0001124532E13C08AE0389E300D1124332E71
:1033C00020620CC08E3221F426FD5FC1206406C04D
:1033D0008C3611F4206802C0883641F4F60193FD62
:1033E000859193FF81916F018111C1CF982F9F7DAE
:1033F0009554933028F40C5F1F4FFFE3F9830DC001
:10340000833631F0833771F0833509F057C021C01E
:10341000F801808189830E5F1F4F44244394512C0F
:10342000540114C03801F2E06F0E711CF801A08045
:10343000B18026FF03C0652D70E002C06FEF7FEF03
:10344000C5012C87E3D32C0183012C852F77222EF5
:1034500016C03801F2E06F0E711CF801A080B18037
:1034600026FF03C0652D70E002C06FEF7FEFC5013E
:103470002C87C1D32C012C852068222E830123FCAC
:1034800019C0832D90E048165906A0F4B70180E2D8
:1034900090E0C7D33A94F5CFF50127FC859127FE3C
:1034A00081915F01B70190E0BCD331103A94F1E013
:1034B0004F1A51084114510479F7DEC0843611F0D7
:1034C000893631F5F80127FF07C06081718182815B
:1034D00093810C5F1F4F08C060817181882777FD41
:1034E0008095982F0E5F1F4F2F76B22E97FF09C041
:1034F00090958095709561957F4F8F4F9F4F206875
:10350000B22E2AE030E0A401D7D3A82EA81843C0D9
:10351000853729F42F7EB22E2AE030E025C0F22F25
:10352000F97FBF2E8F36C1F018F4883579F0ADC021
:10353000803719F0883721F0A8C02F2F2061B22ED4
:10354000B4FE0DC08B2D8460B82E09C024FF0AC0C4
:103550009F2F9660B92E06C028E030E005C020E11C
:1035600030E002C020E132E0F801B7FE07C0608120
:103570007181828193810C5F1F4F06C060817181D0
:1035800080E090E00E5F1F4FA40196D3A82EA818EC
:10359000FB2DFF77BF2EB6FE0BC02B2D2E7FA51463
:1035A00050F4B4FE0AC0B2FC08C02B2D2E7E05C01C
:1035B0007A2C2B2D03C07A2C01C0752C24FF0DC052
:1035C000FE01EA0DF11D8081803311F4297E09C0CE
:1035D00022FF06C07394739404C0822F867809F08A
:1035E000739423FD12C020FF06C05A2C731418F4E4
:1035F000530C5718732C731460F4B70180E290E0F9
:103600002C870FD373942C85F6CF731410F43718CE
:1036100001C0312C24FF11C0B70180E390E02C875A
:1036200000D32C8522FF16C021FF03C088E590E05F
:1036300002C088E790E0B7010CC0822F867851F075
:1036400021FD02C080E201C08BE227FD8DE2B701BF
:1036500090E0E7D2A51430F4B70180E390E0E1D226
:103660005A94F8CFAA94F401EA0DF11D8081B701B4
:1036700090E0D7D2A110F6CF332009F45DCEB70188
:1036800080E290E0CED23A94F7CFF701868197811D
:1036900002C08FEF9FEF2C96E2E1E6C820FD09C043
:1036A000FC0123FD05C022FF02C0738362835183A6
:1036B0004083089544FD10C046FD10C0DB01FC01AD
:1036C000AA0FBB1FEE1FFF1F1094D1F76A0F7B1FBD
:1036D0008E1F9F1F31E003C033E001C034E0660F4E
:1036E000771F881F991F3150D1F7620F711D811DFF
:1036F000911D08950F931F93CF93DF938C01C80101
:1037000054DDEC0197FD06C063D2892BC1F7B801E7
:10371000CE01B9D2CE01DF91CF911F910F910895C3
:103720008F929F92AF92CF92DF92EF92FF920F9380
:103730001F93CF93DF93EC01A62E4A01022F35DDB4
:10374000AC0155274B32510521F04D32510549F45A
:103750000068AA9411F480E060C0CE0126DD97FDD8
:10376000FACF102F1D7F302F3073F1F48033E1F446
:10377000FF24FA94FA0C09F43DC0CE0116DD97FD42
:1037800039C0382F3F7D383549F41264AA94AA9481
:1037900089F1CE010ADD97FF07C02CC006FF02C0E9
:1037A000126001C01261AF2CC12CD12C760120ED2A
:1037B000280F283078F014FF03C0BE0164D217C070
:1037C0002A3040F016FFF9CF2F7D3FEE320F363012
:1037D000A0F72750412FC701B6016CDF6B017C01B8
:1037E0001260AA9451F0CE01E0DC97FFE0CF11FD0A
:1037F00004C0B1CFC12CD12C760117FF08C0F094C2
:10380000E094D094C094C11CD11CE11CF11C212F68
:10381000B701A601C40142DF81E0DF91CF911F9182
:103820000F91FF90EF90DF90CF90AF909F908F908F
:103830000895A1E2B0E0EFE1FCE10C941D145C01FD
:103840007A018E010F5F1F4F680180E2D8011D923F
:103850008A95E9F7F501738040E050E0812CB0E0F3
:10386000912C81E090E0F90173FCA59173FEA19188
:103870008F017A2F9F01A11103C080E090E07BC0EF
:10388000AE3519F44115510559F1E92DF0E0E41771
:10389000F5073CF4AD3569F1AD3219F4BB2319F1EC
:1038A00003C0B11101C08A2EE72FE695E695E69593
:1038B00086010E0F111DF801A72FA7708C0102C001
:1038C000000F111FAA95E2F7D801B081BA2BB0837F
:1038D000781559F0781510F47F5FE6CF7150E4CF7A
:1038E0009924939403C0B1E001C0B0E04F5F5F4FF3
:1038F000BACFBB2319F08E8180628E83911003C0F2
:103900009924939415C0F601CE01819620812095CB
:103910002193E817F907D1F7F3CFE114F10429F067
:10392000D7018C93F70131967F016150F1F0912C12
:10393000C50169A33ADC69A197FD15C0282F26951A
:1039400026952695F601E20FF11D208130E0AC01AD
:103950004770552702C0359527954A95E2F720FD17
:10396000DCCFB50190D1911088CFE114F10411F0B2
:10397000D7011C92C801A196EDE00C9439144F9226
:103980005F927F928F929F92AF92BF92CF92DF927F
:10399000EF92FF920F931F93CF93DF931F92CDB7B8
:1039A000DEB78C012B017A01FC0117821682A12C53
:1039B000F801D380F201D3FC8591D3FE8191382F99
:1039C0002F01882309F4EEC090E0398301D13981B9
:1039D000892B19F0C8018EDEEBCF353241F4F201AC
:1039E000D3FC3591D3FE31912F01353259F4C80102
:1039F0003983DBDB398197FDD3C03817C9F2B801B1
:103A000042D1D0C03A3241F4D3FC3591D3FE31914A
:103A10002F01BB24B39401C0B12C712C20ED230FD6
:103A20002A3088F4FB2DF260BF2E672D70E080E015
:103A300090E040E23FDE762EF201D3FC3591D3FEDA
:103A400031912F01EBCFB1FE03C0711003C0AAC0AA
:103A500077247A94383619F03C3661F014C0F201BC
:103A6000D3FC3591D3FE31912F01383661F4FB2D13
:103A7000F860BF2E8B2D8460B82EF201D3FC3591F7
:103A8000D3FE31912F01332309F48CC0632F70E0F2
:103A900088E792E03983A4D03981892B09F482C068
:103AA000B0FC07C0F701C080D180C70102967C013D
:103AB00002C0C12CD12C3E3649F4F8014681578111
:103AC00060E070E02B2DC601E9DD72CF333699F44A
:103AD000B1FC02C077247394C80167DB97FD60C016
:103AE000C114D10429F0F6018083C60101966C014E
:103AF0007A9491F751C03B3551F49201A601672D9C
:103B0000C80197DE2C01009709F046C040C0C801EB
:103B10003983F0DD398197FD43C03F3651F128F4F8
:103B2000343619F1393661F128C0333769F0353749
:103B3000E1F023C0C114D10429F0F6018082C6014E
:103B400001966C017A9459F0C8012FDB4C0197FD66
:103B500006C03ED0892B71F3B801C40194D0C114C2
:103B6000D104D1F0F601108217C0FB2DF062BF2EF8
:103B700007C08B2D8061B82E03C09B2D9064B92E99
:103B80002B2DA601672DC801CBDD811105C0F801E1
:103B90008381807329F406C0B0FC0ACFA39408CFB8
:103BA000AA2019F08A2D90E002C08FEF9FEF0F90AE
:103BB000DF91CF911F910F91FF90EF90DF90CF9009
:103BC000BF90AF909F908F907F905F904F9008959F
:103BD0009111D0C0803219F089508550D0F70895E6
:103BE000FC010590061621F00020D9F7C0010895C8
:103BF0003197CF010895FC0105906150704001108C
:103C0000D8F7809590958E0F9F1F0895FC01615005
:103C1000704001900110D8F7809590958E0F9F1FEE
:103C200008950F931F93CF93DF93182F092FEB0164
:103C30008B8181FD03C08FEF9FEF20C082FF10C0FA
:103C40004E815F812C813D81421753077CF4E881CE
:103C5000F9819F012F5F3F4F39832883108306C06E
:103C6000E885F985812F0995892B29F72E813F81D8
:103C70002F5F3F4F3F832E83812F902FDF91CF9176
:103C80001F910F910895FB01238120FF12C026FD93
:103C900010C08F3F3FEF930761F082832F7D206438
:103CA0002383268137812150310937832683992741
:103CB00008958FEF9FEF0895FA01AA27283051F158
:103CC000203181F1E8946F936E7F6E5F7F4F8F4F4D
:103CD0009F4FAF4FB1E03ED0B4E03CD0670F781FAC
:103CE000891F9A1FA11D680F791F8A1F911DA11D91
:103CF0006A0F711D811D911DA11D20D009F46894CA
:103D00003F912AE0269F11243019305D3193DEF671
:103D1000CF010895462F4770405D4193B3E00FD027
:103D2000C9F7F6CF462F4F70405D4A3318F0495D12
:103D300031FD4052419302D0A9F7EACFB4E0A695F5
:103D40009795879577956795BA95C9F70097610517
:103D5000710508959B01AC010A2E0694579547956D
:103D600037952795BA95C9F7620F731F841F951F62
:0E3D7000A01D0895992788270895F894FFCF85
:103D7E0001000400FF00FF00FF00FF00FF00FF0036
:103D8E00000000000000FF00FF000000FF00000028
:103D9E00FF00FF00000000000000FF00FF00FF001A
:103DAE00FF00FF00FF002400250003230024002550
:103DBE0000002300270028000726002A002B0005FC
:103DCE00290024002500002300701064000000006C
:103DDE0000000000000000010100010001000000D1
:103DEE0000000100771064000000000000000000D9
:103DFE000000020200010001000000000001007E30
:103E0E00106400000000000000000000000303002A
:103E1E0001000100000000000100477265656E2080
:103E2E00636F756E742025640A0D0059656C6C6F96
:103E3E007720636F756E742025640A0D00526564D9
:103E4E0020636F756E742025640A0D0054797065B9
:103E5E00206520666F72206578706572696D656E7B
:103E6E007420616E64207468656E206E756D626577
:103E7E00722030202D203820666F72206578706594
:103E8E0072696D656E74206E756D6265720A0D00D5
:103E9E00464F52204558414D504C453A2065310A07
:103EAE00720030203D2064656661756C7420736508
:103EBE007474696E67730A0D0025632025640052C1
:103ECE006561647920746F2072756E2065787065F7
:103EDE0072696D656E742025640A0D004368616E0B
:103EEE00676520677265656E20706572696F642004
:103EFE00746F202564206D732E0A0D005A65726F43
:103F0E00696E67206F757420616C6C2076617269C2
:103F1E0061626C65732E0A0D00476F2077697468B5
:103F2E00206578706572696D656E742025640A0D62
:103F3E00007A2865726F2920652878706572696D20
:103F4E00656E74292067286F2920702872696E7437
:103F5E0029207228706572696F64290A0D00082085
:103F6E0008004275666665722066756C6C0D007091
:103F7E00004D697373656420646561646C696E6578
:103F8E007320666F7220524544204C454420746164
:103F9E00736B203D2025640A0D0052656420746FFA
:103FAE0067676C6520636F756E747320666F722021
:103FBE00524544204C4544207461736B203D2025AE
:103FCE00640A0D004D697373656420646561646CE9
:103FDE00696E657320666F722059454C4C4F5720A1
:103FEE004C4544207461736B203D2025640A0D00FE
:103FFE0059656C6C6F7720746F67676C6520636FA3
:10400E00756E747320666F7220524544204C454481
:10401E00207461736B203D2025640A0D004D697379
:10402E0073656420646561646C696E657320666F88
:10403E0072204556454E5420504F4C4C494E472009
:10404E007461736B203D2025640A0D004E756D6200
:10405E006572206F6620657865637574696F6E731F
:10406E0020666F72204556454E5420504F4C4C4999
:10407E004E47207461736B203D2025640A0D004D60
:10408E00697373656420646561646C696E65732021
:10409E00666F722053454D4150484F524520746112
:1040AE00736B203D2025640A0D004E756D6265729E
:1040BE00206F6620657865637574696F6E73206610
:1040CE006F722053454D4150484F524520746173D5
:1040DE006B203D2025640A0D004D697373656420C5
:1040EE00646561646C696E657320666F7220484FFB
:1040FE005547485452414E53464F524D20746173AA
:10410E006B203D2025640A0D004E756D6265722090
:10411E006F6620657865637574696F6E7320666F60
:10412E007220484F5547485452414E53464F524DB8
:10413E00207461736B203D2025640A0D004D697358
:10414E0073656420646561646C696E657320666F67
:10415E007220475245454E204C4544207461736B86
:10416E00203D2025640A0D00477265656E20746F30
:10417E0067676C6520636F756E747320666F72204F
:10418E00477265656E204C4544207461736B203D0B
:10419E002025640A0D004578706572696D656E7430
:1041AE00206973206F7665720A0D007A00476F6979
:1041BE006E6720696E746F206D61696E2077686915
:1041CE006C65206C6F6F702E2E2E2E2E2E0A0D000B
:1041DE00496E6372656173696E67206B502E0D0AAE
:1041EE000044656372656173696E67206B502E0DB6
:1041FE000A00496E6372656173696E67206B442EA7
:10420E000D0A0044656372656173696E67206B44C5
:10421E002E0D0A00466F7277617264202564206449
:10422E0065672E0D0A0052657665727365202564EA
:10423E00206465672E0A0053746F70204D6F746F83
:10424E00722E0D0A005A65726F20456E636F64659B
:10425E00722E0D0A005669657720446174612E0D29
:10426E000A00502C20702C20442C20642C20462038
:10427E00232C205220232C20532C205A2C20560D38
:02428E000A0024
:00000001FF
