:1000000064C000007EC000007CC000007AC0000018
:1000100078C0000076C0000074C0000072C000000C
:1000200070C00000EAC000006CC000006AC00000A0
:1000300068C0000066C0000064C0000062C000002C
:1000400060C00000B2C300005CC000005AC00000E5
:1000500058C000006FC2000054C0000052C0000031
:1000600050C000004EC000004CC000004AC000005C
:1000700048C0000046C0000044C0000042C000006C
:1000800040C000003EC000003CC000003AC000007C
:1000900038C0000036C0000034C0000032C000008C
:1000A00030C000002EC000002CC0000005A84CCDC0
:1000B000B2D44EB93836A9020C50B9918688083CA2
:1000C000A6AAAA2ABE000000803F11241FBECFEFBF
:1000D000DAE0DEBFCDBF11E0A0E0B1E0EEE1FBE190
:1000E00002C005900D92AC38B107D9F722E0ACE818
:1000F000B1E001C01D92A83DB207E1F739D60C94DA
:100100008D0D7ECF089587E0E4E3F1E0A1EBB1E04F
:1001100001900D928A95E1F787E0EBE3F1E0A9E920
:10012000B1E001900D928A95E1F782E890E090931A
:10013000BB018093BA019093B9018093B801909369
:10014000A1018093A0019093910180939001089563
:10015000FC01A081B1814C9181E090E09C01048080
:1001600002C0220F331F0A94E2F7209524232C9318
:10017000A281B3812C91048002C0880F991F0A9438
:10018000E2F7282B2C9380916800816080936800AF
:100190008481833029F480916B00886080936B00A8
:1001A0008481811105C080916B00816080936B0018
:1001B00083B189708093B00180E090E00895FC01E4
:1001C0008481833061F4672B29F05093BB01409305
:1001D000BA0108955093B9014093B801089581116F
:1001E0000BC0672B29F05093A1014093A001089503
:1001F000509391014093900108951F920F920FB672
:100200000F9211241F932F933F934F935F936F93FC
:100210007F938F939F93AF93BF93CF93DF93EF938E
:10022000FF9313B1D12FD9708FE99FE00197F1F7B8
:1002300000C0000083B12D2F30E0897090E02817B6
:10024000390709F5C091B001CD27C3FF0CC013FDDC
:1002500005C0E091B801F091B90104C0E091BA0184
:10026000F091BB010995C0FF0CC010FD05C0E091E5
:100270009001F091910104C0E091A001F091A101E1
:100280000995D093B001FF91EF91DF91CF91BF918C
:10029000AF919F918F917F916F915F914F913F911E
:1002A0002F911F910F900FBE0F901F90189587E010
:1002B000E2E4F1E0A9EAB1E001900D928A95E1F75C
:1002C0003F9A87E0E9E4F1E0A2EAB1E001900D9203
:1002D0008A95E1F7559A87E0E0E5F1E0A2E9B1E01F
:1002E00001900D928A95E1F7209A0895FC01A28170
:1002F000B38134812C9181E090E0032E01C0880FFE
:100300000A94EAF7672B19F4282B2C9303C08095E5
:1003100082238C932FEF83EC99E021508040904012
:10032000E1F700C00000A281B3812C9181E090E050
:10033000048002C0880F991F0A94E2F728272C93A3
:100340002FEF83EC99E0215080409040E1F700C00E
:100350000000089560E070E089EA91E0C7DF61E0A5
:1003600070E082E991E0C2DF61E070E082EA91E052
:10037000BDDF60E070E089EA91E0B8DF61E070E045
:1003800082E991E0B3DF61E070E082EA91E0AECF14
:1003900081E090E090938F0180938E01F89408950E
:1003A000F8942091CA023091CB024091CC02509136
:1003B000CD026091CE027091CF028091D0029091D7
:1003C000D1027894089578940895CF93DF93C091E3
:1003D0008C01D0918D01CA30D105D9F17BE17C9F90
:1003E000F0017D9FF00D1124E454FE4F9183808332
:1003F00053834283852F880F880BDF011496448333
:1004000011965C93119712968C93129713968C9376
:10041000139714968C93149715968C93159716969C
:100420008C93169717968C936687308B278781E07D
:1004300090E0928B818B948B838B168A158A108E19
:10044000178A928F818F2196D0938D01C0938C0152
:1004500002C08FEF9FEFDF91CF91089521E030E050
:100460004AE050E061E070E087EE93E0AEDF22E02A
:1004700030E04FE050E063E070E080E294E0A5DF20
:1004800023E030E044E150E064E070E081E194E09A
:100490009CDF23E030E044E150E066E070E08FE56F
:1004A00095E093DF24E030E049E150E062E070E065
:1004B00083E294E08ADF24E030E049E150E067E045
:1004C00070E08EE394E081DF25E030E04EE150E023
:1004D00065E070E085E394E078DF26E030E042E319
:1004E00050E068E070E087E494E06FDF27E030E000
:1004F00047E350E069E070E08CE294E066DF28E0DA
:1005000030E04AEF50E06AE070E08BEA95E05DCFC2
:10051000CEDE20DFF8DDA2DF41E050E060E470E0F5
:1005200080E090E0E0D34AEF50E060E071E081E0ED
:1005300090E0D9C31F920F920FB60F9211243F92F1
:100540004F925F926F927F928F929F92AF92BF92E3
:10055000CF92DF92EF92FF920F931F932F933F93CF
:100560004F935F936F937F938F939F93AF93BF93BB
:10057000CF93DF93EF93FF932091CA023091CB0288
:100580004091CC025091CD026091CE027091CF0289
:100590008091D0029091D102A1E039D52093CA0276
:1005A0003093CB024093CC025093CD026093CE02A5
:1005B0007093CF028093D0029093D102FBE13F2E43
:1005C000A8E64A2EA1E05A2E66246394712C8AE094
:1005D000881691040CF074C02091CA023091CB02AD
:1005E0004091CC025091CD026091CE027091CF0229
:1005F0008091D0029091D102389CE001399CD00DBD
:100600001124C454DE4FEA81FB811F2F110F110BFF
:100610005F01C12ED12EE12EF12E012F65D4F901FB
:100620002091CA023091CB024091CC025091CD0270
:100630006091CE027091CF028091D0029091D10250
:10064000EA80FB80EE9ED001EF9EB00DFE9EB00DC5
:1006500011241B2F110F110B5D01C12ED12EE12E84
:10066000F12E012FE0D441F58F89988DE81BF90B0D
:10067000FD87EC8788E08816910439F07A8E698EC0
:1006800089899A8901969A8B898B4091A2028091DF
:10069000A0029091A102242F332727FD30953F938C
:1006A0004F939F938F935F924F9290D70F900F909D
:1006B0000F900F900F900F908FEF881A980A87CFA6
:1006C000E0918E01F0918F01E130F10509F04BC00E
:1006D0002091CA023091CB024091CC025091CD02C0
:1006E0006091CE027091CF028091D0029091D102A0
:1006F000F093AE02E093AD02C091AB02D091AC0298
:10070000E7E3AE2EB12CC12CD12CE12CF12C00E072
:1007100010E0EAD349018C1A9D0A9092A1028092BE
:10072000A0028091A5029091A60201969093A60244
:100730008093A5024091A2028091A0029091A10213
:10074000242F332727FD30953F934F939F938F930B
:1007500088E691E09F938F9339D70F900F900F9079
:100760000F900F900F90FF91EF91DF91CF91BF917C
:10077000AF919F918F917F916F915F914F913F9139
:100780002F911F910F91FF90EF90DF90CF90BF902E
:10079000AF909F908F907F906F905F904F903F9021
:1007A0000F900FBE0F901F9018951F920F920FB6CB
:1007B0000F9211248F939F9385B190E4892785B977
:1007C0009F918F910F900FBE0F901F901895CF9310
:1007D000DF9349E150E061E070E082E091E020E0E9
:1007E00030E0FC01E20FF31FA081B181EB01CA1BD5
:1007F000DB0BD183C0832E5F3F4F2A30310589F751
:100800000A96D1E084339D0751F7415051094115B3
:10081000510519F78091020190910301DF91CF9169
:1008200008958FE99FE00197F1F700C000008FE97C
:100830009FE00197F1F700C0000081E090E008958B
:1008400080E090E008958FE99FE00197F1F700C004
:10085000000081E090E008958FE99FE00197F1F7B3
:1008600000C0000081E090E008958FE39FE10197D0
:10087000F1F700C0000082E090E008958FED9EE265
:100880000197F1F700C0000083E090E00895A6E131
:10089000B0E0ECE4F4E084C38091000190910101A8
:1008A0000196853091053CF49093010180930001FD
:1008B00080E090E001C1109201011092000122E05D
:1008C00031E038872F831E8A1D8AAD89BE89BD011C
:1008D000882777FD8095982FDFD420E030E040E234
:1008E00050E4D7D320E030E040E05FE3D3D3698326
:1008F0007A838B839C839B01AC0197D569877A8728
:100900008B879C870EEF1FEFB801882777FD8095B6
:10091000982FC2D420E030E040E05FE3BBD36B010E
:100920007C01F801EE0FFF1F2F813885E20FF31FC6
:1009300084819581BC01882777FD8095982FACD460
:100940004B015C01A7019601C701B6016ED529854F
:100950003A854B855C859ED39B01AC01C501B401F2
:1009600064D56D877E878F87988B1E821D82212C90
:10097000312CAD81BE81BD01882777FD8095982FF0
:100980008BD423EC35EF48E450E483D34B015C0176
:10099000E5D39B01AC01C501B401298B3A8B4B8B8C
:1009A0005C8BA6D52B013C0129893A894B895C894E
:1009B000C701B6013AD54B015C01A30192016981DF
:1009C0007A818B819C8131D59B01AC01C501B40139
:1009D00061D34B015C0120E030E0A90122D587FD05
:1009E00009C0C501B40125D4CB0163E070E03FD25A
:1009F00021010CC0C501B401905820E030E040E472
:100A000050E4AFD316D493E0492E512CB5E0B69FF5
:100A10003001B79F700C1124640C751C660C771C98
:100A2000F301EE5FFE4F3F01882777FD8095982FF9
:100A300033D49B01AC016D857E858F8598892AD33F
:100A40004B015C01B201882777FD8095982F24D453
:100A50009B01AC01C501B4011DD3EBD3D3018D9132
:100A60009C911197860F911D67FD9A958D939C938C
:100A7000BFEF2B1A3B0AED81FE813496FE83ED8396
:100A8000F2E02F16310409F074CF0F5F1F4F0130D1
:100A9000110509F039CF2D893E892F5F3F4F3E8BDD
:100AA0002D8B8F8198850A9698878F832330310507
:100AB00009F00BCF81E090E06696E2E18DC2A0E004
:100AC000B0E0E4E6F5E074C2CAE0D0E002E011E094
:100AD000C12CD12C7601A12CB12CF801EA0DFB1D03
:100AE00060817181882777FD8095982FD5D39B01F0
:100AF000AC01C701B601CED26B017C0182E0A80E29
:100B0000B11C8AE0A816B10441F7065F1F4F81E0CF
:100B10000433180701F720E030E048EC51E4C70146
:100B2000B6011FD320E030E040E05FE37AD418162E
:100B30002CF460E070E080E89FE303C060E070E0C8
:100B4000CB012197209709F0C1CF73D3CB01CDB74B
:100B5000DEB7EAE049C28EB190E489278EB90895E4
:100B600014BC15BC94B5926094BD95B5982B95BDF9
:100B700067BDEEE6F0E080818260808381E090E0F6
:100B8000089510928000E1E8F0E010829081986072
:100B900090839081982B9083709389006093880054
:100BA000EFE6F0E080818260808381E090E008954C
:100BB00010929000E1E9F0E01082908198609083BB
:100BC0009081982B90837093990060939800E1E74F
:100BD000F0E080818260808381E090E00895A0E869
:100BE000B0E01C92E1E8F0E0108290E29C939C91CE
:100BF00092609C93908190619083908198609083A3
:100C00009081982B908370938B0060938A0030932F
:100C100087002093860081E090E00895803491055C
:100C200091F034F48130910561F0089791F00FC094
:100C3000811521E0920749F08115944041F485E047
:100C4000089581E0089583E0089584E0089580E0A8
:100C5000089582E00895A0E0B0E0E0E3F6E0A0C1EE
:100C6000EC011B015A01680179018230910518F0ED
:100C70008330910591F560E87EE380E090E091019A
:100C8000442737FD4095542F05D1D50125D12B019F
:100C90003C0100D39B01AC01C701B601C6D3CED243
:100CA0004B015C01209741F48FEF88169104A10459
:100CB000B10441F038F011C08114910481E0A8061C
:100CC000B10458F4C101AADF219739F487017601F4
:100CD000A3019201B40183DF02C08FEF9FEFCDB774
:100CE000DEB7E2E179C1A0E0B0E0E8E7F6E062C19A
:100CF000EC018B017A018230910518F08330910567
:100D000089F560E87EE380E090E09801442737FDB4
:100D10004095542FBFD0D701DFD06B017C012097C5
:100D200041F48FEFC816D104E104F10441F038F02A
:100D300019C0C114D10481E0E806F10498F4C80197
:100D40006DDFC130D10541F0C330D10541F0CD2B6D
:100D500049F46C2D05DF08C0B60113DF05C0B601EC
:100D600027DF02C08FEF9FEFCDB7DEB7E8E03EC1CF
:100D7000A0E0B0E0EDEBF6E01EC11092D800C8DBB9
:100D800048EC51E061E070E081EB91E018DA1092FC
:100D9000CA021092CB021092CC021092CD02109295
:100DA000CE021092CF021092D0021092D10278940B
:100DB00080E090E0CFEFDFEF2BE1D22E02E010E0F9
:100DC000EE24E394F12C009799F42196DC9EF00137
:100DD000DD9EF00D1124E454FE4F218D328D213023
:100DE000310589F787E591E002D481E090E0EBCF0F
:100DF000CF3F8FEFD80719F480E090E0E4CFF8946C
:100E0000DC9EF001DD9EF00D1124E454FE4F128FA4
:100E1000018F7894DC9EF001DD9EF00D1124E454E6
:100E2000FE4F0190F081E02D0995F894DC9EF001D1
:100E3000DD9EF00D1124E454FE4F8789908D0196BC
:100E4000908F878B818992890197928B818B818981
:100E50009289181619061CF4F28EE18E02C0128EC9
:100E6000118E789480E090E0CFEFDFEFACCF97FB6E
:100E7000072E16F4009406D077FD08D0DDD007FCCD
:100E800005D03EF4909581959F4F0895709561959A
:100E90007F4F0895A1E21A2EAA1BBB1BFD010DC0B6
:100EA000AA1FBB1FEE1FFF1FA217B307E407F5071A
:100EB00020F0A21BB30BE40BF50B661F771F881FF6
:100EC000991F1A9469F760957095809590959B018C
:100ED000AC01BD01CF010895B7FFC2C0C1D0821BD4
:100EE000930B0895689401C0E8948F929F92CF93DA
:100EF000DF9305D0DF91CF919F908F900895882444
:100F00009924F401E401B0E49F93AA279A158B0475
:100F10009C04ED05FE05CF05D007A10798F4AD2F81
:100F2000DC2FCF2FFE2FE92D982C892E982F872F7D
:100F3000762F652F542F432F322F2227B85031F7A9
:100F4000BF9127C01B2EBF91BB27220F331F441F09
:100F5000551F661F771F881F991F881C991CEE1F3D
:100F6000FF1FCC1FDD1FAA1FBB1F8A149B04EC05AB
:100F7000FD05CE05DF05A007B10748F08A189B08DC
:100F8000EC09FD09CE09DF09A00BB10B21601A9411
:100F9000E1F62EF49401AF01BE01CD01000C0895DD
:100FA0002F923F924F925F926F927F928F929F9279
:100FB000AF92BF92CF92DF92EF92FF920F931F9367
:100FC000CF93DF93CDB7DEB7CA1BDB0B0FB6F89418
:100FD000DEBF0FBECDBF09942A88398848885F8458
:100FE0006E847D848C849B84AA84B984C884DF80C9
:100FF000EE80FD800C811B81AA81B981CE0FD11DAD
:101000000FB6F894DEBF0FBECDBFED0108950024EA
:10101000A7FD00942A0F301D401D501D601D701D3E
:10102000801D901D08952A153B054C055D056E0534
:101030007F05800791070895AA1BBB1B51E107C0DC
:10104000AA1FBB1FA617B70710F0A61BB70B881F58
:10105000991F5A95A9F780959095BC01CD010895E7
:1010600009D0A59F900DB49F900DA49F800D911D58
:1010700011240895A29FB001B39FC001A39F700DDA
:10108000811D1124911DB29F700D811D1124911D90
:1010900008955058BB27AA270ED078C141D130F00F
:1010A00046D120F031F49F3F11F41EF436C10EF406
:1010B000E095E7FB2CC1E92F8BD180F3BA176207CB
:1010C00073078407950718F071F49EF5A3C10EF419
:1010D000E0950B2EBA2FA02D0B01B90190010C0148
:1010E000CA01A0011124FF27591B99F0593F50F460
:1010F000503E68F11A16F040A22F232F342F4427B8
:10110000585FF3CF469537952795A795F0405395AF
:10111000C9F77EF41F16BA0B620B730B840BBAF07F
:101120009150A1F0FF0FBB1F661F771F881FC2F7EA
:101130000EC0BA0F621F731F841F48F487957795FE
:101140006795B795F7959E3F08F0B3CF9395880FB5
:1011500008F09927EE0F979587950895F0D0E395BD
:1011600026C10CD013C1E3D040F0DAD030F021F426
:101170005F3F19F0CCC051114EC1CFC029D198F3B7
:101180009923C9F35523B1F3951B550BBB27AA2708
:1011900062177307840738F09F5F5F4F220F331F7A
:1011A000441FAA1FA9F333D00E2E3AF0E0E830D046
:1011B00091505040E695001CCAF729D0FE2F27D049
:1011C000660F771F881FBB1F261737074807AB0717
:1011D000B0E809F0BB0B802DBF01FF2793585F4F8C
:1011E0002AF09E3F510568F092C015C15F3FECF3B5
:1011F000983EDCF3869577956795B795F7959F5F51
:10120000C9F7880F911D9695879597F90895E1E0A4
:10121000660F771F881FBB1F621773078407BA0703
:1012200020F0621B730B840BBA0BEE1F88F7E0955E
:10123000089504D06894B111EEC00895D1D088F01B
:101240009F5790F0B92F9927B751A0F0D1F0660FB2
:10125000771F881F991F1AF0BA95C9F712C0B130CD
:1012600081F0D8D0B1E00895D5C0672F782F8827B6
:10127000B85F39F0B93FCCF3869577956795B3950C
:10128000D9F73EF490958095709561957F4F8F4F7B
:101290009F4F0895E89409C097FB3EF49095809580
:1012A000709561957F4F8F4F9F4F9923A9F0F92F2C
:1012B00096E9BB279395F695879577956795B795AA
:1012C000F111F8CFFAF4BB0F11F460FF1BC06F5F90
:1012D0007F4F8F4F9F4F16C0882311F096E911C0A2
:1012E000772321F09EE8872F762F05C0662371F0C3
:1012F00096E8862F70E060E02AF09A95660F771FD7
:10130000881FDAF7880F9695879597F9089597F9CA
:101310009F6780E870E060E008959FEF80EC08959B
:1013200000240A94161617061806090608950024C4
:101330000A9412161306140605060895EECF50D02F
:10134000E8F3E894E0E0BB279F57F0F02AED3FE098
:1013500049EC06C0EE0FBB0F661F771F881F28F0F1
:10136000B23A62077307840728F0B25A620B730B14
:10137000840BE3959A9572F7803830F49A95BB0FF9
:10138000661F771F881FD2F79048DEC0092E03948E
:10139000000C11F4882352F0BB0F40F4BF2B11F462
:1013A00060FF04C06F5F7F4F8F4F9F4F0895EF9393
:1013B000E0FF06C0A2EA2AED3FE049EC5FEB7BDEEE
:1013C000E5DF0F90039401FC9058ECEAF0E0C8C010
:1013D00057FD9058440F551F59F05F3F71F04795E6
:1013E000880F97FB991F61F09F3F79F087950895CB
:1013F000121613061406551FF2CF4695F1DF08C0EA
:10140000161617061806991FF1CF86957105610506
:1014100008940895E894BB2766277727CB0197F9AE
:1014200008956CD008F48FEF08950BD0AFCF78DF1C
:1014300028F07DDF18F0952309F069CF6ECF1124D5
:10144000EACFC6DFA0F3959FD1F3950F50E0551F6B
:10145000629FF001729FBB27F00DB11D639FAA2709
:10146000F00DB11DAA1F649F6627B00DA11D661F58
:10147000829F2227B00DA11D621F739FB00DA11D79
:10148000621F839FA00D611D221F749F3327A00D33
:10149000611D231F849F600D211D822F762F6A2FCF
:1014A00011249F5750408AF0E1F088234AF0EE0F54
:1014B000FF1FBB1F661F771F881F91505040A9F761
:1014C0009E3F510570F023CFA6CF5F3FECF3983ECF
:1014D000DCF3869577956795B795F795E7959F5FC8
:1014E000C1F7FE2B880F911D9695879597F9089562
:1014F0009F9325DF0F9007FCEE5F59CF990F0008EF
:10150000550FAA0BE0E8FEEF16161706E807F907D5
:10151000C0F012161306E407F50798F0621B730B70
:10152000840B950B39F40A2661F0232B242B252BF1
:1015300021F408950A2609F4A140A6958FEF811D94
:10154000811D08959F3F31F0915020F48795779544
:101550006795B795880F911D9695879597F908958A
:101560009F938F937F936F93FF93EF939B01AC01B6
:101570005CDFEF91FF9105D02F913F914F915F91EB
:1015800054CFDF93CF931F930F93FF92EF92DF928D
:101590007B018C01689405C0DA2EEF0152DFFE0159
:1015A000E894A5912591359145915591AEF3EF01C0
:1015B00082DDFE019701A801DA9479F7DF90EF90C0
:1015C000FF900F911F91CF91DF910895A0E0B0E0BF
:1015D000EBEEFAE0F5CCFE01359661917191AF0129
:1015E0008091D4029091D5022FD0E2E005CD0F93E7
:1015F0001F93CF93DF93E091D402F091D502238122
:1016000021FF1BC0EC0100E010E089916091D40241
:101610007091D502DB011896ED91FC911997882302
:1016200031F00995892B89F30FEF1FEFEECF8AE098
:101630000995892B11F4C80102C08FEF9FEFDF914C
:10164000CF911F910F910895ACE0B0E0E9E2FBE08B
:10165000A7CC7C016B018A01FC0117821682838171
:1016600081FFB0C1CE0101964C01F7019381F601D3
:1016700093FD859193FF81916F01882309F49EC1A9
:10168000853239F493FD859193FF81916F01853205
:1016900021F4B70190E0B1D1E8CF512C312C20E0FA
:1016A0002032A0F48B3269F030F4803259F083326A
:1016B00069F420612CC08D3239F0803339F4216017
:1016C00026C02260246023C0286021C027FD27C0D7
:1016D00030ED380F3A3078F426FF06C0FAE05F9E0E
:1016E000300D1124532E13C08AE0389E300D112482
:1016F000332E20620CC08E3221F426FD5FC120649F
:1017000006C08C3611F4206802C0883641F4F60118
:1017100093FD859193FF81916F018111C1CF982F26
:101720009F7D9554933028F40C5F1F4FFFE3F9839E
:101730000DC0833631F0833771F0833509F057C01F
:1017400021C0F801808189830E5F1F4F4424439498
:10175000512C540114C03801F2E06F0E711CF801D5
:10176000A080B18026FF03C0652D70E002C06FEF3E
:101770007FEFC5012C8736D12C0183012C852F7773
:10178000222E16C03801F2E06F0E711CF801A08005
:10179000B18026FF03C0652D70E002C06FEF7FEFC0
:1017A000C5012C8714D12C012C852068222E8301A1
:1017B00023FC19C0832D90E048165906A0F4B70108
:1017C00080E290E01AD13A94F5CFF50127FC85919B
:1017D00027FE81915F01B70190E00FD131103A945B
:1017E000F1E04F1A51084114510479F7DEC08436F4
:1017F00011F0893631F5F80127FF07C0608171814A
:10180000828193810C5F1F4F08C06081718188279E
:1018100077FD8095982F0E5F1F4F2F76B22E97FF82
:1018200009C090958095709561957F4F8F4F9F4F20
:101830002068B22E2AE030E0A40111D1A82EA81809
:1018400043C0853729F42F7EB22E2AE030E025C030
:10185000F22FF97FBF2E8F36C1F018F4883579F05A
:10186000ADC0803719F0883721F0A8C02F2F206134
:10187000B22EB4FE0DC08B2D8460B82E09C024FF9B
:101880000AC09F2F9660B92E06C028E030E005C040
:1018900020E130E002C020E132E0F801B7FE07C0ED
:1018A00060817181828193810C5F1F4F06C06081CE
:1018B000718180E090E00E5F1F4FA401D0D0A82E70
:1018C000A818FB2DFF77BF2EB6FE0BC02B2D2E7F49
:1018D000A51450F4B4FE0AC0B2FC08C02B2D2E7E15
:1018E00005C07A2C2B2D03C07A2C01C0752C24FF47
:1018F0000DC0FE01EA0DF11D8081803311F4297EB7
:1019000009C022FF06C07394739404C0822F8678A6
:1019100009F0739423FD12C020FF06C05A2C7314E3
:1019200018F4530C5718732C731460F4B70180E249
:1019300090E02C8762D073942C85F6CF731410F44A
:10194000371801C0312C24FF11C0B70180E390E0AB
:101950002C8753D02C8522FF16C021FF03C088E5B9
:1019600090E002C088E790E0B7010CC0822F867833
:1019700051F021FD02C080E201C08BE227FD8DE223
:10198000B70190E03AD0A51430F4B70180E390E0BD
:1019900034D05A94F8CFAA94F401EA0DF11D808155
:1019A000B70190E02AD0A110F6CF332009F45DCE24
:1019B000B70180E290E021D03A94F7CFF701868119
:1019C000978102C08FEF9FEF2C96E2E105CBFC01DF
:1019D0000590615070400110D8F7809590958E0F5A
:1019E0009F1F0895FC016150704001900110D8F7CD
:1019F000809590958E0F9F1F08950F931F93CF93FF
:101A0000DF93182F092FEB018B8181FD03C08FEF2E
:101A10009FEF20C082FF10C04E815F812C813D81ED
:101A2000421753077CF4E881F9819F012F5F3F4FF4
:101A300039832883108306C0E885F985812F0995AD
:101A4000892B29F72E813F812F5F3F4F3F832E83C4
:101A5000812F902FDF91CF911F910F910895FA015F
:101A6000AA27283051F1203181F1E8946F936E7FDD
:101A70006E5F7F4F8F4F9F4FAF4FB1E03ED0B4E0CE
:101A80003CD0670F781F891F9A1FA11D680F791F0F
:101A90008A1F911DA11D6A0F711D811D911DA11D20
:101AA00020D009F468943F912AE0269F1124301930
:101AB000305D3193DEF6CF010895462F4770405DCB
:101AC0004193B3E00FD0C9F7F6CF462F4F70405D7A
:101AD0004A3318F0495D31FD4052419302D0A9F7D5
:101AE000EACFB4E0A6959795879577956795BA95CF
:101AF000C9F700976105710508959B01AC010A2E95
:101B000006945795479537952795BA95C9F7620F6B
:0E1B1000731F841F951FA01D0895F894FFCF2A
:101B1E000400FF00FF00FF00FF00FF00FF000000B9
:101B2E0000000000FF00FF000000FF000000FF00AB
:101B3E00FF00000000000000FF00FF00FF00FF009C
:101B4E00FF00FF00240025000323002400250000D1
:101B5E002300270028000726002A002B0005290055
:101B6E00240025000023006D6164652069742074D3
:101B7E006F207265616479006D69737365642064AA
:101B8E006561646C696E65202564206F66207461E2
:0C1B9E00736B206E756D2025640A00003A
:00000001FF
