:1000000055C000006EC000006CC000006AC0000057
:1000100068C0000066C0000064C0000062C000004C
:1000200060C000001FC100005CC000005AC000009A
:1000300058C0000056C0000054C0000052C000006C
:1000400050C000004EC000004CC000004AC000007C
:1000500048C0000046C0000044C0000042C000008C
:1000600040C000003EC000003CC000003AC000009C
:1000700038C0000036C0000034C0000032C00000AC
:1000800030C000002EC000002CC000002AC00000BC
:1000900028C0000026C0000024C0000022C00000CC
:1000A00020C000001EC000001CC0000011241FBEA4
:1000B000CFEFDAE0DEBFCDBF11E0A0E0B1E0ECE4CD
:1000C000F9E002C005900D92AE30B107D9F721E0FA
:1000D000AEE0B1E001C01D92A734B207E1F756D2FD
:1000E00033C48ECF089587E0E0E0F1E0A6E3B1E00D
:1000F00001900D928A95E1F787E0E7E0F1E0AEE14B
:10010000B1E001900D928A95E1F782E790E090933B
:10011000400180933F0190933E0180933D01909375
:10012000260180932501909316018093150108956F
:10013000FC01A081B1814C9181E090E09C010480A0
:1001400002C0220F331F0A94E2F7209524232C9338
:10015000A281B3812C91048002C0880F991F0A9458
:10016000E2F7282B2C9380916800816080936800CF
:100170008481833029F480916B00886080936B00C8
:100180008481811105C080916B00816080936B0038
:1001900083B189708093350180E090E00895FC017F
:1001A0008481833061F4672B29F0509340014093A0
:1001B0003F01089550933E0140933D010895811100
:1001C0000BC0672B29F05093260140932501089519
:1001D000509316014093150108958091100190915C
:1001E0001101892B39F481E090E090931101809303
:1001F000100108951092110110921001089580913C
:100200000E0190910F01892B39F481E090E09093D9
:100210000F0180930E01089510920F0110920E01AC
:1002200008950F931F9300E010E0980148EE53E00B
:1002300060E071E081E090E011D11F910F9108958D
:1002400024982598EBE6F0E08081806180838081AE
:1002500080628083E8E6F0E0808181608083519A4B
:10026000599A08951F920F920FB60F9211242F934F
:100270003F934F935F936F937F938F939F93EF93EE
:1002800043B144FB222720F930E045FB882780F961
:1002900090E04091420150914301E82F6091450167
:1002A00070914601241751F04091130150911401AF
:1002B0004F5F5F4F5093140140931301E61751F0C5
:1002C0004091130150911401415051095093140170
:1002D0004093130140914501509146012417350781
:1002E00051F040914201509143018417950719F054
:1002F00041E04093120130934601209345019093D1
:10030000430180934201EF919F918F917F916F9173
:100310005F914F913F912F910F900FBE0F901F90C3
:100320001895E1CE14BC15BC94B5926094BD95B5FA
:10033000982B95BD67BDEEE6F0E0808182608083FA
:1003400081E090E0089510928000E1E8F0E01082F2
:100350009081986090839081982B9083709389000E
:1003600060938800EFE6F0E080818260808381E026
:1003700090E0089510929000E1E9F0E01082908101
:10038000986090839081982B9083709399006093EC
:100390009800E1E7F0E080818260808381E090E076
:1003A0000895A0E8B0E01C92E1E8F0E010829C9192
:1003B00090629C939C9192609C93908190619083B9
:1003C0009081986090839081982B908370938B009C
:1003D00060938A00309387002093860081E090E04C
:1003E0000895A0E9B0E01C92E1E9F0E010829C9150
:1003F00090689C939C9192609C9390819061908373
:100400009081986090839081982B9083709399004D
:1004100060939800309397002093960081E090E0DD
:1004200008958034910591F034F48130910561F0A4
:10043000089791F00FC0811521E0920749F08115CE
:10044000944041F485E0089581E0089583E00895A3
:1004500084E0089580E0089582E00895A0E0B0E08F
:10046000E3E3F2E004C1EC011B015A0168017901E8
:100470008230910520F08330910509F03CC060E89E
:100480007EE380E090E09101442737FD4095542FB2
:10049000C6D0D501E6D02B013C0165D19B01AC0152
:1004A000C701B601C6D133D14B015C01209741F49D
:1004B0008FEF88169104A104B10441F038F01BC0FD
:1004C0008114910481E0A806B104A8F4C101A9DF58
:1004D000C130D10549F0239771F487017601A3015A
:1004E0009201B4017EDF09C087017601A301920168
:1004F000B40157DF02C08FEF9FEFCDB7DEB7E2E167
:10050000D2C0A0E0B0E0E6E8F2E0BBC0EC018B01B5
:100510007A018230910518F08330910589F560E801
:100520007EE380E090E09801442737FD4095542F0A
:1005300076D0D70196D06B017C01209741F48FEFE4
:10054000C816D104E104F10441F038F019C0C11417
:10055000D10481E0E806F10498F4C80162DFC130FB
:10056000D10541F0C330D10541F0CD2B49F46C2DBC
:10057000D9DE08C0B601E7DE05C0B601FBDE02C069
:100580008FEF9FEFCDB7DEB7E8E097C01092D800AD
:10059000AADD86E391E0CCDD4DEE50E061E070E055
:1005A00086E391E0FCDD8EE191E0C2DD4FEF50E0AB
:1005B00061E070E08EE191E0F2DD42DE32DE7894BF
:1005C0008091100190911101892B59F400E010E005
:1005D000980148EE53E060E071E081E090E03EDF9A
:1005E00006C08091100190911101019779F38091DB
:1005F0000E0190910F01892B59F400E010E0980151
:1006000041E050E060E071E081E090E027DFD8CF8A
:1006100080910E0190910F01019791F6EECFA1E22A
:100620001A2EAA1BBB1BFD010DC0AA1FBB1FEE1F6C
:10063000FF1FA217B307E407F50720F0A21BB30BB7
:10064000E40BF50B661F771F881F991F1A9469F733
:1006500060957095809590959B01AC01BD01CF018F
:100660000895B7FF3BC03AD0821B930B08952F9299
:100670003F924F925F926F927F928F929F92AF9232
:10068000BF92CF92DF92EF92FF920F931F93CF937F
:10069000DF93CDB7DEB7CA1BDB0B0FB6F894DEBF16
:1006A0000FBECDBF09942A88398848885F846E843C
:1006B0007D848C849B84AA84B984C884DF80EE8086
:1006C000FD800C811B81AA81B981CE0FD11D0FB68F
:1006D000F894DEBF0FBECDBFED01089509D0A59FF0
:1006E000900DB49F900DA49F800D911D112408952D
:1006F000A29FB001B39FC001A39F700D811D112463
:10070000911DB29F700D811D1124911D089570D00F
:1007100088F09F5790F0B92F9927B751A0F0D1F0EA
:10072000660F771F881F991F1AF0BA95C9F712C074
:10073000B13081F077D0B1E0089574C0672F782F81
:100740008827B85F39F0B93FCCF3869577956795E0
:10075000B395D9F73EF490958095709561957F4F4C
:100760008F4F9F4F0895E89409C097FB3EF49095F2
:100770008095709561957F4F8F4F9F4F9923A9F07A
:10078000F92F96E9BB279395F69587957795679509
:10079000B795F111F8CFFAF4BB0F11F460FF1BC04D
:1007A0006F5F7F4F8F4F9F4F16C0882311F096E9E0
:1007B00011C0772321F09EE8872F762F05C066238E
:1007C00071F096E8862F70E060E02AF09A95660F47
:1007D000771F881FDAF7880F9695879597F9089500
:1007E00057FD9058440F551F59F05F3F71F04795E2
:1007F000880F97FB991F61F09F3F79F087950895C7
:10080000121613061406551FF2CF4695F1DF08C0E5
:10081000161617061806991FF1CF86957105610502
:1008200008940895E894BB2766277727CB0197F9AA
:1008300008950BD078C069D028F06ED018F09523B9
:1008400009F05AC05FC01124EECFCADFA0F3959F14
:10085000D1F3950F50E0551F629FF001729FBB27A7
:10086000F00DB11D639FAA27F00DB11DAA1F649F53
:100870006627B00DA11D661F829F2227B00DA11D06
:10088000621F739FB00DA11D621F839FA00D611D8C
:10089000221F749F3327A00D611D231F849F600DAD
:1008A000211D822F762F6A2F11249F5750408AF0E6
:1008B000E1F088234AF0EE0FFF1FBB1F661F771F72
:1008C000881F91505040A9F79E3F510570F014C009
:1008D000AACF5F3FECF3983EDCF38695779567955A
:1008E000B795F795E7959F5FC1F7FE2B880F911D90
:1008F0009695879597F9089597F99F6780E870E036
:1009000060E008959FEF80EC089500240A94161685
:10091000170618060906089500240A9412161306ED
:10092000140605060895092E0394000C11F488237B
:1009300052F0BB0F40F4BF2B11F460FF04C06F5F97
:0C0940007F4F8F4F9F4F0895F894FFCF1A
:0E094C002400250003230024002500002300C2
:00000001FF
